:100000000C942A000C948B0B0C94BA0B0C94E90BF7
:100010000C9447000C9447000C94400D0C94FD0C7C
:100020000C9447000C94BA0C0C94770C0C94340C80
:100030000C9447000C9447000C9447000C94470024
:100040000C9417070C9447000C9447000C9447003D
:100050000C94470011241FBECFE5D8E0DEBFCDBF12
:1000600011E0A0E6B0E0E8E9FAE502C005900D92E3
:10007000A837B107D9F711E0A8E7B1E001C01D9298
:10008000AA38B107E1F70E94A12C0C944A2D0C94D8
:100090000000EF92FF920F931F937B018C0120E0F1
:1000A00030E040E05FE40E94F50388238CF0C80153
:1000B000B70120E030E040E05FE40E94C1010E940F
:1000C00055049B01AC01205030404040504806C0D0
:1000D000C801B7010E9455049B01AC01B901CA01D6
:1000E0001F910F91FF90EF900895A0E0B0E0EBE733
:1000F000F0E00C94E22CDC012B01FA019C9192308F
:1001000008F439C1EB018881823008F433C194309E
:1001100069F4843009F02FC111969C91119789815F
:10012000981709F428C1A0E6B0E025C1843009F48D
:1001300021C18230A9F4923009F01DC19A01AD01AC
:1001400088E0EA010990AE01E90109929E0181501F
:10015000C1F7E201898111969C918923818308C1AD
:10016000923009F407C112962D903C901397EB0141
:100170008A819B811496AD90BD90CD90DC901797AD
:10018000EC80FD800E811F819101281B390BB90184
:1001900037FF04C066277727621B730B6032710537
:1001A0000CF061C0121613066CF537014801062EDB
:1001B00004C096948794779467940A94D2F721E0C8
:1001C00030E040E050E004C0220F331F441F551FB1
:1001D0006A95D2F721503040404050402E213F21B7
:1001E00040235123211531054105510521F021E01E
:1001F00030E040E050E079018A01E628F72808293C
:1002000019293CC0232BD1F1260E371E350146019A
:10021000062E04C096948794779467940A94D2F734
:1002200021E030E040E050E004C0220F331F441FC3
:10023000551F6A95D2F721503040404050402A2146
:100240003B214C215D21211531054105510521F04E
:1002500021E030E040E050E059016A01A628B728CB
:10026000C828D9280BC0821593052CF01C01AA249C
:10027000BB24650103C0EE24FF24870111969C91E5
:10028000D20111968C91981709F445C0992339F041
:10029000A80197012A193B094C095D0906C0A6016E
:1002A00095012E193F09400B510B57FD08C01182D3
:1002B0003382228224833583468357831DC081E0A5
:1002C00081833382228288279927DC01821B930B4A
:1002D000A40BB50B84839583A683B7830DC0220F2F
:1002E000331F441F551F24833583468357838281E0
:1002F000938101979383828324813581468157813D
:10030000DA01C9010197A109B1098F5F9F4FAF4F72
:10031000BF4328F30BC0918333822282EA0CFB1C7B
:100320000C1D1D1DE482F5820683178383E0808304
:10033000248135814681578157FF1AC0C901AA27F8
:1003400097FDA095BA2F81709070A070B0705695EF
:10035000479537952795822B932BA42BB52B848318
:100360009583A683B7838281938101969383828349
:10037000DF0101C0D201CD01CDB7DEB7E2E10C94BF
:10038000FE2CA0E2B0E0E7ECF1E00C94EE2C6983E7
:100390007A838B839C832D833E834F835887E9E048
:1003A000EE2EF12CEC0EFD1ECE010196B7010E943F
:1003B00046068E010F5E1F4FCE010596B8010E94C2
:1003C00046068A8991E089278A8BC701B801AE0168
:1003D000475E5F4F0E9475000E947105A096E6E09F
:1003E0000C940A2DA0E2B0E0E8EFF1E00C94EE2CC2
:1003F00069837A838B839C832D833E834F835887C5
:10040000F9E0EF2EF12CEC0EFD1ECE010196B701A6
:100410000E9446068E010F5E1F4FCE010596B80161
:100420000E944606C701B801AE01475E5F4F0E94B9
:1004300075000E947105A096E6E00C940A2DA0E2DA
:10044000B0E0E5E2F2E00C94E22C69837A838B83DE
:100450009C832D833E834F835887CE010196BE0136
:10046000675F7F4F0E944606CE010596BE016F5E14
:100470007F4F0E9446069985923088F089898230A4
:10048000C8F0943019F4823051F404C0843029F457
:10049000923081F480E690E0C6C0923049F420E0CA
:1004A0009A858A89981321E02A87CE010996BBC0D4
:1004B000823049F420E09A858A89981321E02A8BBA
:1004C000CE014196B0C02D843E844F8458886D88FB
:1004D0007E888F88988CEE24FF248701AA24BB2471
:1004E000650140E050E060E070E0E0E0F0E0C10174
:1004F00081709070892BE9F0E60CF71C081D191D1E
:100500009A01AB012A0D3B1D4C1D5D1D80E090E062
:10051000A0E0B0E0E614F7040805190520F481E036
:1005200090E0A0E0B0E0BA01A901480F591F6A1F8E
:100530007B1FAA0CBB1CCC1CDD1C97FE08C081E0F5
:1005400090E0A0E0B0E0A82AB92ACA2ADB2A3196B6
:10055000E032F10549F0660C771C881C991C569412
:10056000479437942794C3CFFA85EA892B893C892D
:100570008B859C85280F391F2E5F3F4F17C0CA01FE
:1005800081709070892B61F016950795F794E79428
:1005900080E090E0A0E0B0E8E82AF92A0A2B1B2BC3
:1005A00076956795579547952F5F3F4F77FDE7CF36
:1005B0000CC0440F551F661F771F17FD4160EE0CDE
:1005C000FF1C001F111F21503040403090E05907A0
:1005D00090E0690790E4790760F32B8F3C8FDB0193
:1005E000CA018F779070A070B07080349105A1051A
:1005F000B10561F447FD0AC0E114F10401051105DC
:1006000029F0405C5F4F6F4F7F4F40781A8EFE1786
:1006100011F081E08A8F4D8F5E8F6F8F78A383E01A
:10062000898FCE0149960E947105A096E2E10C9453
:10063000FE2CA8E1B0E0EFE1F3E00C94EA2C698332
:100640007A838B839C832D833E834F835887B9E0C5
:10065000EB2EF12CEC0EFD1ECE010196B7010E948F
:1006600046068E010F5E1F4FCE010596B8010E940F
:1006700046062985223008F47EC03989323010F4CC
:10068000B8017CC08A859A8989278A87243011F02D
:10069000223031F4231709F06EC060E670E06EC0BE
:1006A000343039F41D861E861F86188A1C861B86E8
:1006B00004C0323021F484E08987B7015FC02B8504
:1006C0003C858B899C89281B390B3C872B87ED84C3
:1006D000FE840F851889AD88BE88CF88D88CEA142F
:1006E000FB040C051D0540F4EE0CFF1C001F111F40
:1006F000215030403C872B8720E030E040E050E044
:1007000080E090E0A0E0B0E460E070E0EA14FB0478
:100710000C051D0540F0282B392B4A2B5B2BEA18C2
:10072000FB080C091D09B695A79597958795EE0CC2
:10073000FF1C001F111F6F5F7F4F6F31710531F775
:10074000DA01C9018F779070A070B0708034910584
:10075000A105B10561F427FD0AC0E114F10401050A
:10076000110529F0205C3F4F4F4F5F4F20782D87B8
:100770003E874F87588BBE01675F7F4FCB010E943A
:1007800071056896EAE00C94062DA8E1B0E0EBEC68
:10079000F3E00C94EE2C69837A838B839C832D8306
:1007A0003E834F83588789E0E82EF12CEC0EFD1E26
:1007B000CE010196B7010E9446068E010F5E1F4FC3
:1007C000CE010596B8010E9446068985823040F028
:1007D0008989823028F0C701B8010E94BE0601C095
:1007E0008FEF6896E6E00C940A2DA8E1B0E0EBEFFD
:1007F000F3E00C94EE2C69837A838B839C832D83A6
:100800003E834F83588789E0E82EF12CEC0EFD1EC5
:10081000CE010196B7010E9446068E010F5E1F4F62
:10082000CE010596B8010E9446068985823040F0C7
:100830008989823028F0C701B8010E94BE0601C034
:100840008FEF6896E6E00C940A2DA8E1B0E0EBE2A9
:10085000F4E00C94EE2C69837A838B839C832D8344
:100860003E834F83588789E0E82EF12CEC0EFD1E65
:10087000CE010196B7010E9446068E010F5E1F4F02
:10088000CE010596B8010E9446068985823040F067
:100890008989823028F0C701B8010E94BE0601C0D4
:1008A00081E06896E6E00C940A2DACE0B0E0EBE560
:1008B000F4E00C94F22C69837A838B839C83CE01C1
:1008C0000196BE016B5F7F4F0E9446068D8182308C
:1008D00061F1823050F1843021F48E81882351F10E
:1008E0002EC02F81388537FD20C06E812F31310514
:1008F0001CF06623F9F023C08EE190E0821B930B7D
:1009000029853A854B855C8504C056954795379572
:1009100027958A95D2F76623B1F05095409530958A
:1009200021953F4F4F4F5F4F0EC020E030E040E039
:1009300050E009C02FEF3FEF4FEF5FE704C020E02A
:1009400030E040E050E8B901CA012C96E2E00C9496
:100950000E2DA8E0B0E0EFEAF4E00C94EA2C7B0165
:100960008C01611571058105910519F482E0898377
:1009700060C083E089838EE1C82ED12CDC82CB82DB
:10098000ED82FE820F831887C801B7010E942205FD
:10099000FC013197F7FF3BC0222733272E1B3F0B6B
:1009A00057016801022E04C0D694C794B794A79447
:1009B0000A94D2F740E050E060E070E081E090E01F
:1009C000A0E0B0E004C0880F991FAA1FBB1F2A95A2
:1009D000D2F70197A109B1098E219F21A023B1234C
:1009E0000097A105B10521F041E050E060E070E022
:1009F0004A295B296C297D294D835E836F83788723
:100A00008EE190E08E1B9F0B9C838B8312C03097EE
:100A100081F00E2E04C0EE0CFF1C001F111F0A9463
:100A2000D2F7ED82FE820F831887CE1ADF0ADC82AE
:100A3000CB821A82CE0101960E9471052896EAE0C7
:100A40000C94062DEF92FF920F931F937B018C0164
:100A500080E0E81680E0F80681E0080780E01807EB
:100A600088F48FEFE816F1040105110531F028F044
:100A700088E090E0A0E0B0E017C080E090E0A0E067
:100A8000B0E012C080E0E81680E0F80680E00807D9
:100A900081E0180728F088E190E0A0E0B0E004C011
:100AA00080E190E0A0E0B0E020E230E040E050E003
:100AB000281B390B4A0B5B0B04C016950795F7945E
:100AC000E7948A95D2F7F701E859FF4F8081281BF8
:100AD000310941095109C9011F910F91FF90EF9010
:100AE0000895DF92EF92FF920F931F93FC01E48031
:100AF000F58006811781D1808081823048F480E0C2
:100B000090E0A0E1B0E0E82AF92A0A2B1B2BA5C04F
:100B1000843009F49FC0823021F4EE24FF24870141
:100B200005C0E114F1040105110519F4E0E0F0E05D
:100B300096C0628173819FEF623879070CF05BC0C9
:100B400022E83FEF261B370B2A3131052CF020E03D
:100B500030E040E050E02AC0B801A701022E04C0F6
:100B600076956795579547950A94D2F781E090E07E
:100B7000A0E0B0E004C0880F991FAA1FBB1F2A95F0
:100B8000D2F70197A109B1098E219F21A023B1239A
:100B90000097A105B10521F081E090E0A0E0B0E070
:100BA0009A01AB01282B392B4A2B5B2BDA01C901A7
:100BB0008F779070A070B07080349105A105B10559
:100BC00039F427FF09C0205C3F4F4F4F5F4F04C0EF
:100BD000215C3F4F4F4F5F4FE0E0F0E02030A0E05E
:100BE0003A07A0E04A07A0E45A0710F0E1E0F0E07D
:100BF00079018A0127C06038710564F5FB01E1586D
:100C0000FF4FD801C7018F779070A070B07080340B
:100C10009105A105B10539F4E7FE0DC080E490E02F
:100C2000A0E0B0E004C08FE390E0A0E0B0E0E80E08
:100C3000F91E0A1F1B1F17FF05C016950795F7948D
:100C4000E794319687E016950795F794E7948A958F
:100C5000D1F705C0EE24FF248701EFEFF0E06E2FFF
:100C6000679566276795902F9F77D794DD24D79453
:100C70008E2F8695492F462B582F5D29B701CA0123
:100C80001F910F91FF90EF90DF900895FC01DB0121
:100C9000408151812281622F6F7770E0221F2227CD
:100CA000221F9381892F880F822B282F30E0991FD4
:100CB0009927991F11969C93119721153105A9F534
:100CC000411551056105710511F482E037C082E8D4
:100CD0009FEF13969C938E9312979A01AB0167E056
:100CE000220F331F441F551F6A95D1F783E08C9361
:100CF0000DC0220F331F441F551F12968D919C91DA
:100D00001397019713969C938E931297203080E04F
:100D1000380780E0480780E4580758F314962D936D
:100D20003D934D935C93179708952F3F310579F4C8
:100D3000411551056105710519F484E08C930895FE
:100D400064FF03C081E08C9312C01C9210C02F5727
:100D5000304013963C932E93129783E08C9387E058
:100D6000440F551F661F771F8A95D1F7706414963C
:100D70004D935D936D937C93179708951F93DC01BA
:100D8000FB019C91923008F447C08081823008F4C6
:100D900043C0943051F411961C91843099F58181AF
:100DA000682F70E0611B71093FC0843021F09230E0
:100DB00031F48230B9F18181882389F12DC01196F7
:100DC0001C9111978230F1F081811817D9F4129695
:100DD0002D913C911397828193818217930794F010
:100DE00028173907BCF014968D919D910D90BC91F8
:100DF000A02D2481358146815781281739074A075C
:100E00005B0718F4112341F00AC082179307A40767
:100E1000B50740F4112319F061E070E005C06FEFF1
:100E20007FEF02C060E070E0CB011F9108951F9238
:100E30000F920FB60F9211242F933F934F935F930E
:100E40006F937F938F939F93AF93BF93EF93FF9392
:100E5000DF93CF93CDB7DEB7AFE5B0E0EFE5F0E0DD
:100E600080818F778C93E0918201F09183010995C5
:100E7000E4E2F0E0828180618283CF91DF91FF9193
:100E8000EF91BF91AF919F918F917F916F915F9102
:100E90004F913F912F910F900FBE0F901F9018957B
:100EA000DF93CF9300D0CDB7DEB79A838983A4E2D6
:100EB000B0E0E4E2F0E08381282F2F73E981FA812A
:100EC0008081882F90E000249695879507949695C9
:100ED00087950794982F802D822B13968C93A4E2EC
:100EE000B0E0E4E2F0E08281982F987FE981FA8116
:100EF0008181892B12968C93A4E2B0E0E4E2F0E0C9
:100F00008281806812968C931297E981FA8183819D
:100F10008130A1F4A4E2B0E0E981FA81838181709B
:100F20008170982F9295990F907E13968C911397BC
:100F30008F7D892B13968C93139718C0E981FA81C2
:100F40008381882399F4A4E2B0E0E981FA81838166
:100F500081708170982F9295990F907E13968C9145
:100F600013978F7D892B13968C931397E981FA81C0
:100F700084818823F9F4E4E2F0E082818F7D82832A
:100F8000E4E2F0E0828180628283A0E5B0E0E0E507
:100F9000F0E08081282FE981FA818581882F90E017
:100FA000880F991F82959295907F9827807F982728
:100FB000822B8C930F900F90CF91DF910895DF9348
:100FC000CF9300D00F92CDB7DEB78983A4E2B0E013
:100FD000E4E2F0E08381982F907E8981892B13963B
:100FE0008C93A4E2B0E0E4E2F0E0828180641296A7
:100FF0008C931297E4E2F0E082818071882391F46F
:10100000A4E2B0E0E4E2F0E08281806112968C9389
:101010001297E4E2F0E0808191819B838A838A8148
:101020009B8100C00F900F900F90CF91DF9108959A
:10103000DF93CF9300D00F92CDB7DEB789837B8348
:101040006A83A4E2B0E0E4E2F0E08381982F907E2E
:101050008981892B13968C93AFE5B0E0EFE5F0E042
:10106000808180688C93A4E2B0E0E4E2F0E08281C9
:10107000886012968C93A4E2B0E0E4E2F0E0828112
:10108000806412968C9312978A819B81909383013E
:10109000809382010F900F900F90CF91DF91089570
:1010A000DF93CF9300D000D000D0CDB7DEB79A83C6
:1010B00089836B834C838B81282F30E03E832D8383
:1010C0008D819E818330910509F451C02D813E812F
:1010D000243031057CF48D819E818130910571F140
:1010E0002D813E8122303105ACF58D819E810097A6
:1010F000D1F081C02D813E812530310509F452C0E7
:101100008D819E81853091050CF43FC02D813E81FB
:101110002630310509F454C08D819E8187309105B8
:1011200009F45DC068C08C818170E981FA81982FD3
:10113000917081818E7F892B81835DC08C818170CC
:10114000E981FA818170982F990F81818D7F892B98
:10115000818351C08C818170E981FA818170982FDF
:10116000990F990F81818B7F892B818344C08C815A
:101170008170E981FA818170982F990F990F990FE9
:101180008181877F892B818336C08C818170E98141
:10119000FA818170982F9295907F81818F7E892B23
:1011A000818329C08C818170E981FA818170982FB7
:1011B0009295990F907E81818F7D892B81831BC0B1
:1011C0008C818170E981FA818170982F9295990FB5
:1011D000990F907C81818F7B892B81830CC08C81BE
:1011E0008170E981FA81982F979599279795818148
:1011F0008F77892B818326960FB6F894DEBF0FBEBA
:10120000CDBFCF91DF910895DF93CF9300D000D071
:1012100000D0CDB7DEB79A8389836B834C838B81F3
:10122000282F30E03E832D838D819E818330910570
:1012300009F451C02D813E81243031057CF48D812B
:101240009E818130910571F12D813E8122303105E1
:10125000ACF58D819E810097D1F081C02D813E81BA
:101260002530310509F452C08D819E81853091056C
:101270000CF43FC02D813E812630310509F454C065
:101280008D819E818730910509F45DC068C08C8195
:101290008170E981FA81982F917082818E7F892BEC
:1012A00082835DC08C818170E981FA818170982F81
:1012B000990F82818D7F892B828351C08C818170AF
:1012C000E981FA818170982F990F990F82818B7F24
:1012D000892B828344C08C818170E981FA8181707D
:1012E000982F990F990F990F8281877F892B82837D
:1012F00036C08C818170E981FA818170982F929536
:10130000907F82818F7E892B828329C08C8181701E
:10131000E981FA818170982F9295990F907E828150
:101320008F7D892B82831BC08C818170E981FA813A
:101330008170982F9295990F990F907C82818F7B65
:10134000892B82830CC08C818170E981FA81982F6E
:1013500097959927979582818F77892B82832696F7
:101360000FB6F894DEBF0FBECDBFCF91DF910895C9
:10137000DF93CF9300D000D000D0CDB7DEB79B83F2
:101380008A836C8319828C81282F30E03E832D83E1
:101390008D819E818330910509F43EC02D813E816F
:1013A000243031057CF48D819E818130910529F1B5
:1013B0002D813E81223031053CF58D819E81009743
:1013C000B1F055C02D813E8125303105B1F18D81BF
:1013D0009E81853091054CF12D813E81263031056D
:1013E000A9F18D819E8187309105D1F140C0EA81BC
:1013F000FB818081817089833AC0EA81FB81808191
:1014000086958170898333C0EA81FB8180818695CE
:101410008695817089832BC0EA81FB8180818695C6
:10142000869586958170898322C0EA81FB818081BF
:1014300082958F70817089831AC0EA81FB818081D7
:101440008295869587708170898311C0EA81FB81BE
:10145000808182958695869583708170898307C087
:10146000EA81FB818081881F8827881F8983898181
:1014700026960FB6F894DEBF0FBECDBFCF91DF9199
:101480000895DF93CF9300D00F92CDB7DEB79A8344
:1014900089836B83E981FA818B8181830F900F901F
:1014A0000F90CF91DF910895DF93CF9300D00F92EB
:1014B000CDB7DEB79A8389836B83E981FA818B810B
:1014C00082830F900F900F90CF91DF910895DF935B
:1014D000CF9300D0CDB7DEB79A838983E981FA81B3
:1014E00080810F900F90CF91DF910895DF93CF937C
:1014F00000D000D0CDB7DEB79A8389830E94180C44
:10150000A4E5B0E0E4E5F0E08781482FE981FA81C5
:101510008081282F30E081E090E002C0880F991F81
:101520002A95E2F7842B17968C931797E981FA8115
:101530008081282F30E03C832B838B819C818630F7
:10154000910561F02B813C812730310519F18B81A8
:101550009C818530910509F441C066C0A4E5B0E0E6
:10156000E4E5F0E0818111968C93A4E5B0E0E4E538
:10157000F0E09181E981FA818181892B11968C9328
:101580001197E981FA8182819381909385018093FB
:1015900084014AC0A4E5B0E0E4E5F0E08181817116
:1015A00011968C93A4E5B0E0E4E5F0E08181282F6A
:1015B000E981FA818181882F90E0880F991F880F37
:1015C000991F822B11968C931197E981FA81828160
:1015D0009381909387018093860126C0A4E5B0E0B3
:1015E000E4E5F0E0808181718C93A4E5B0E0E4E56E
:1015F000F0E08081282FE981FA818181882F90E0B5
:101600000297002496958795079496958795079459
:10161000982F802D822B8C93E981FA81828193818E
:1016200090938901809388010F900F900F900F90F5
:10163000CF91DF910895DF93CF9300D000D0CDB745
:10164000DEB79A838983E981FA818081282F30E08F
:101650003C832B838B819C818630910559F02B81B3
:101660003C8127303105F9F08B819C8185309105D3
:1016700099F14AC0A4E5B0E0E4E5F0E08781482FA5
:10168000E981FA818081282F30E081E090E0022E0C
:1016900002C0880F991F0A94E2F780958423179659
:1016A0008C93179731C0A4E5B0E0E4E5F0E08781C2
:1016B000482FE981FA818081282F30E081E090E095
:1016C000022E02C0880F991F0A94E2F780958423A6
:1016D00017968C93179718C0A4E5B0E0E4E5F0E006
:1016E0008781482FE981FA818081282F30E081E0CD
:1016F00090E0022E02C0880F991F0A94E2F78095AD
:10170000842317968C9317970F900F900F900F903C
:10171000CF91DF9108951F920F920FB60F9211246F
:101720002F933F934F935F936F937F938F939F93E9
:10173000AF93BF93EF93FF93DF93CF93CDB7DEB714
:101740000E94260CE0918401F09185010995CF91CA
:10175000DF91FF91EF91BF91AF919F918F917F9119
:101760006F915F914F913F912F910F900FBE0F900E
:101770001F9018951F920F920FB60F9211242F935E
:101780003F934F935F936F937F938F939F93AF9309
:10179000BF93EF93FF93DF93CF93CDB7DEB70E9454
:1017A000260CE0918601F09187010995CF91DF9198
:1017B000FF91EF91BF91AF919F918F917F916F9129
:1017C0005F914F913F912F910F900FBE0F901F90FF
:1017D00018951F920F920FB60F9211242F933F93DB
:1017E0004F935F936F937F938F939F93AF93BF9329
:1017F000EF93FF93DF93CF93CDB7DEB70E94260C14
:10180000E0918801F09189010995CF91DF91FF91D5
:10181000EF91BF91AF919F918F917F916F915F9168
:101820004F913F912F910F900FBE0F901F901895E1
:10183000DF93CF93CDB7DEB7AFE5B0E0EFE5F0E0F3
:10184000808180688C93CF91DF910895DF93CF934F
:10185000CDB7DEB7AFE5B0E0EFE5F0E080818F77A0
:101860008C93CF91DF9108951F920F920FB60F9234
:1018700011242F933F934F935F936F937F938F9395
:101880009F93AF93BF93EF93FF93DF93CF93CDB726
:10189000DEB7AFE5B0E0EFE5F0E080818F778C93C5
:1018A000A2E5B0E0E2E5F0E08681816016968C93D7
:1018B00016978091780190917901009729F0E09135
:1018C0007801F09179010995CF91DF91FF91EF9126
:1018D000BF91AF919F918F917F916F915F914F9148
:1018E0003F912F910F900FBE0F901F9018951F9250
:1018F0000F920FB60F9211242F933F934F935F9344
:101900006F937F938F939F93AF93BF93EF93FF93C7
:10191000DF93CF93CDB7DEB7AFE5B0E0EFE5F0E012
:1019200080818F778C93A2E5B0E0E2E5F0E08681DC
:10193000826016968C931697809178019091790128
:10194000009729F0E0917801F09179010995CF9104
:10195000DF91FF91EF91BF91AF919F918F917F9117
:101960006F915F914F913F912F910F900FBE0F900C
:101970001F9018951F920F920FB60F9211242F935C
:101980003F934F935F936F937F938F939F93AF9307
:10199000BF93EF93FF93DF93CF93CDB7DEB7AFE560
:1019A000B0E0EFE5F0E080818F778C93A2E5B0E0C6
:1019B000E2E5F0E08681846016968C93169780911C
:1019C0007A0190917B01009729F0E0917A01F091E2
:1019D0007B010995CF91DF91FF91EF91BF91AF917D
:1019E0009F918F917F916F915F914F913F912F9137
:1019F0000F900FBE0F901F9018951F920F920FB669
:101A00000F9211242F933F934F935F936F937F9384
:101A10008F939F93AF93BF93EF93FF93DF93CF93F6
:101A2000CDB7DEB7AFE5B0E0EFE5F0E080818F77CE
:101A30008C93A2E5B0E0E2E5F0E086818061169645
:101A40008C93169780917A0190917B01009729F0F1
:101A5000E0917A01F0917B010995CF91DF91FF919F
:101A6000EF91BF91AF919F918F917F916F915F9116
:101A70004F913F912F910F900FBE0F901F9018958F
:101A80001F920F920FB60F9211242F933F934F93F3
:101A90005F936F937F938F939F93AF93BF93EF93D6
:101AA000FF93DF93CF93CDB7DEB780917C01909108
:101AB0007D01009729F0E0917C01F0917D0109956D
:101AC000CF91DF91FF91EF91BF91AF919F918F9156
:101AD0007F916F915F914F913F912F910F900FBE2A
:101AE0000F901F901895DF93CF9300D000D000D0B7
:101AF000CDB7DEB79A838983E981FA81878188230C
:101B000009F0F5C0A2E5B0E0E2E5F0E09181E981FD
:101B1000FA818181892B11968C931197E981FA8141
:101B20008081282F30E03E832D838D819E818130FE
:101B3000910509F454C02D813E81223031052CF4E9
:101B40008D819E81009769F093C32D813E81223063
:101B50003105B9F08D819E818330910509F483C0F0
:101B600087C3A2E5B0E0E2E5F0E0818180681196EC
:101B70008C93A2E5B0E0E981FA81838194818C9312
:101B800077C3A2E5B0E0E2E5F0E0818180681196DC
:101B90008C93A2E5B0E0E2E5F0E0818188601196E7
:101BA0008C93A2E5B0E0E2E5F0E08181282FE981A5
:101BB000FA818281882F90E082959295907F982774
:101BC000807F9827822B11968C93A2E5B0E0E98163
:101BD000FA81858196811A968C931A9749C3A2E55A
:101BE000B0E0E2E5F0E08181806411968C93A2E59B
:101BF000B0E0E2E5F0E08181877F11968C93A2E569
:101C0000B0E0E2E5F0E08181282FE981FA8182816C
:101C1000882F90E082959295907F9827807F9827D3
:101C2000822B11968C931197E981FA8182818230FF
:101C300051F4A2E5B0E0E2E5F0E081818062119626
:101C40008C93119715C3E981FA818281833009F061
:101C50000FC3A2E5B0E0E2E5F0E081818063119678
:101C60008C93119705C3A2E5B0E0E2E5F0E0818135
:101C7000886011968C93A2E5B0E0E2E5F0E0818106
:101C8000806411968C93A2E5B0E0E2E5F0E08181FA
:101C9000282FE981FA818281882F90E082959295A0
:101CA000907F9827807F9827822B11968C9311978D
:101CB000E981FA818281823051F4A2E5B0E0E2E567
:101CC000F0E08181806211968C931197D1C2E981F5
:101CD000FA818281833009F0CBC2A2E5B0E0E2E56F
:101CE000F0E08181806311968C931197C1C2E981E4
:101CF000FA818781813009F0BBC2E6E4F0E0118609
:101D0000A6E4B0E0E6E4F0E09085E981FA81818123
:101D1000892B18968C931897E981FA818081282F56
:101D200030E03C832B838B819C818730910509F4C3
:101D30005BC12B813C81283031054CF58B819C8126
:101D40008330910509F4BEC02B813C8124303105DC
:101D50008CF48B819C818130910509F46FC02B81BB
:101D60003C81223031050CF08BC08B819C81009727
:101D7000C9F149C22B813C812530310509F4F0C0FD
:101D80008B819C81863091050CF00CC1BDC02B81EC
:101D90003C812B30310509F4AFC18B819C818C30A3
:101DA00091056CF42B813C812930310509F460C127
:101DB0008B819C818A3091050CF07CC137C12B81CD
:101DC0003C812E30310509F4DBC18B819C818F3041
:101DD000910509F4F7C12B813C812C30310509F4C0
:101DE000ADC111C2A6E4B0E0E981FA81838194819A
:101DF00017969C938E931697A6E4B0E0E6E4F0E085
:101E000081858E7F19968C93A6E4B0E0E6E4F0E03D
:101E100081858D7F19968C93A6E4B0E0E6E4F0E02E
:101E20008085877F18968C93A6E4B0E0E6E4F0E026
:101E300080858F7E18968C931897E5C1A6E4B0E054
:101E4000E6E4F0E08185816019968C93A6E4B0E029
:101E5000E6E4F0E081858D7F19968C93A6E4B0E0EE
:101E6000E6E4F0E08085877F18968C93A6E4B0E0E6
:101E7000E6E4F0E080858F7E18968C931897C3C1B6
:101E8000A6E4B0E0E6E4F0E081858E7F19968C93BD
:101E9000A6E4B0E0E6E4F0E08185826019968C93D8
:101EA000A6E4B0E0E6E4F0E08085877F18968C93A6
:101EB000A6E4B0E0E6E4F0E080858F7E18968C938F
:101EC0001897A1C1A6E4B0E0E6E4F0E08185816066
:101ED00019968C93A6E4B0E0E6E4F0E08185826098
:101EE00019968C93A6E4B0E0E6E4F0E08085877F65
:101EF00018968C93A6E4B0E0E6E4F0E080858F7E4F
:101F000018968C9318977FC1A6E4B0E0E981FA8116
:101F10008581968115969C938E931497A6E4B0E0E4
:101F2000E6E4F0E081858E7F19968C93A6E4B0E01C
:101F3000E6E4F0E081858D7F19968C93A6E4B0E00D
:101F4000E6E4F0E08085886018968C93A6E4B0E023
:101F5000E6E4F0E080858F7E18968C93189753C145
:101F6000A6E4B0E0E6E4F0E08185816019968C9308
:101F7000A6E4B0E0E6E4F0E081858D7F19968C93CD
:101F8000A6E4B0E0E6E4F0E08085886018968C93E3
:101F9000A6E4B0E0E6E4F0E080858F7E18968C93AE
:101FA000189731C1A6E4B0E0E6E4F0E081858E7FC9
:101FB00019968C93A6E4B0E0E6E4F0E081858260B7
:101FC00019968C93A6E4B0E0E6E4F0E080858860A2
:101FD00018968C93A6E4B0E0E6E4F0E080858F7E6E
:101FE00018968C9318970FC1A6E4B0E0E6E4F0E0F1
:101FF0008185816019968C93A6E4B0E0E6E4F0E078
:102000008185826019968C93A6E4B0E0E6E4F0E066
:102010008085886018968C93A6E4B0E0E6E4F0E052
:1020200080858F7E18968C931897EDC0A6E4B0E05B
:10203000E6E4F0E081858E7F19968C93A6E4B0E00B
:10204000E6E4F0E081858D7F19968C93A6E4B0E0FC
:10205000E6E4F0E08085877F18968C93A6E4B0E0F4
:10206000E6E4F0E08085806118968C931897CBC0E9
:10207000A6E4B0E0E6E4F0E08185816019968C93F7
:10208000A6E4B0E0E6E4F0E081858D7F19968C93BC
:10209000A6E4B0E0E6E4F0E08085877F18968C93B4
:1020A000A6E4B0E0E6E4F0E08085806118968C93C9
:1020B0001897A9C0A6E4B0E0E6E4F0E081858E7F41
:1020C00019968C93A6E4B0E0E6E4F0E081858260A6
:1020D00019968C93A6E4B0E0E6E4F0E08085877F73
:1020E00018968C93A6E4B0E0E6E4F0E08085806189
:1020F00018968C93189787C0A6E4B0E0E6E4F0E069
:102100008185816019968C93A6E4B0E0E6E4F0E066
:102110008185826019968C93A6E4B0E0E6E4F0E055
:102120008085877F18968C93A6E4B0E0E6E4F0E023
:102130008085806118968C93189765C0A6E4B0E0FE
:10214000E6E4F0E081858E7F19968C93A6E4B0E0FA
:10215000E6E4F0E081858D7F19968C93A6E4B0E0EB
:10216000E6E4F0E08085886018968C93A6E4B0E001
:10217000E6E4F0E08085806118968C93189743C060
:10218000A6E4B0E0E6E4F0E081858E7F19968C93BA
:10219000A6E4B0E0E6E4F0E08185826019968C93D5
:1021A000A6E4B0E0E6E4F0E08085886018968C93C1
:1021B000A6E4B0E0E6E4F0E08085806118968C93B8
:1021C000189721C0A6E4B0E0E6E4F0E081858160E4
:1021D00019968C93A6E4B0E0E6E4F0E08185826095
:1021E00019968C93A6E4B0E0E6E4F0E08085886080
:1021F00018968C93A6E4B0E0E6E4F0E08085806178
:1022000018968C931897E981FA8180858130D1F4F2
:10221000A6E4B0E0E6E4F0E08085282F2F73E981A2
:10222000FA818281882F90E0002496958795079403
:10223000969587950794982F802D822B18968C93CE
:10224000189716C0A6E4B0E0E6E4F0E08185282FF8
:102250002F7CE981FA818281882F90E08295929586
:10226000907F9827807F9827822B19968C931997B7
:1022700026960FB6F894DEBF0FBECDBFCF91DF918B
:102280000895DF93CF9300D0CDB7DEB79A838983CB
:10229000A2E5B0E0E2E5F0E09181E981FA81818197
:1022A000892B11968C9311970F900F90CF91DF91FE
:1022B0000895DF93CF93CDB7DEB7A2E5B0E0E2E5B6
:1022C000F0E08181887F11968C931197CF91DF91F7
:1022D0000895DF93CF93CDB7DEB728970FB6F89464
:1022E000DEBF0FBECDBF9A8389837C836B83E98178
:1022F000FA818781882309F049C0E981FA818081C8
:10230000282F30E038872F838F819885009731F010
:102310002F81388522303105E9F086C0A2E5B0E092
:10232000E2E5F0E08781816017968C93A2E5B0E04A
:10233000E2E5F0E08681816016968C93AFE5B0E02F
:10234000EFE5F0E0808180688C938B819C810E9416
:102350005D136AC0A2E5B0E0E2E5F0E0878182604B
:1023600017968C93A2E5B0E0E2E5F0E0868182600A
:1023700016968C93AFE5B0E0EFE5F0E080818068E1
:102380008C938B819C810E945D134EC0E981FA8100
:102390008781813009F048C0E981FA818081282F46
:1023A00030E03E832D838D819E81009731F02D8119
:1023B0003E8124303105E9F037C0A2E5B0E0E2E526
:1023C000F0E08781846017968C93A2E5B0E0E2E5A7
:1023D000F0E08681846016968C93AFE5B0E0EFE57F
:1023E000F0E0808180688C938B819C810E944B13EC
:1023F0001BC0A2E5B0E0E2E5F0E0878180611796BE
:102400008C93A2E5B0E0E2E5F0E08681806116966B
:102410008C93AFE5B0E0EFE5F0E0808180688C93CD
:102420008B819C810E944B1328960FB6F894DEBFD7
:102430000FBECDBFCF91DF910895DF93CF9300D032
:1024400000D0CDB7DEB79A8389837C836B83AFE5F9
:10245000B0E0EFE5F0E080818F778C930F900F90E4
:102460000F900F90CF91DF910895DF93CF93CDB769
:10247000DEB72A970FB6F894DEBF0FBECDBF8983B3
:102480006A838A81823071F582E590E09A87898734
:102490008981482F50E0CA019C01220F331FC901D6
:1024A0009695982F882797958795821B930B840F75
:1024B000951F24E630E0B9010E94CF2CCB01019793
:1024C00098878F83EF81F885FF233CF48F8198856F
:1024D000909581959F4F98878F838F81E985FA85A5
:1024E000828728C08A81833029F582E590E09E8327
:1024F0008D838981882F90E0982F882724E630E00B
:10250000B9010E94CF2CCB019C018FEF90E0821B80
:10251000930B9C838B83EB81FC81FF233CF48B81A9
:102520009C81909581959F4F9C838B838B81ED81BE
:10253000FE8182872A960FB6F894DEBF0FBECDBF0C
:10254000CF91DF910895DF93CF930F92CDB7DEB790
:102550008983E2E5F0E08981482F50E0CA019C01BF
:10256000220F331FC9019695982F88279795879535
:10257000821B930B840F951F24E630E0B9010E9463
:10258000CF2CCB0182870F90CF91DF910895DF93FD
:10259000CF9300D000D000D0CDB7DEB79C838B8323
:1025A0007E836D832B813C8188EE93E0289FA00180
:1025B000299F500D389F500D1124ED81FE8181819E
:1025C000282F30E0CA01B9010E94BB2CCB019A83AD
:1025D0008983E2E5F0E0898181508287E2E5F0E0DD
:1025E0001082E2E5F0E08681882F90E082709070A2
:1025F0000097B9F3A2E5B0E0E2E5F0E08681826001
:1026000016968C93169726960FB6F894DEBF0FBEDB
:10261000CDBFCF91DF910895DF93CF9300D0CDB799
:10262000DEB79A838983AEE4B0E0EEE4F0E0808127
:10263000282F2F7BE981FA818081882F90E0002468
:10264000969587950794969587950794982F802D52
:10265000822B8C93E6E4F0E017821682E6E4F0E049
:1026600011821082A2E5B0E0E2E5F0E087818062AD
:1026700017968C9317970F900F90CF91DF91089535
:10268000DF93CF93CDB7DEB7E6E4F0E080819181B0
:10269000CF91DF910895DF93CF9300D0CDB7DEB710
:1026A0009A83898389819A8190937B0180937A01AF
:1026B0000F900F90CF91DF910895DF93CF9300D0CB
:1026C000CDB7DEB79A83898389819A819093790106
:1026D000809378010F900F90CF91DF910895DF9351
:1026E000CF9300D0CDB7DEB79A83898389819A8151
:1026F00090937D0180937C010F900F90CF91DF919B
:102700000895DF93CF9300D00F92CDB7DEB79A83B1
:1027100089836B8389819A816B8140E00E94500894
:102720000F900F900F90CF91DF910895DF93CF938B
:10273000CDB7DEB762970FB6F894DEBF0FBECDBF40
:10274000988B8F87698B8F859889698940E00E9473
:1027500050088F85988969890E94B809882309F0F3
:1027600083C080E090E0A8E4B2E48B879C87AD87CB
:10277000BE876B857C858D859E8520E030E04AE7AD
:1027800055E40E941F02DC01CB018F839887A98743
:10279000BA876F81788589859A8520E030E040E8A6
:1027A0005FE30E94250488232CF481E090E09E835F
:1027B0008D833FC06F81788589859A8520E03FEFC2
:1027C0004FE757E40E94C50318164CF56B857C85CE
:1027D0008D859E8520E030E040E251E40E941F029A
:1027E000DC01CB01BC01CD010E944900DC01CB0121
:1027F0009E838D830FC080E991E09C838B838B81C6
:102800009C810197F1F79C838B838D819E81019739
:102810009E838D838D819E81009769F714C06F819F
:10282000788589859A850E944900DC01CB019E83C9
:102830008D838D819E819A83898389819A81019775
:10284000F1F79A8389838F85988969890E94B809ED
:10285000882361F480917E01882341F481E0809394
:102860007E0181E08A8B03C010927E011A8A8A89D8
:1028700062960FB6F894DEBF0FBECDBFCF91DF9149
:102880000895DF93CF93CDB7DEB786E390E067E09E
:1028900041E00E945008CF91DF910895DF93CF93DC
:1028A00000D00F92CDB7DEB78A836B838B81882FE0
:1028B00090E0A0E0B0E0BC01CD010E94A904DC01E1
:1028C000CB01BC01CD0120E030E048EC52E40E9495
:1028D0001903DC01CB01BC01CD0120E030E04FE762
:1028E00053E40E941F02DC01CB01BC01CD010E9418
:1028F0004900DC01CB0189830F900F900F90CF919D
:10290000DF910895DF93CF93CDB7DEB780E390E0FA
:1029100067E040E00E94500880E390E066E040E01D
:102920000E94500880E390E065E040E00E9450087B
:1029300080E390E063E040E00E94500883E390E091
:1029400062E041E00E94500883E390E063E041E0F0
:102950000E94500883E390E064E041E00E94500848
:1029600083E390E065E041E00E945008CF91DF9161
:102970000895DF93CF93CDB7DEB7AF970FB6F89436
:10298000DEBF0FBECDBF85E08B8B84E08C8B83E0F8
:102990008D8B82E08E8B87E08F8B86E0888F85E041
:1029A000898F83E08A8FCE014B969CA78BA7E8E6A0
:1029B000F1E0FEA7EDA7F0E1FFA7EDA5FEA50080E1
:1029C0008DA59EA501969EA78DA7EBA5FCA50082CF
:1029D0008BA59CA501969CA78BA79FA591509FA70F
:1029E000EFA5EE2351F71A8ACBC08A89282F30E051
:1029F000CE014396FC01E20FF31F208183E390E0B8
:102A0000622F40E00E940409198A33C08989282F67
:102A100030E0CE014796FC01E20FF31F208180E3F6
:102A200090E0622F0E9496138F878F858130F1F49A
:102A30008A89282F30E08989482F50E0220F331FE0
:102A4000220F331FCE010196820F931F840F951F13
:102A5000FC017A968081888B8889AF960FB6F894AE
:102A6000DEBF0FBECDBFCF91DF91089589898F5F03
:102A7000898B8989853050F28A89282F30E0CE01F0
:102A80004396FC01E20FF31F208183E390E0622F65
:102A900041E00E94040980E090E0A0E2B1E48B876D
:102AA0009C87AD87BE876B857C858D859E8520E064
:102AB00030E04AE755E40E941F02DC01CB018F831E
:102AC0009887A987BA876F81788589859A8520E05C
:102AD00030E040E85FE30E94250488232CF481E085
:102AE00090E09E838D833FC06F81788589859A852C
:102AF00020E03FEF4FE757E40E94C50318164CF55E
:102B00006B857C858D859E8520E030E040E251E438
:102B10000E941F02DC01CB01BC01CD010E944900D3
:102B2000DC01CB019E838D830FC080E991E09C8303
:102B30008B838B819C810197F1F79C838B838D81A3
:102B40009E8101979E838D838D819E81009769F779
:102B500014C06F81788589859A850E944900DC01BF
:102B6000CB019E838D838D819E819A838983898108
:102B70009A810197F1F79A8389838A898F5F8A8B7B
:102B80008A89853008F431CF2ECFDF93CF9300D0E0
:102B900000D000D0CDB7DEB79A8389836B834C8396
:102BA00089819A816C8141E00E9450088B81282F95
:102BB00030E03E832D838D819E81009761F02D81D1
:102BC0003E812130310569F489819A816C8141E02F
:102BD0000E94040906C089819A816C8140E00E94AC
:102BE000040926960FB6F894DEBF0FBECDBFCF9175
:102BF000DF910895DF93CF9300D000D000D0CDB700
:102C0000DEB782E00E94DF079E838D838D819E81E7
:102C1000CC01A0E0B0E0BC01CD010E94A904DC0120
:102C2000CB01BC01CD0120E030E048EC52E40E9431
:102C30001F02DC01CB01BC01CD0120E030E040E20D
:102C400051E40E941903DC01CB0189839A83AB8391
:102C5000BC8369817A818B819C810E944900DC015F
:102C6000CB0126960FB6F894DEBF0FBECDBFCF9135
:102C7000DF9108950F931F93DF93CF93CDB7DEB706
:102C8000C754D0400FB6F894DEBF0FBECDBFFE01D3
:102C9000E95BFF4F808389E390E062E040E00E94BF
:102CA0000409FE01ED5BFF4F80E090E0A0E2B1E49B
:102CB00080839183A283B3838E01015C1F4FFE0149
:102CC000ED5BFF4F608171818281938120E030E074
:102CD0004AE755E40E941F02DC01CB01F801808322
:102CE0009183A283B383FE01FF966081718182810B
:102CF000938120E030E040E85FE30E9425048823D0
:102D00002CF481E090E09EAF8DAF46C0FE01FF96AF
:102D1000608171818281938120E03FEF4FE757E42A
:102D20000E94C503181664F5FE01ED5BFF4F60813C
:102D300071818281938120E030E040E251E40E9481
:102D40001F02DC01CB01BC01CD010E944900DC0166
:102D5000CB019EAF8DAF0FC080E991E09CAF8BAFF0
:102D60008BAD9CAD0197F1F79CAF8BAF8DAD9EAD58
:102D700001979EAF8DAF8DAD9EAD009769F716C0E0
:102D8000FE01FF9660817181828193810E944900DA
:102D9000DC01CB019EAF8DAF8DAD9EAD9AAF89AFFB
:102DA00089AD9AAD0197F1F79AAF89AFFE01E95B62
:102DB000FF4F8081882F90E0807190709595879566
:102DC000959587959595879595958795282F86E371
:102DD00090E060E0422F0E940409FE01E95BFF4F92
:102DE0008081882F90E08072907095958795959559
:102DF0008795959587959595879595958795282F8E
:102E000086E390E061E0422F0E940409FE01E95B45
:102E1000FF4F8081882F90E080749070082E892F5A
:102E2000000C881F990B000C881F991F282F86E320
:102E300090E062E0422F0E940409FE01E95BFF4F2F
:102E40008081282F221F2227221F86E390E064E042
:102E5000422F0E94040989E390E062E041E00E9471
:102E6000040980E090E0A0E2B1E48DAB9EABAFAB93
:102E7000B8AF6DA97EA98FA998AD20E030E04AE7F0
:102E800055E40E941F02DC01CB0189AB9AABABABCE
:102E9000BCAB69A97AA98BA99CA920E030E040E8E5
:102EA0005FE30E94250488232CF481E090E098AB36
:102EB0008FA73FC069A97AA98BA99CA920E03FEF01
:102EC0004FE757E40E94C50318164CF56DA97EA97B
:102ED0008FA998AD20E030E040E251E40E941F024B
:102EE000DC01CB01BC01CD010E944900DC01CB011A
:102EF00098AB8FA70FC080E991E09EA78DA78DA505
:102F00009EA50197F1F79EA78DA78FA598A9019778
:102F100098AB8FA78FA598A9009769F714C069A9E6
:102F20007AA98BA99CA90E944900DC01CB0198AB2E
:102F30008FA78FA598A99CA78BA78BA59CA5019768
:102F4000F1F79CA78BA789E390E062E040E00E9444
:102F5000040980E090E0A0E2B1E48FA398A7A9A7BC
:102F6000BAA76FA178A589A59AA520E030E04AE725
:102F700055E40E941F02DC01CB018BA39CA3ADA3EF
:102F8000BEA36BA17CA18DA19EA120E030E040E812
:102F90005FE30E94250488232CF481E090E09AA34B
:102FA00089A33FC06BA17CA18DA19EA120E03FEF32
:102FB0004FE757E40E94C50318164CF56FA178A59A
:102FC00089A59AA520E030E040E251E40E941F026A
:102FD000DC01CB01BC01CD010E944900DC01CB0129
:102FE0009AA389A30FC080E991E098A38F8F8F8D5A
:102FF00098A10197F1F798A38F8F89A19AA10197C2
:103000009AA389A389A19AA1009769F714C06BA11B
:103010007CA18DA19EA10E944900DC01CB019AA355
:1030200089A389A19AA19E8F8D8F8D8D9E8D0197E9
:10303000F1F79E8F8D8FFE01E95BFF4F8081282F76
:10304000217086E390E060E0422F0E940409FE01B7
:10305000E95BFF4F8081882F90E08270907095959A
:103060008795282F86E390E061E0422F0E940409B3
:10307000FE01E95BFF4F8081882F90E084709070A3
:103080009595879595958795282F86E390E062E042
:10309000422F0E940409FE01E95BFF4F8081882FC7
:1030A00090E0887090709595879595958795959502
:1030B0008795282F86E390E064E0422F0E94040960
:1030C00089E390E062E041E00E94040980E090E042
:1030D000A0E2B1E4898F9A8FAB8FBC8F698D7A8D16
:1030E0008B8D9C8D20E030E04AE755E40E941F0262
:1030F000DC01CB018D8B9E8BAF8BB88F6D897E8968
:103100008F89988D20E030E040E85FE30E9425043D
:1031100088232CF481E090E09C8B8B8B3FC06D89E1
:103120007E898F89988D20E03FEF4FE757E40E941A
:10313000C50318164CF5698D7A8D8B8D9C8D20E01A
:1031400030E040E251E40E941F02DC01CB01BC01EF
:10315000CD010E944900DC01CB019C8B8B8B0FC001
:1031600080E991E09A8B898B89899A890197F1F797
:103170009A8B898B8B899C8901979C8B8B8B8B89F4
:103180009C89009769F714C06D897E898F89988D15
:103190000E944900DC01CB019C8B8B8B8B899C8925
:1031A000988B8F878F8598890197F1F7988B8F87F8
:1031B00089E390E062E040E00E94040980E090E052
:1031C000A8E4B2E48B879C87AD87BE876B857C853E
:1031D0008D859E8520E030E04AE755E40E941F027D
:1031E000DC01CB018F839887A987BA876F817885A7
:1031F00089859A8520E030E040E85FE30E9425045D
:1032000088232CF481E090E09E838D833FC06F8102
:10321000788589859A8520E03FEF4FE757E40E9443
:10322000C50318164CF56B857C858D859E8520E041
:1032300030E040E251E40E941F02DC01CB01BC01FE
:10324000CD010E944900DC01CB019E838D830FC01C
:1032500080E991E09C838B838B819C810197F1F7BE
:103260009C838B838D819E8101979E838D838D812D
:103270009E81009769F714C06F81788589859A854A
:103280000E944900DC01CB019E838D838D819E814C
:103290009A83898389819A810197F1F79A83898337
:1032A000C95BDF4F0FB6F894DEBF0FBECDBFCF9125
:1032B000DF911F910F910895DF93CF93CDB7DEB7C4
:1032C0006C970FB6F894DEBF0FBECDBF80E090E0E4
:1032D000A0EFB1E4898F9A8FAB8FBC8F698D7A8D07
:1032E0008B8D9C8D20E030E04AE755E40E941F0260
:1032F000DC01CB018D8B9E8BAF8BB88F6D897E8966
:103300008F89988D20E030E040E85FE30E9425043B
:1033100088232CF481E090E09C8B8B8B3FC06D89DF
:103320007E898F89988D20E03FEF4FE757E40E9418
:10333000C50318164CF5698D7A8D8B8D9C8D20E018
:1033400030E040E251E40E941F02DC01CB01BC01ED
:10335000CD010E944900DC01CB019C8B8B8B0FC0FF
:1033600080E991E09A8B898B89899A890197F1F795
:103370009A8B898B8B899C8901979C8B8B8B8B89F2
:103380009C89009769F714C06D897E898F89988D13
:103390000E944900DC01CB019C8B8B8B8B899C8923
:1033A000988B8F878F8598890197F1F7988B8F87F6
:1033B00089E390E063E041E00E94500889E390E0F7
:1033C00062E041E00E94500880E090E0A0EAB1E4B1
:1033D0008B879C87AD87BE876B857C858D859E8519
:1033E00020E030E04AE755E40E941F02DC01CB01F7
:1033F0008F839887A987BA876F81788589859A8511
:1034000020E030E040E85FE30E94250488232CF4AC
:1034100081E090E09E838D833FC06F8178858985B0
:103420009A8520E03FEF4FE757E40E94C503181646
:103430004CF56B857C858D859E8520E030E040E2F3
:1034400051E40E941F02DC01CB01BC01CD010E94AE
:103450004900DC01CB019E838D830FC080E991E0A0
:103460009C838B838B819C810197F1F79C838B8359
:103470008D819E8101979E838D838D819E81009792
:1034800069F714C06F81788589859A850E94490003
:10349000DC01CB019E838D838D819E819A838983FC
:1034A00089819A810197F1F79A83898386E390E075
:1034B00060E041E00E94500886E390E061E041E076
:1034C0000E94500886E390E062E041E00E945008CC
:1034D00086E390E064E041E00E94500883E30E94AC
:1034E000861A82E30E94861A88E20E94861A8CE07D
:1034F0000E94861A81E00E94861A6C960FB6F89494
:10350000DEBF0FBECDBFCF91DF910895DF93CF9384
:10351000CDB7DEB72F970FB6F894DEBF0FBECDBF85
:103520008F8789E390E063E040E00E94040980E037
:1035300090E0A0E8BFE38B879C87AD87BE876B8553
:103540007C858D859E8520E030E04AE755E40E9429
:103550001F02DC01CB018F839887A987BA876F810F
:10356000788589859A8520E030E040E85FE30E9415
:10357000250488232CF481E090E09E838D833FC056
:103580006F81788589859A8520E03FEF4FE757E482
:103590000E94C50318164CF56B857C858D859E852C
:1035A00020E030E040E251E40E941F02DC01CB0148
:1035B000BC01CD010E944900DC01CB019E838D83BB
:1035C0000FC080E991E09C838B838B819C81019764
:1035D000F1F79C838B838D819E8101979E838D83E0
:1035E0008D819E81009769F714C06F8178858985E8
:1035F0009A850E944900DC01CB019E838D838D81D9
:103600009E819A83898389819A810197F1F79A83B0
:1036100089838F850E943A162F960FB6F894DEBFE5
:103620000FBECDBFCF91DF910895DF93CF930F925F
:10363000CDB7DEB7898389E390E063E041E00E9483
:10364000040989810E943A160F90CF91DF91089565
:10365000DF93CF9300D0CDB7DEB79A8389830AC0BA
:10366000E981FA8180810E94151B89819A810196E6
:103670009A838983E981FA818081882F90E000977D
:1036800079F70F900F90CF91DF910895DF93CF934B
:10369000CDB7DEB762970FB6F894DEBF0FBECDBFD1
:1036A0009A8B898B89899A899E012F5F3F4FB90137
:1036B0004AE050E00E94192DCE0101960E94281B7D
:1036C00062960FB6F894DEBF0FBECDBFCF91DF91EB
:1036D0000895DF93CF9300D000D000D0CDB7DEB7F0
:1036E0008D836E8380E8898380EC8A8384E98B8371
:1036F00084ED8C838D81282F30E0CE010196FC0172
:10370000E20FF31F90818E81890F0E94861A269600
:103710000FB6F894DEBF0FBECDBFCF91DF910895F5
:10372000DF93CF93CDB7DEB781E00E94861ACF91A9
:10373000DF9108950F931F93DF93CF93CDB7DEB73B
:10374000C952D1400FB6F894DEBF0FBECDBFFE0107
:10375000E95DFE4F808386E390E060E041E00E94F7
:10376000500886E390E061E041E00E94500886E363
:1037700090E062E041E00E94500886E390E064E05F
:1037800041E00E94500886E390E060E040E00E9443
:10379000040986E390E061E040E00E94040986E3CA
:1037A00090E062E040E00E94040986E390E064E07B
:1037B00040E00E94040989E390E063E041E00E9458
:1037C000500889E390E062E041E00E94500886E3FF
:1037D00090E065E041E00E94500886E390E066E0FA
:1037E00041E00E945008FE01E95DFE4F8081282FD4
:1037F00030E0C85DDE4F39832883C852D140C85DB0
:10380000DE4F88819981C852D1408330910509F4F7
:10381000E3C6C85DDE4FE881F981C852D140E4308B
:10382000F105F4F4C85DDE4F28813981C852D140DA
:103830002130310509F46AC2C85DDE4F8881998163
:10384000C852D140823091050CF093C4C85DDE4F60
:10385000E881F981C852D140309729F10C94812A2E
:10386000C85DDE4F28813981C852D14025303105ED
:1038700011F40C945027C85DDE4F88819981C8529D
:10388000D1408530910514F40C941E25C85DDE4F9F
:10389000E881F981C852D140E630F10511F40C9469
:1038A00013290C94812A89E390E063E040E00E94B0
:1038B0000409FE01ED5DFE4F80E090E0A0E0B0E481
:1038C00080839183A283B3838E01015E1E4FFE012C
:1038D000ED5DFE4F608171818281938120E030E057
:1038E0004AE755E40E941F02DC01CB01F801808306
:1038F0009183A283B383FE01E15EFE4F60817181FB
:103900008281938120E030E040E85FE30E9425045B
:10391000882344F4FE01E35EFE4F81E090E0918352
:10392000808364C0FE01E15EFE4F6081718182810F
:10393000938120E03FEF4FE757E40E94C50318163C
:103940000CF043C0FE01ED5DFE4F6081718182810C
:10395000938120E030E040E251E40E941F02DC014C
:10396000CB018E01035E1E4FBC01CD010E944900B8
:10397000DC01CB01F801918380831FC0FE01E55E6D
:10398000FE4F80E991E091838083FE01E55EFE4F6A
:10399000808191810197F1F7FE01E55EFE4F9183F1
:1039A0008083DE01A35EBE4FFE01E35EFE4F808199
:1039B0009181019711969C938E93FE01E35EFE4FD9
:1039C000808191810097D1F627C08E01035E1E4F42
:1039D000FE01E15EFE4F60817181828193810E94D0
:1039E0004900DC01CB01F80191838083DE01A75EF1
:1039F000BE4FFE01E35EFE4F808191818D939C93CB
:103A0000FE01E75EFE4F808191810197F1F7FE0193
:103A1000E75EFE4F9183808389E390E062E041E0BE
:103A20000E940409FE01EB5EFE4F80E090E0A0E002
:103A3000B0E480839183A283B3838E010F5E1E4F17
:103A4000FE01EB5EFE4F608171818281938120E0F7
:103A500030E04AE755E40E941F02DC01CB01F80187
:103A600080839183A283B383FE01EF5EFE4F60816A
:103A700071818281938120E030E040E85FE30E9421
:103A80002504882344F4FE01E15FFE4F81E090E0CD
:103A90009183808364C0FE01EF5EFE4F608171817F
:103AA0008281938120E03FEF4FE757E40E94C503F6
:103AB00018160CF043C0FE01EB5EFE4F6081718171
:103AC0008281938120E030E040E251E40E941F02B5
:103AD000DC01CB018E01015F1E4FBC01CD010E94B4
:103AE0004900DC01CB01F801918380831FC0FE01F6
:103AF000E35FFE4F80E991E091838083FE01E35F05
:103B0000FE4F808191810197F1F7FE01E35FFE4F47
:103B100091838083DE01A15FBE4FFE01E15FFE4F16
:103B200080819181019711969C938E93FE01E15FB4
:103B3000FE4F808191810097D1F627C08E01015FF1
:103B40001E4FFE01EF5EFE4F608171818281938185
:103B50000E944900DC01CB01F80191838083DE01E2
:103B6000A55FBE4FFE01E15FFE4F808191818D9385
:103B70009C93FE01E55FFE4F808191810197F1F7F3
:103B8000FE01E55FFE4F9183808386E390E065E070
:103B900041E00E940409FE01E95FFE4F80E090E0F1
:103BA000A0E0B0E480839183A283B3838E010D5F94
:103BB0001E4FFE01E95FFE4F60817181828193811A
:103BC00020E030E04AE755E40E941F02DC01CB010F
:103BD000F80180839183A283B383FE01ED5FFE4FE2
:103BE000608171818281938120E030E040E85FE371
:103BF0000E942504882344F4FE01EF5FFE4F81E01C
:103C000090E09183808364C0FE01ED5FFE4F608190
:103C100071818281938120E03FEF4FE757E40E945A
:103C2000C50318160CF043C0FE01E95FFE4F60812A
:103C300071818281938120E030E040E251E40E9472
:103C40001F02DC01CB018E010F5F1E4FBC01CD01B5
:103C50000E944900DC01CB01F801918380831FC0E1
:103C6000FE01E150FF4F80E991E091838083FE01E6
:103C7000E150FF4F808191810197F1F7FE01E15002
:103C8000FF4F91838083DE01AF5FBE4FFE01EF5F88
:103C9000FE4F80819181019711969C938E93FE0136
:103CA000EF5FFE4F808191810097D1F627C08E0192
:103CB0000F5F1E4FFE01ED5FFE4F608171818281BB
:103CC00093810E944900DC01CB01F801918380833C
:103CD000DE01A350BF4FFE01EF5FFE4F8081918157
:103CE0008D939C93FE01E350FF4F8081918101975A
:103CF000F1F7FE01E350FF4F9183808386E390E06C
:103D000066E041E00E9404090C94812A89E390E076
:103D100063E040E00E940409FE01E750FF4F80E0AD
:103D200090E0A0E0B0E480839183A283B3838E010E
:103D30000B501F4FFE01E750FF4F60817181828160
:103D4000938120E030E04AE755E40E941F02DC0145
:103D5000CB01F80180839183A283B383FE01EB50F2
:103D6000FF4F608171818281938120E030E040E8E3
:103D70005FE30E942504882344F4FE01ED50FF4FC9
:103D800081E090E09183808364C0FE01EB50FF4F9F
:103D9000608171818281938120E03FEF4FE757E49A
:103DA0000E94C50318160CF043C0FE01E750FF4FF8
:103DB000608171818281938120E030E040E251E4B2
:103DC0000E941F02DC01CB018E010D501F4FBC0170
:103DD000CD010E944900DC01CB01F8019183808371
:103DE0001FC0FE01EF50FF4F80E991E09183808377
:103DF000FE01EF50FF4F808191810197F1F7FE01A5
:103E0000EF50FF4F91838083DE01AD50BF4FFE0125
:103E1000ED50FF4F80819181019711969C938E9375
:103E2000FE01ED50FF4F808191810097D1F627C0B0
:103E30008E010D501F4FFE01EB50FF4F60817181CD
:103E4000828193810E944900DC01CB01F8019183BA
:103E50008083DE01A151BF4FFE01ED50FF4F8081F5
:103E600091818D939C93FE01E151FF4F808191815F
:103E70000197F1F7FE01E151FF4F9183808389E3C0
:103E800090E062E040E00E940409FE01E551FF4F2E
:103E900080E090E0A0E0B0E480839183A283B383CC
:103EA0008E0109511F4FFE01E551FF4F6081718165
:103EB0008281938120E030E04AE755E40E941F02AE
:103EC000DC01CB01F80180839183A283B383FE01DF
:103ED000E951FF4F608171818281938120E030E060
:103EE00040E85FE30E942504882344F4FE01EB517F
:103EF000FF4F81E090E09183808364C0FE01E9512F
:103F0000FF4F608171818281938120E03FEF4FE715
:103F100057E40E94C50318160CF043C0FE01E5519A
:103F2000FF4F608171818281938120E030E040E227
:103F300051E40E941F02DC01CB018E010B511F4F87
:103F4000BC01CD010E944900DC01CB01F801918345
:103F500080831FC0FE01ED51FF4F80E991E0918306
:103F60008083FE01ED51FF4F808191810197F1F730
:103F7000FE01ED51FF4F91838083DE01AB51BF4FB6
:103F8000FE01EB51FF4F80819181019711969C9327
:103F90008E93FE01EB51FF4F808191810097D1F606
:103FA00027C08E010B511F4FFE01E951FF4F608169
:103FB0007181828193810E944900DC01CB01F8016B
:103FC00091838083DE01AF51BF4FFE01EB51FF4F64
:103FD000808191818D939C93FE01EF51FF4F8081F1
:103FE00091810197F1F7FE01EF51FF4F918380839B
:103FF00086E390E065E041E00E940409FE01E3529F
:10400000FF4F80E090E0A0E0B0E480839183A28342
:10401000B3838E0107521F4FFE01E352FF4F6081B1
:1040200071818281938120E030E04AE755E40E946B
:104030001F02DC01CB01F80180839183A283B3834B
:10404000FE01E752FF4F608171818281938120E000
:1040500030E040E85FE30E942504882344F4FE0139
:10406000E952FF4F81E090E09183808364C0FE01BC
:10407000E752FF4F608171818281938120E03FEFA1
:104080004FE757E40E94C50318160CF043C0FE0129
:10409000E352FF4F608171818281938120E030E0A3
:1040A00040E251E40E941F02DC01CB018E01095263
:1040B0001F4FBC01CD010E944900DC01CB01F8017A
:1040C000918380831FC0FE01EB52FF4F80E991E096
:1040D00091838083FE01EB52FF4F80819181019794
:1040E000F1F7FE01EB52FF4F91838083DE01A9526D
:1040F000BF4FFE01E952FF4F8081918101971196D8
:104100009C938E93FE01E952FF4F8081918100972D
:10411000D1F627C08E0109521F4FFE01E752FF4F13
:1041200060817181828193810E944900DC01CB0111
:10413000F80191838083DE01AD52BF4FFE01E95249
:10414000FF4F808191818D939C93FE01ED52FF4F33
:10415000808191810197F1F7FE01ED52FF4F91832C
:10416000808386E390E066E041E00E9404090C94BD
:10417000812A89E390E063E040E00E940409FE01A7
:10418000E153FF4F80E090E0A0E0B0E480839183B2
:10419000A283B3838E0105531F4FFE01E153FF4FEE
:1041A000608171818281938120E030E04AE755E4AB
:1041B0000E941F02DC01CB01F80180839183A2835E
:1041C000B383FE01E553FF4F60817181828193814A
:1041D00020E030E040E85FE30E942504882344F4B7
:1041E000FE01E753FF4F81E090E09183808364C03C
:1041F000FE01E553FF4F608171818281938120E050
:104200003FEF4FE757E40E94C50318160CF043C078
:10421000FE01E153FF4F608171818281938120E033
:1042200030E040E251E40E941F02DC01CB018E012C
:1042300007531F4FBC01CD010E944900DC01CB0197
:10424000F801918380831FC0FE01E953FF4F80E98D
:1042500091E091838083FE01E953FF4F808191813A
:104260000197F1F7FE01E953FF4F91838083DE014F
:10427000A753BF4FFE01E753FF4F80819181019704
:1042800011969C938E93FE01E753FF4F808191819D
:104290000097D1F627C08E0107531F4FFE01E5534B
:1042A000FF4F60817181828193810E944900DC010E
:1042B000CB01F80191838083DE01AB53BF4FFE0138
:1042C000E753FF4F808191818D939C93FE01EB53C7
:1042D000FF4F808191810197F1F7FE01EB53FF4F72
:1042E0009183808389E390E062E040E00E940409CA
:1042F000FE01EF53FF4F80E090E0A0E0B0E4808348
:104300009183A283B3838E0103541F4FFE01EF53A9
:10431000FF4F608171818281938120E030E04AE724
:1043200055E40E941F02DC01CB01F80180839183D8
:10433000A283B383FE01E354FF4F608171818281C8
:10434000938120E030E040E85FE30E942504882369
:1043500044F4FE01E554FF4F81E090E091838083B7
:1043600064C0FE01E354FF4F6081718182819381BB
:1043700020E03FEF4FE757E40E94C50318160CF00A
:1043800043C0FE01EF53FF4F6081718182819381B1
:1043900020E030E040E251E40E941F02DC01CB014A
:1043A0008E0105541F4FBC01CD010E944900DC0164
:1043B000CB01F801918380831FC0FE01E754FF4FBA
:1043C00080E991E091838083FE01E754FF4F808173
:1043D00091810197F1F7FE01E754FF4F91838083AC
:1043E000DE01A554BF4FFE01E554FF4F808191814E
:1043F000019711969C938E93FE01E554FF4F8081A7
:1044000091810097D1F627C08E0105541F4FFE0100
:10441000E354FF4F60817181828193810E94490042
:10442000DC01CB01F80191838083DE01A954BF4FE9
:10443000FE01E554FF4F808191818D939C93FE0195
:10444000E954FF4F808191810197F1F7FE01E95412
:10445000FF4F9183808386E390E065E040E00E9417
:104460000409FE01ED54FF4F80E090E0A0E0B0E4CD
:1044700080839183A283B3838E0101551F4FFE0178
:10448000ED54FF4F608171818281938120E030E0A3
:104490004AE755E40E941F02DC01CB01F80180834A
:1044A0009183A283B383FE01E155FF4F6081718147
:1044B0008281938120E030E040E85FE30E942504A0
:1044C000882344F4FE01E355FF4F81E090E091839F
:1044D000808364C0FE01E155FF4F6081718182815C
:1044E000938120E03FEF4FE757E40E94C503181681
:1044F0000CF043C0FE01ED54FF4F60817181828159
:10450000938120E030E040E251E40E941F02DC0190
:10451000CB018E0103551F4FBC01CD010E94490004
:10452000DC01CB01F801918380831FC0FE01E555BA
:10453000FF4F80E991E091838083FE01E555FF4FB5
:10454000808191810197F1F7FE01E555FF4F91833D
:104550008083DE01A355BF4FFE01E355FF4F8081ED
:104560009181019711969C938E93FE01E355FF4F25
:10457000808191810097D1F627C08E0103551F4F8E
:10458000FE01E155FF4F60817181828193810E941C
:104590004900DC01CB01F80191838083DE01A7553E
:1045A000BF4FFE01E355FF4F808191818D939C9316
:1045B000FE01E755FF4F808191810197F1F7FE01E0
:1045C000E755FF4F9183808386E390E066E041E00A
:1045D0000E9404090C94812A89E390E063E040E0A2
:1045E0000E940409FE01EB55FF4F80E090E0A0E03F
:1045F000B0E480839183A283B3838E010F551F4F54
:10460000FE01EB55FF4F608171818281938120E033
:1046100030E04AE755E40E941F02DC01CB01F801BB
:1046200080839183A283B383FE01EF55FF4F6081A6
:1046300071818281938120E030E040E85FE30E9455
:104640002504882344F4FE01E156FF4F81E090E009
:104650009183808364C0FE01EF55FF4F60817181BB
:104660008281938120E03FEF4FE757E40E94C5032A
:1046700018160CF043C0FE01EB55FF4F60817181AD
:104680008281938120E030E040E251E40E941F02E9
:10469000DC01CB018E0101561F4FBC01CD010E94F0
:1046A0004900DC01CB01F801918380831FC0FE012A
:1046B000E356FF4F80E991E091838083FE01E3564A
:1046C000FF4F808191810197F1F7FE01E356FF4F83
:1046D00091838083DE01A156BF4FFE01E156FF4F5B
:1046E00080819181019711969C938E93FE01E156F2
:1046F000FF4F808191810097D1F627C08E0101562E
:104700001F4FFE01EF55FF4F6081718182819381C0
:104710000E944900DC01CB01F80191838083DE0116
:10472000A556BF4FFE01E156FF4F808191818D93C9
:104730009C93FE01E556FF4F808191810197F1F72F
:10474000FE01E556FF4F9183808389E390E062E0AC
:1047500040E00E940409FE01E956FF4F80E090E02E
:10476000A0E0B0E480839183A283B3838E010D56D1
:104770001F4FFE01E956FF4F608171818281938155
:1047800020E030E04AE755E40E941F02DC01CB0143
:10479000F80180839183A283B383FE01ED56FF4F1E
:1047A000608171818281938120E030E040E85FE3A5
:1047B0000E942504882344F4FE01EF56FF4F81E058
:1047C00090E09183808364C0FE01ED56FF4F6081CD
:1047D00071818281938120E03FEF4FE757E40E948F
:1047E000C50318160CF043C0FE01E956FF4F608167
:1047F00071818281938120E030E040E251E40E94A7
:104800001F02DC01CB018E010F561F4FBC01CD01F1
:104810000E944900DC01CB01F801918380831FC015
:10482000FE01E157FF4F80E991E091838083FE0113
:10483000E157FF4F808191810197F1F7FE01E15728
:10484000FF4F91838083DE01AF56BF4FFE01EF56CD
:10485000FF4F80819181019711969C938E93FE0169
:10486000EF56FF4F808191810097D1F627C08E01CE
:104870000F561F4FFE01ED56FF4F608171818281FF
:1048800093810E944900DC01CB01F8019183808370
:10489000DE01A357BF4FFE01EF56FF4F808191818C
:1048A0008D939C93FE01E357FF4F80819181019787
:1048B000F1F7FE01E357FF4F9183808386E390E099
:1048C00065E040E00E940409FE01E757FF4F80E0E9
:1048D00090E0A0E0B0E480839183A283B3838E0153
:1048E0000B571F4FFE01E757FF4F60817181828197
:1048F000938120E030E04AE755E40E941F02DC018A
:10490000CB01F80180839183A283B383FE01EB572F
:10491000FF4F608171818281938120E030E040E827
:104920005FE30E942504882344F4FE01ED57FF4F06
:1049300081E090E09183808364C0FE01EB57FF4FDC
:10494000608171818281938120E03FEF4FE757E4DE
:104950000E94C50318160CF043C0FE01E757FF4F35
:10496000608171818281938120E030E040E251E4F6
:104970000E941F02DC01CB018E010D571F4FBC01AD
:10498000CD010E944900DC01CB01F80191838083B5
:104990001FC0FE01EF57FF4F80E991E091838083B4
:1049A000FE01EF57FF4F808191810197F1F7FE01E2
:1049B000EF57FF4F91838083DE01AD57BF4FFE015C
:1049C000ED57FF4F80819181019711969C938E93B3
:1049D000FE01ED57FF4F808191810097D1F627C0EE
:1049E0008E010D571F4FFE01EB57FF4F6081718104
:1049F000828193810E944900DC01CB01F8019183FF
:104A00008083DE01A158BF4FFE01ED57FF4F80812B
:104A100091818D939C93FE01E158FF4F808191819C
:104A20000197F1F7FE01E158FF4F9183808386E300
:104A300090E066E040E00E94040963C589E390E0ED
:104A400063E041E00E940409FE01E558FF4F80E069
:104A500090E0A0E0B0E480839183A283B3838E01D1
:104A600009581F4FFE01E558FF4F60817181828117
:104A7000938120E030E04AE755E40E941F02DC0108
:104A8000CB01F80180839183A283B383FE01E958AF
:104A9000FF4F608171818281938120E030E040E8A6
:104AA0005FE30E942504882344F4FE01EB58FF4F86
:104AB00081E090E09183808364C0FE01E958FF4F5C
:104AC000608171818281938120E03FEF4FE757E45D
:104AD0000E94C50318160CF043C0FE01E558FF4FB5
:104AE000608171818281938120E030E040E251E475
:104AF0000E941F02DC01CB018E010B581F4FBC012D
:104B0000CD010E944900DC01CB01F8019183808333
:104B10001FC0FE01ED58FF4F80E991E09183808333
:104B2000FE01ED58FF4F808191810197F1F7FE0161
:104B3000ED58FF4F91838083DE01AB58BF4FFE01DC
:104B4000EB58FF4F80819181019711969C938E9332
:104B5000FE01EB58FF4F808191810097D1F627C06D
:104B60008E010B581F4FFE01E958FF4F6081718184
:104B7000828193810E944900DC01CB01F80191837D
:104B80008083DE01AF58BF4FFE01EB58FF4F80819D
:104B900091818D939C93FE01EF58FF4F808191810D
:104BA0000197F1F7FE01EF58FF4F9183808389E36E
:104BB00090E062E040E00E940409FE01E359FF4FEB
:104BC00080E090E0A0E0B0E480839183A283B3838F
:104BD0008E0107591F4FFE01E359FF4F608171811C
:104BE0008281938120E030E04AE755E40E941F0271
:104BF000DC01CB01F80180839183A283B383FE01A2
:104C0000E759FF4F608171818281938120E030E01C
:104C100040E85FE30E942504882344F4FE01E9593B
:104C2000FF4F81E090E09183808364C0FE01E759EB
:104C3000FF4F608171818281938120E03FEF4FE7D8
:104C400057E40E94C50318160CF043C0FE01E35957
:104C5000FF4F608171818281938120E030E040E2EA
:104C600051E40E941F02DC01CB018E0109591F4F44
:104C7000BC01CD010E944900DC01CB01F801918308
:104C800080831FC0FE01EB59FF4F80E991E09183C3
:104C90008083FE01EB59FF4F808191810197F1F7ED
:104CA000FE01EB59FF4F91838083DE01A959BF4F6D
:104CB000FE01E959FF4F80819181019711969C93E4
:104CC0008E93FE01E959FF4F808191810097D1F6C3
:104CD00027C08E0109591F4FFE01E759FF4F608120
:104CE0007181828193810E944900DC01CB01F8012E
:104CF00091838083DE01AD59BF4FFE01E959FF4F1B
:104D0000808191818D939C93FE01ED59FF4F8081AD
:104D100091810197F1F7FE01ED59FF4F9183808357
:104D200086E390E065E041E00E940409FE01E15A5B
:104D3000FF4F80E090E0A0E0B0E480839183A28305
:104D4000B3838E01055A1F4FFE01E15AFF4F608168
:104D500071818281938120E030E04AE755E40E942E
:104D60001F02DC01CB01F80180839183A283B3830E
:104D7000FE01E55AFF4F608171818281938120E0BD
:104D800030E040E85FE30E942504882344F4FE01FC
:104D9000E75AFF4F81E090E09183808364C0FE0179
:104DA000E55AFF4F608171818281938120E03FEF5E
:104DB0004FE757E40E94C50318160CF043C0FE01EC
:104DC000E15AFF4F608171818281938120E030E060
:104DD00040E251E40E941F02DC01CB018E01075A20
:104DE0001F4FBC01CD010E944900DC01CB01F8013D
:104DF000918380831FC0FE01E95AFF4F80E991E053
:104E000091838083FE01E95AFF4F80819181019750
:104E1000F1F7FE01E95AFF4F91838083DE01A75A23
:104E2000BF4FFE01E75AFF4F808191810197119694
:104E30009C938E93FE01E75AFF4F808191810097EA
:104E4000D1F627C08E01075A1F4FFE01E55AFF4FCA
:104E500060817181828193810E944900DC01CB01D4
:104E6000F80191838083DE01AB5ABF4FFE01E75A00
:104E7000FF4F808191818D939C93FE01EB5AFF4FF0
:104E8000808191810197F1F7FE01EB5AFF4F9183E9
:104E9000808386E390E066E041E00E94040931C32C
:104EA00089E390E063E041E00E940409FE01EF5ACB
:104EB000FF4F80E090E0A0E0B0E480839183A28384
:104EC000B3838E01035B1F4FFE01EF5AFF4F6081DA
:104ED00071818281938120E030E04AE755E40E94AD
:104EE0001F02DC01CB01F80180839183A283B3838D
:104EF000FE01E35BFF4F608171818281938120E03D
:104F000030E040E85FE30E942504882344F4FE017A
:104F1000E55BFF4F81E090E09183808364C0FE01F8
:104F2000E35BFF4F608171818281938120E03FEFDD
:104F30004FE757E40E94C50318160CF043C0FE016A
:104F4000EF5AFF4F608171818281938120E030E0D0
:104F500040E251E40E941F02DC01CB018E01055B9F
:104F60001F4FBC01CD010E944900DC01CB01F801BB
:104F7000918380831FC0FE01E75BFF4F80E991E0D2
:104F800091838083FE01E75BFF4F808191810197D0
:104F9000F1F7FE01E75BFF4F91838083DE01A55BA4
:104FA000BF4FFE01E55BFF4F808191810197119614
:104FB0009C938E93FE01E55BFF4F8081918100976A
:104FC000D1F627C08E01055B1F4FFE01E35BFF4F4B
:104FD00060817181828193810E944900DC01CB0153
:104FE000F80191838083DE01A95BBF4FFE01E55B81
:104FF000FF4F808191818D939C93FE01E95BFF4F70
:10500000808191810197F1F7FE01E95BFF4F918368
:10501000808389E390E062E041E00E940409FE01A0
:10502000ED5BFF4F80E090E0A0E0B0E480839183EF
:10503000A283B3838E01015C1F4FFE01ED5BFF4F26
:10504000608171818281938120E030E04AE755E4FC
:105050000E941F02DC01CB01F80180839183A283AF
:10506000B383FE01FF96608171818281938120E08C
:1050700030E040E85FE30E94250488232CF481E0BF
:1050800090E09EAF8DAF46C0FE01FF9660817181BA
:105090008281938120E03FEF4FE757E40E94C503F0
:1050A000181664F5FE01ED5BFF4F6081718182810E
:1050B000938120E030E040E251E40E941F02DC01D5
:1050C000CB01BC01CD010E944900DC01CB019EAFA8
:1050D0008DAF0FC080E991E09CAF8BAF8BAD9CADE5
:1050E0000197F1F79CAF8BAF8DAD9EAD01979EAF51
:1050F0008DAF8DAD9EAD009769F716C0FE01FF968E
:1051000060817181828193810E944900DC01CB0121
:105110009EAF8DAF8DAD9EAD9AAF89AF89AD9AAD83
:105120000197F1F79AAF89AF86E390E065E040E040
:105130000E94040980E090E0A0E0B0E48DAB9EAB5B
:10514000AFABB8AF6DA97EA98FA998AD20E030E0D4
:105150004AE755E40E941F02DC01CB0189AB9AAB00
:10516000ABABBCAB69A97AA98BA99CA920E030E0C4
:1051700040E85FE30E94250488232CF481E090E05E
:1051800098AB8FA73FC069A97AA98BA99CA920E0F9
:105190003FEF4FE757E40E94C50318164CF56DA981
:1051A0007EA98FA998AD20E030E040E251E40E9452
:1051B0001F02DC01CB01BC01CD010E944900DC01D2
:1051C000CB0198AB8FA70FC080E991E09EA78DA778
:1051D0008DA59EA50197F1F79EA78DA78FA598A9EC
:1051E000019798AB8FA78FA598A9009769F714C06E
:1051F00069A97AA98BA99CA90E944900DC01CB016D
:1052000098AB8FA78FA598A99CA78BA78BA59CA5CA
:105210000197F1F79CA78BA786E390E066E041E059
:105220000E9404096EC189E390E063E041E00E94BE
:10523000040980E090E0A0E0B0E48FA398A7A9A7BC
:10524000BAA76FA178A589A59AA520E030E04AE722
:1052500055E40E941F02DC01CB018BA39CA3ADA3EC
:10526000BEA36BA17CA18DA19EA120E030E040E80F
:105270005FE30E94250488232CF481E090E09AA348
:1052800089A33FC06BA17CA18DA19EA120E03FEF2F
:105290004FE757E40E94C50318164CF56FA178A597
:1052A00089A59AA520E030E040E251E40E941F0267
:1052B000DC01CB01BC01CD010E944900DC01CB0126
:1052C0009AA389A30FC080E991E098A38F8F8F8D57
:1052D00098A10197F1F798A38F8F89A19AA10197BF
:1052E0009AA389A389A19AA1009769F714C06BA119
:1052F0007CA18DA19EA10E944900DC01CB019AA353
:1053000089A389A19AA19E8F8D8F8D8D9E8D0197E6
:10531000F1F79E8F8D8F89E390E062E041E00E947B
:10532000040980E090E0A0E0B0E4898F9A8FAB8F11
:10533000BC8F698D7A8D8B8D9C8D20E030E04AE7A3
:1053400055E40E941F02DC01CB018D8B9E8BAF8B3D
:10535000B88F6D897E898F89988D20E030E040E894
:105360005FE30E94250488232CF481E090E09C8B6D
:105370008B8B3FC06D897E898F89988D20E03FEFB0
:105380004FE757E40E94C50318164CF5698D7A8DD6
:105390008B8D9C8D20E030E040E251E40E941F02A2
:1053A000DC01CB01BC01CD010E944900DC01CB0135
:1053B0009C8B8B8B0FC080E991E09A8B898B8989BC
:1053C0009A890197F1F79A8B898B8B899C89019730
:1053D0009C8B8B8B8B899C89009769F714C06D8996
:1053E0007E898F89988D0E944900DC01CB019C8BBE
:1053F0008B8B8B899C89988B8F878F859889019758
:10540000F1F7988B8F8786E390E065E041E00E949A
:10541000040980E090E0A0E0B0E48B879C87AD8732
:10542000BE876B857C858D859E8520E030E04AE7D0
:1054300055E40E941F02DC01CB018F839887A98766
:10544000BA876F81788589859A8520E030E040E8C9
:105450005FE30E94250488232CF481E090E09E8382
:105460008D833FC06F81788589859A8520E03FEFE5
:105470004FE757E40E94C50318164CF56B857C85F1
:105480008D859E8520E030E040E251E40E941F02BD
:10549000DC01CB01BC01CD010E944900DC01CB0144
:1054A0009E838D830FC080E991E09C838B838B81E9
:1054B0009C810197F1F79C838B838D819E8101975D
:1054C0009E838D838D819E81009769F714C06F81C3
:1054D000788589859A850E944900DC01CB019E83ED
:1054E0008D838D819E819A83898389819A81019799
:1054F000F1F79A83898386E390E066E040E00E94BA
:105500000409C75DDE4F0FB6F894DEBF0FBECDBFF6
:10551000CF91DF911F910F910895DF93CF9300D02A
:105520000F92CDB7DEB789838981282F30E03B8386
:105530002A838A819B818430910509F4ABC02A813A
:105540003B8125303105ECF48A819B8181309105C6
:1055500009F455C02A813B81223031052CF48A811F
:105560009B81009799F12BC12A813B812230310523
:1055700009F45EC08A819B818330910509F471C072
:105580001EC12A813B812730310509F4CEC08A81B2
:105590009B81883091056CF42A813B81253031054F
:1055A00009F491C08A819B818630910509F4A4C0D9
:1055B00006C12A813B812830310509F4CFC08A8198
:1055C0009B818930910509F4E2C0F9C086E390E03F
:1055D00060E040E00E94040986E390E061E040E082
:1055E0000E94040986E390E062E040E00E94040922
:1055F00086E390E064E040E00E940409E0C086E3B6
:1056000090E060E041E00E94040986E390E061E000
:1056100040E00E94040986E390E062E040E00E94DE
:10562000040986E390E064E040E00E940409C7C0FA
:1056300086E390E060E040E00E94040986E390E0A9
:1056400061E041E00E94040986E390E062E040E00E
:105650000E94040986E390E064E040E00E940409AF
:10566000AEC086E390E060E041E00E94040986E37A
:1056700090E061E041E00E94040986E390E062E08E
:1056800040E00E94040986E390E064E040E00E946C
:10569000040995C086E390E060E040E00E940409C0
:1056A00086E390E061E040E00E94040986E390E038
:1056B00062E041E00E94040986E390E064E040E09B
:1056C0000E9404097CC086E390E060E041E00E9413
:1056D000040986E390E061E040E00E94040986E36B
:1056E00090E062E041E00E94040986E390E064E01B
:1056F00040E00E94040963C086E390E060E040E07F
:105700000E94040986E390E061E041E00E94040900
:1057100086E390E062E041E00E94040986E390E0C5
:1057200064E040E00E9404094AC086E390E060E043
:1057300041E00E94040986E390E061E041E00E94BC
:10574000040986E390E062E041E00E94040986E3F8
:1057500090E064E040E00E94040931C086E390E0FC
:1057600060E040E00E94040986E390E061E040E0F0
:105770000E94040986E390E062E040E00E94040990
:1057800086E390E064E041E00E94040918C086E3EB
:1057900090E060E041E00E94040986E390E061E06F
:1057A00040E00E94040986E390E062E040E00E944D
:1057B000040986E390E064E041E00E9404090F9050
:1057C0000F900F90CF91DF910895DF93CF93CDB7D6
:1057D000DEB72E970FB6F894DEBF0FBECDBF809117
:1057E0007F018F5F80937F0180917F01813009F07D
:1057F0007AC083E390E066E041E00E94040980E023
:1058000090E8ABE3B5E48B879C87AD87BE876B855B
:105810007C858D859E8520E030E04AE755E40E9436
:105820001F02DC01CB018F839887A987BA876F811C
:10583000788589859A8520E030E040E85FE30E9422
:10584000250488232CF481E090E09E838D833FC063
:105850006F81788589859A8520E03FEF4FE757E48F
:105860000E94C50318164CF56B857C858D859E8539
:1058700020E030E040E251E40E941F02DC01CB0155
:10588000BC01CD010E944900DC01CB019E838D83C8
:105890000FC080E991E09C838B838B819C81019771
:1058A000F1F79C838B838D819E8101979E838D83ED
:1058B0008D819E81009769F714C06F8178858985F5
:1058C0009A850E944900DC01CB019E838D838D81E6
:1058D0009E819A83898389819A810197F1F79A83BE
:1058E000898310927F012E960FB6F894DEBF0FBE0B
:1058F000CDBFCF91DF910895DF93CF93CDB7DEB7C2
:1059000029970FB6F894DEBF0FBECDBF81E0888720
:1059100019821D821C8285E08A83CE0101960E9435
:10592000730D25EE3BE2CE010196B9010E9469118B
:1059300029960FB6F894DEBF0FBECDBFCF91DF9191
:105940000895DF93CF93CDB7DEB783E390E066E0B1
:1059500041E00E9450080E947C2C0E9482140E9408
:105960005C1980E00E949A1B83E390E066E040E0CF
:105970000E940409F9CFAA1BBB1B51E107C0AA1F53
:10598000BB1FA617B70710F0A61BB70B881F991FE0
:105990005A95A9F780959095BC01CD01089597FB84
:1059A000092E07260AD077FD04D0E5DF06D00020B7
:1059B0001AF4709561957F4F0895F6F7909581954B
:1059C0009F4F08952F923F924F925F926F927F92D6
:1059D0008F929F92AF92BF92CF92DF92EF92FF92FF
:1059E0000F931F93CF93DF93CDB7DEB7CA1BDB0BAB
:1059F0000FB6F894DEBF0FBECDBF09942A88398850
:105A000048885F846E847D848C849B84AA84B98456
:105A1000C884DF80EE80FD800C811B81AA81B98162
:105A2000CE0FD11D0FB6F894DEBF0FBECDBFED0176
:105A30000895FB019F01E8944230C4F04532B4F46C
:105A40004A3029F497FB1EF4909581959F4F642F5F
:105A500077270E94BB2C805D8A330CF0895D81938F
:105A6000CB010097A1F716F45DE251931082C901B2
:105A70000C943A2DDC01FC01672F71917723E1F73B
:105A8000329704C07C916D9370836291AE17BF070B
:085A9000C8F30895F894FFCF5C
:105A980000000000000000000001020203030303ED
:105AA80004040404040404040505050505050505A6
:105AB8000505050505050505060606060606060686
:105AC800060606060606060606060606060606066E
