:100000000C942A000C94620B0C94910B0C94C00B72
:100010000C9447000C9447000C9447000C94470044
:100020000C9447000C9447000C9447000C94470034
:100030000C9447000C9447000C9447000C94470024
:100040000C9417070C9447000C9447000C9447003D
:100050000C94470011241FBECFE5D8E0DEBFCDBF12
:1000600011E0A0E6B0E0E2EBFEE302C005900D92E5
:10007000AE39B107D9F711E0AEE9B1E001C01D9288
:10008000A93AB107E1F70E94C71E0C94571F0C94C0
:100090000000EF92FF920F931F937B018C0120E0F1
:1000A00030E040E05FE40E94F50388238CF0C80153
:1000B000B70120E030E040E05FE40E94C1010E940F
:1000C00055049B01AC01205030404040504806C0D0
:1000D000C801B7010E9455049B01AC01B901CA01D6
:1000E0001F910F91FF90EF900895A0E0B0E0EBE733
:1000F000F0E00C94DB1EDC012B01FA019C919230A4
:1001000008F439C1EB018881823008F433C194309E
:1001100069F4843009F02FC111969C91119789815F
:10012000981709F428C1ACE6B0E025C1843009F481
:1001300021C18230A9F4923009F01DC19A01AD01AC
:1001400088E0EA010990AE01E90109929E0181501F
:10015000C1F7E201898111969C918923818308C1AD
:10016000923009F407C112962D903C901397EB0141
:100170008A819B811496AD90BD90CD90DC901797AD
:10018000EC80FD800E811F819101281B390BB90184
:1001900037FF04C066277727621B730B6032710537
:1001A0000CF061C0121613066CF537014801062EDB
:1001B00004C096948794779467940A94D2F721E0C8
:1001C00030E040E050E004C0220F331F441F551FB1
:1001D0006A95D2F721503040404050402E213F21B7
:1001E00040235123211531054105510521F021E01E
:1001F00030E040E050E079018A01E628F72808293C
:1002000019293CC0232BD1F1260E371E350146019A
:10021000062E04C096948794779467940A94D2F734
:1002200021E030E040E050E004C0220F331F441FC3
:10023000551F6A95D2F721503040404050402A2146
:100240003B214C215D21211531054105510521F04E
:1002500021E030E040E050E059016A01A628B728CB
:10026000C828D9280BC0821593052CF01C01AA249C
:10027000BB24650103C0EE24FF24870111969C91E5
:10028000D20111968C91981709F445C0992339F041
:10029000A80197012A193B094C095D0906C0A6016E
:1002A00095012E193F09400B510B57FD08C01182D3
:1002B0003382228224833583468357831DC081E0A5
:1002C00081833382228288279927DC01821B930B4A
:1002D000A40BB50B84839583A683B7830DC0220F2F
:1002E000331F441F551F24833583468357838281E0
:1002F000938101979383828324813581468157813D
:10030000DA01C9010197A109B1098F5F9F4FAF4F72
:10031000BF4328F30BC0918333822282EA0CFB1C7B
:100320000C1D1D1DE482F5820683178383E0808304
:10033000248135814681578157FF1AC0C901AA27F8
:1003400097FDA095BA2F81709070A070B0705695EF
:10035000479537952795822B932BA42BB52B848318
:100360009583A683B7838281938101969383828349
:10037000DF0101C0D201CD01CDB7DEB7E2E10C94BF
:10038000F71EA0E2B0E0E7ECF1E00C94E71E698311
:100390007A838B839C832D833E834F835887E9E048
:1003A000EE2EF12CEC0EFD1ECE010196B7010E943F
:1003B00046068E010F5E1F4FCE010596B8010E94C2
:1003C00046068A8991E089278A8BC701B801AE0168
:1003D000475E5F4F0E9475000E947105A096E6E09F
:1003E0000C94031FA0E2B0E0E8EFF1E00C94E71EEC
:1003F00069837A838B839C832D833E834F835887C5
:10040000F9E0EF2EF12CEC0EFD1ECE010196B701A6
:100410000E9446068E010F5E1F4FCE010596B80161
:100420000E944606C701B801AE01475E5F4F0E94B9
:1004300075000E947105A096E6E00C94031FA0E2EF
:10044000B0E0E5E2F2E00C94DB1E69837A838B83F3
:100450009C832D833E834F835887CE010196BE0136
:10046000675F7F4F0E944606CE010596BE016F5E14
:100470007F4F0E9446069985923088F089898230A4
:10048000C8F0943019F4823051F404C0843029F457
:10049000923081F48CE690E0C6C0923049F420E0BE
:1004A0009A858A89981321E02A87CE010996BBC0D4
:1004B000823049F420E09A858A89981321E02A8BBA
:1004C000CE014196B0C02D843E844F8458886D88FB
:1004D0007E888F88988CEE24FF248701AA24BB2471
:1004E000650140E050E060E070E0E0E0F0E0C10174
:1004F00081709070892BE9F0E60CF71C081D191D1E
:100500009A01AB012A0D3B1D4C1D5D1D80E090E062
:10051000A0E0B0E0E614F7040805190520F481E036
:1005200090E0A0E0B0E0BA01A901480F591F6A1F8E
:100530007B1FAA0CBB1CCC1CDD1C97FE08C081E0F5
:1005400090E0A0E0B0E0A82AB92ACA2ADB2A3196B6
:10055000E032F10549F0660C771C881C991C569412
:10056000479437942794C3CFFA85EA892B893C892D
:100570008B859C85280F391F2E5F3F4F17C0CA01FE
:1005800081709070892B61F016950795F794E79428
:1005900080E090E0A0E0B0E8E82AF92A0A2B1B2BC3
:1005A00076956795579547952F5F3F4F77FDE7CF36
:1005B0000CC0440F551F661F771F17FD4160EE0CDE
:1005C000FF1C001F111F21503040403090E05907A0
:1005D00090E0690790E4790760F32B8F3C8FDB0193
:1005E000CA018F779070A070B07080349105A1051A
:1005F000B10561F447FD0AC0E114F10401051105DC
:1006000029F0405C5F4F6F4F7F4F40781A8EFE1786
:1006100011F081E08A8F4D8F5E8F6F8F78A383E01A
:10062000898FCE0149960E947105A096E2E10C9453
:10063000F71EA8E1B0E0EFE1F3E00C94E31E69835C
:100640007A838B839C832D833E834F835887B9E0C5
:10065000EB2EF12CEC0EFD1ECE010196B7010E948F
:1006600046068E010F5E1F4FCE010596B8010E940F
:1006700046062985223008F47EC03989323010F4CC
:10068000B8017CC08A859A8989278A87243011F02D
:10069000223031F4231709F06EC06CE670E06EC0B2
:1006A000343039F41D861E861F86188A1C861B86E8
:1006B00004C0323021F484E08987B7015FC02B8504
:1006C0003C858B899C89281B390B3C872B87ED84C3
:1006D000FE840F851889AD88BE88CF88D88CEA142F
:1006E000FB040C051D0540F4EE0CFF1C001F111F40
:1006F000215030403C872B8720E030E040E050E044
:1007000080E090E0A0E0B0E460E070E0EA14FB0478
:100710000C051D0540F0282B392B4A2B5B2BEA18C2
:10072000FB080C091D09B695A79597958795EE0CC2
:10073000FF1C001F111F6F5F7F4F6F31710531F775
:10074000DA01C9018F779070A070B0708034910584
:10075000A105B10561F427FD0AC0E114F10401050A
:10076000110529F0205C3F4F4F4F5F4F20782D87B8
:100770003E874F87588BBE01675F7F4FCB010E943A
:1007800071056896EAE00C94FF1EA8E1B0E0EBEC7E
:10079000F3E00C94E71E69837A838B839C832D831B
:1007A0003E834F83588789E0E82EF12CEC0EFD1E26
:1007B000CE010196B7010E9446068E010F5E1F4FC3
:1007C000CE010596B8010E9446068985823040F028
:1007D0008989823028F0C701B8010E94BE0601C095
:1007E0008FEF6896E6E00C94031FA8E1B0E0EBEF12
:1007F000F3E00C94E71E69837A838B839C832D83BB
:100800003E834F83588789E0E82EF12CEC0EFD1EC5
:10081000CE010196B7010E9446068E010F5E1F4F62
:10082000CE010596B8010E9446068985823040F0C7
:100830008989823028F0C701B8010E94BE0601C034
:100840008FEF6896E6E00C94031FA8E1B0E0EBE2BE
:10085000F4E00C94E71E69837A838B839C832D8359
:100860003E834F83588789E0E82EF12CEC0EFD1E65
:10087000CE010196B7010E9446068E010F5E1F4F02
:10088000CE010596B8010E9446068985823040F067
:100890008989823028F0C701B8010E94BE0601C0D4
:1008A00081E06896E6E00C94031FACE0B0E0EBE575
:1008B000F4E00C94EB1E69837A838B839C83CE01D6
:1008C0000196BE016B5F7F4F0E9446068D8182308C
:1008D00061F1823050F1843021F48E81882351F10E
:1008E0002EC02F81388537FD20C06E812F31310514
:1008F0001CF06623F9F023C08EE190E0821B930B7D
:1009000029853A854B855C8504C056954795379572
:1009100027958A95D2F76623B1F05095409530958A
:1009200021953F4F4F4F5F4F0EC020E030E040E039
:1009300050E009C02FEF3FEF4FEF5FE704C020E02A
:1009400030E040E050E8B901CA012C96E2E00C9496
:10095000071FA8E0B0E0EFEAF4E00C94E31E7B018F
:100960008C01611571058105910519F482E0898377
:1009700060C083E089838EE1C82ED12CDC82CB82DB
:10098000ED82FE820F831887C801B7010E942205FD
:10099000FC013197F7FF3BC0222733272E1B3F0B6B
:1009A00057016801022E04C0D694C794B794A79447
:1009B0000A94D2F740E050E060E070E081E090E01F
:1009C000A0E0B0E004C0880F991FAA1FBB1F2A95A2
:1009D000D2F70197A109B1098E219F21A023B1234C
:1009E0000097A105B10521F041E050E060E070E022
:1009F0004A295B296C297D294D835E836F83788723
:100A00008EE190E08E1B9F0B9C838B8312C03097EE
:100A100081F00E2E04C0EE0CFF1C001F111F0A9463
:100A2000D2F7ED82FE820F831887CE1ADF0ADC82AE
:100A3000CB821A82CE0101960E9471052896EAE0C7
:100A40000C94FF1EEF92FF920F931F937B018C017A
:100A500080E0E81680E0F80681E0080780E01807EB
:100A600088F48FEFE816F1040105110531F028F044
:100A700088E090E0A0E0B0E017C080E090E0A0E067
:100A8000B0E012C080E0E81680E0F80680E00807D9
:100A900081E0180728F088E190E0A0E0B0E004C011
:100AA00080E190E0A0E0B0E020E230E040E050E003
:100AB000281B390B4A0B5B0B04C016950795F7945E
:100AC000E7948A95D2F7F701EC58FF4F8081281BF5
:100AD000310941095109C9011F910F91FF90EF9010
:100AE0000895DF92EF92FF920F931F93FC01E48031
:100AF000F58006811781D1808081823048F480E0C2
:100B000090E0A0E1B0E0E82AF92A0A2B1B2BA5C04F
:100B1000843009F49FC0823021F4EE24FF24870141
:100B200005C0E114F1040105110519F4E0E0F0E05D
:100B300096C0628173819FEF623879070CF05BC0C9
:100B400022E83FEF261B370B2A3131052CF020E03D
:100B500030E040E050E02AC0B801A701022E04C0F6
:100B600076956795579547950A94D2F781E090E07E
:100B7000A0E0B0E004C0880F991FAA1FBB1F2A95F0
:100B8000D2F70197A109B1098E219F21A023B1239A
:100B90000097A105B10521F081E090E0A0E0B0E070
:100BA0009A01AB01282B392B4A2B5B2BDA01C901A7
:100BB0008F779070A070B07080349105A105B10559
:100BC00039F427FF09C0205C3F4F4F4F5F4F04C0EF
:100BD000215C3F4F4F4F5F4FE0E0F0E02030A0E05E
:100BE0003A07A0E04A07A0E45A0710F0E1E0F0E07D
:100BF00079018A0127C06038710564F5FB01E1586D
:100C0000FF4FD801C7018F779070A070B07080340B
:100C10009105A105B10539F4E7FE0DC080E490E02F
:100C2000A0E0B0E004C08FE390E0A0E0B0E0E80E08
:100C3000F91E0A1F1B1F17FF05C016950795F7948D
:100C4000E794319687E016950795F794E7948A958F
:100C5000D1F705C0EE24FF248701EFEFF0E06E2FFF
:100C6000679566276795902F9F77D794DD24D79453
:100C70008E2F8695492F462B582F5D29B701CA0123
:100C80001F910F91FF90EF90DF900895FC01DB0121
:100C9000408151812281622F6F7770E0221F2227CD
:100CA000221F9381892F880F822B282F30E0991FD4
:100CB0009927991F11969C93119721153105A9F534
:100CC000411551056105710511F482E037C082E8D4
:100CD0009FEF13969C938E9312979A01AB0167E056
:100CE000220F331F441F551F6A95D1F783E08C9361
:100CF0000DC0220F331F441F551F12968D919C91DA
:100D00001397019713969C938E931297203080E04F
:100D1000380780E0480780E4580758F314962D936D
:100D20003D934D935C93179708952F3F310579F4C8
:100D3000411551056105710519F484E08C930895FE
:100D400064FF03C081E08C9312C01C9210C02F5727
:100D5000304013963C932E93129783E08C9387E058
:100D6000440F551F661F771F8A95D1F7706414963C
:100D70004D935D936D937C93179708951F93DC01BA
:100D8000FB019C91923008F447C08081823008F4C6
:100D900043C0943051F411961C91843099F58181AF
:100DA000682F70E0611B71093FC0843021F09230E0
:100DB00031F48230B9F18181882389F12DC01196F7
:100DC0001C9111978230F1F081811817D9F4129695
:100DD0002D913C911397828193818217930794F010
:100DE00028173907BCF014968D919D910D90BC91F8
:100DF000A02D2481358146815781281739074A075C
:100E00005B0718F4112341F00AC082179307A40767
:100E1000B50740F4112319F061E070E005C06FEFF1
:100E20007FEF02C060E070E0CB011F9108951F9238
:100E30000F920FB60F921124DF93CF93CDB7DEB789
:100E4000CF91DF910F900FBE0F901F901895DF93F9
:100E5000CF9300D0CDB7DEB79A838983A4E2B0E008
:100E6000E4E2F0E08381282F2F73E981FA81808109
:100E7000882F90E0002496958795079496958795FE
:100E80000794982F802D822B13968C93A4E2B0E0C8
:100E9000E4E2F0E08281982F987FE981FA818181F4
:100EA000892B12968C93A4E2B0E0E4E2F0E0828118
:100EB000806812968C931297E981FA818381813040
:100EC000A1F4A4E2B0E0E981FA81838181708170AC
:100ED000982F9295990F907E13968C9113978F7DF2
:100EE000892B13968C93139718C0E981FA8183811B
:100EF000882399F4A4E2B0E0E981FA8183818170CA
:100F00008170982F9295990F907E13968C911397DC
:100F10008F7D892B13968C931397E981FA818481B5
:100F20008823F9F4E4E2F0E082818F7D8283E4E2B9
:100F3000F0E0828180628283A0E5B0E0E0E5F0E04D
:100F40008081282FE981FA818581882F90E0880FA0
:100F5000991F82959295907F9827807F9827822B62
:100F60008C930F900F90CF91DF910895DF93CF93E3
:100F700000D00F92CDB7DEB78983A4E2B0E0E4E2FF
:100F8000F0E08381982F907E8981892B13968C9332
:100F9000A4E2B0E0E4E2F0E08281806412968C93F7
:100FA0001297E4E2F0E082818071882391F4A4E258
:100FB000B0E0E4E2F0E08281806112968C931297B7
:100FC000E4E2F0E0808191819B838A838A819B8126
:100FD00000C00F900F900F90CF91DF910895DF9395
:100FE000CF9300D00F92CDB7DEB789837B836A831E
:100FF000A4E2B0E0E4E2F0E08381982F907E898162
:10100000892B13968C93AFE5B0E0EFE5F0E080819B
:1010100080688C93A4E2B0E0E4E2F0E08281886032
:1010200012968C93A4E2B0E0E4E2F0E08281806466
:1010300012968C9312978A819B819093A001809342
:101040009F010F900F900F90CF91DF910895DF9344
:10105000CF9300D000D000D0CDB7DEB79A8389837C
:101060006B834C838B81282F30E03E832D838D81D1
:101070009E818330910509F451C02D813E81243039
:1010800031057CF48D819E818130910571F12D8136
:101090003E8122303105ACF58D819E810097D1F0E3
:1010A00081C02D813E812530310509F452C08D81EA
:1010B0009E81853091050CF43FC02D813E81263004
:1010C000310509F454C08D819E818730910509F462
:1010D0005DC068C08C818170E981FA81982F917020
:1010E00081818E7F892B81835DC08C818170E981B4
:1010F000FA818170982F990F81818D7F892B81834F
:1011000051C08C818170E981FA818170982F990F8B
:10111000990F81818B7F892B818344C08C81817061
:10112000E981FA818170982F990F990F990F818128
:10113000877F892B818336C08C818170E981FA8118
:101140008170982F9295907F81818F7E892B8183EA
:1011500029C08C818170E981FA818170982F9295E4
:10116000990F907E81818F7D892B81831BC08C811B
:101170008170E981FA818170982F9295990F990F6A
:10118000907C81818F7B892B81830CC08C818170C5
:10119000E981FA81982F97959927979581818F7783
:1011A000892B818326960FB6F894DEBF0FBECDBF84
:1011B000CF91DF910895DF93CF9300D000D000D07E
:1011C000CDB7DEB79A8389836B834C838B81282FBD
:1011D00030E03E832D838D819E818330910509F41B
:1011E00051C02D813E81243031057CF48D819E815A
:1011F0008130910571F12D813E8122303105ACF5B0
:101200008D819E810097D1F081C02D813E81253056
:10121000310509F452C08D819E81853091050CF411
:101220003FC02D813E812630310509F454C08D81A7
:101230009E818730910509F45DC068C08C81817002
:10124000E981FA81982F917082818E7F892B828328
:101250005DC08C818170E981FA818170982F990F2E
:1012600082818D7F892B828351C08C818170E9813D
:10127000FA818170982F990F990F82818B7F892B2A
:10128000828344C08C818170E981FA818170982FBA
:10129000990F990F990F8281877F892B828336C09E
:1012A0008C818170E981FA818170982F9295907F6D
:1012B00082818F7E892B828329C08C818170E98114
:1012C000FA818170982F9295990F907E82818F7DFF
:1012D000892B82831BC08C818170E981FA818170A6
:1012E000982F9295990F990F907C82818F7B892BF3
:1012F00082830CC08C818170E981FA81982F979547
:101300009927979582818F77892B828326960FB6AE
:10131000F894DEBF0FBECDBFCF91DF910895DF936C
:10132000CF9300D000D000D0CDB7DEB79B838A83A7
:101330006C8319828C81282F30E03E832D838D8130
:101340009E818330910509F43EC02D813E81243079
:1013500031057CF48D819E818130910529F12D81AB
:101360003E81223031053CF58D819E810097B1F0A0
:1013700055C02D813E8125303105B1F18D819E8191
:10138000853091054CF12D813E8126303105A9F142
:101390008D819E8187309105D1F140C0EA81FB812A
:1013A0008081817089833AC0EA81FB818081869542
:1013B0008170898333C0EA81FB818081869586951F
:1013C000817089832BC0EA81FB8180818695869517
:1013D00086958170898322C0EA81FB818081829514
:1013E0008F70817089831AC0EA81FB818081829528
:1013F000869587708170898311C0EA81FB81808125
:1014000082958695869583708170898307C0EA816D
:10141000FB818081881F8827881F89838981269680
:101420000FB6F894DEBF0FBECDBFCF91DF91089508
:10143000DF93CF9300D00F92CDB7DEB79A83898325
:101440006B83E981FA818B8181830F900F900F90DC
:10145000CF91DF910895DF93CF9300D00F92CDB756
:10146000DEB79A8389836B83E981FA818B818283DA
:101470000F900F900F90CF91DF910895DF93CF934E
:1014800000D0CDB7DEB79A838983E981FA81808164
:101490000F900F90CF91DF910895DF93CF9300D0FD
:1014A00000D0CDB7DEB79A8389830E94EF0BA4E505
:1014B000B0E0E4E5F0E08781482FE981FA8180819E
:1014C000282F30E081E090E002C0880F991F2A9514
:1014D000E2F7842B17968C931797E981FA81808124
:1014E000282F30E03C832B838B819C8186309105B3
:1014F00061F02B813C812730310519F18B819C8172
:101500008530910509F441C066C0A4E5B0E0E4E58A
:10151000F0E0818111968C93A4E5B0E0E4E5F0E081
:101520009181E981FA818181892B11968C931197A0
:10153000E981FA81828193819093A2018093A10134
:101540004AC0A4E5B0E0E4E5F0E081818171119644
:101550008C93A4E5B0E0E4E5F0E08181282FE981F7
:10156000FA818181882F90E0880F991F880F991F39
:10157000822B11968C931197E981FA818281938154
:101580009093A4018093A30126C0A4E5B0E0E4E514
:10159000F0E0808181718C93A4E5B0E0E4E5F0E0B7
:1015A0008081282FE981FA818181882F90E002973C
:1015B0000024969587950794969587950794982F7C
:1015C000802D822B8C93E981FA8182819381909383
:1015D000A6018093A5010F900F900F900F90CF91CF
:1015E000DF910895DF93CF9300D000D0CDB7DEB761
:1015F0009A838983E981FA818081282F30E03C83B6
:101600002B838B819C818630910559F02B813C8105
:1016100027303105F9F08B819C818530910599F156
:101620004AC0A4E5B0E0E4E5F0E08781482FE98115
:10163000FA818081282F30E081E090E0022E02C004
:10164000880F991F0A94E2F78095842317968C934C
:10165000179731C0A4E5B0E0E4E5F0E08781482FBA
:10166000E981FA818081282F30E081E090E0022E2C
:1016700002C0880F991F0A94E2F780958423179679
:101680008C93179718C0A4E5B0E0E4E5F0E08781FB
:10169000482FE981FA818081282F30E081E090E0B5
:1016A000022E02C0880F991F0A94E2F780958423C6
:1016B00017968C9317970F900F900F900F90CF91D4
:1016C000DF9108951F920F920FB60F9211242F935E
:1016D0003F934F935F936F937F938F939F93AF93BA
:1016E000BF93EF93FF93DF93CF93CDB7DEB70E9405
:1016F000FD0BE091A101F091A2010995CF91DF913D
:10170000FF91EF91BF91AF919F918F917F916F91D9
:101710005F914F913F912F910F900FBE0F901F90AF
:1017200018951F920F920FB60F9211242F933F938B
:101730004F935F936F937F938F939F93AF93BF93D9
:10174000EF93FF93DF93CF93CDB7DEB70E94FD0BEE
:10175000E091A301F091A4010995CF91DF91FF9150
:10176000EF91BF91AF919F918F917F916F915F9119
:101770004F913F912F910F900FBE0F901F90189592
:101780001F920F920FB60F9211242F933F934F93F6
:101790005F936F937F938F939F93AF93BF93EF93D9
:1017A000FF93DF93CF93CDB7DEB70E94FD0BE0919F
:1017B000A501F091A6010995CF91DF91FF91EF91DD
:1017C000BF91AF919F918F917F916F915F914F9159
:1017D0003F912F910F900FBE0F901F901895DF93A0
:1017E000CF93CDB7DEB7AFE5B0E0EFE5F0E08081B5
:1017F00080688C93CF91DF910895DF93CF93CDB71D
:10180000DEB7AFE5B0E0EFE5F0E080818F778C9355
:10181000CF91DF910895DF93CF9300D00F92CDB792
:10182000DEB79A8389836B8389819A816B8140E0DB
:101830000E9427080F900F900F90CF91DF9108958D
:10184000DF93CF93CDB7DEB762970FB6F894DEBFC4
:101850000FBECDBF988B8F87698B8F8598896989DB
:1018600040E00E9427088F85988969890E948F0926
:10187000882309F083C080E090E0A8E4B2E48B877D
:101880009C87AD87BE876B857C858D859E8520E096
:1018900030E04AE755E40E941F02DC01CB018F8350
:1018A0009887A987BA876F81788589859A8520E08E
:1018B00030E040E85FE30E94250488232CF481E0B7
:1018C00090E09E838D833FC06F81788589859A855E
:1018D00020E03FEF4FE757E40E94C50318164CF590
:1018E0006B857C858D859E8520E030E040E251E46B
:1018F0000E941F02DC01CB01BC01CD010E94490006
:10190000DC01CB019E838D830FC080E991E09C8335
:101910008B838B819C810197F1F79C838B838D81D5
:101920009E8101979E838D838D819E81009769F7AB
:1019300014C06F81788589859A850E944900DC01F1
:10194000CB019E838D838D819E819A83898389813A
:101950009A810197F1F79A8389838F85988969899C
:101960000E948F09882361F480919E01882341F4AD
:1019700081E080939E0181E08A8B03C010929E01DA
:101980001A8A8A8962960FB6F894DEBF0FBECDBF61
:10199000CF91DF910895DF93CF93CDB7DEB780E38A
:1019A00090E067E040E00E94270880E390E066E076
:1019B00040E00E94270880E390E065E040E00E945C
:1019C000270880E390E063E040E00E94270883E37B
:1019D00090E062E041E00E94270883E390E063E04A
:1019E00041E00E94270883E390E064E041E00E9428
:1019F000270883E390E065E041E00E942708CF914B
:101A0000DF910895DF93CF93CDB7DEB7AF970FB6D1
:101A1000F894DEBF0FBECDBF85E08B8B84E08C8B4E
:101A200083E08D8B82E08E8B87E08F8B86E0888FC2
:101A300085E0898F83E08A8FCE014B969CA78BA788
:101A4000EEE8F1E0FEA7EDA7F0E1FFA7EDA5FEA50A
:101A500000808DA59EA501969EA78DA7EBA5FCA550
:101A600000828BA59CA501969CA78BA79FA5915052
:101A70009FA7EFA5EE2351F71A8ACBC08A89282F9A
:101A800030E0CE014396FC01E20FF31F208183E397
:101A900090E0622F40E00E94DB08198A33C08989F8
:101AA000282F30E0CE014796FC01E20FF31F208182
:101AB00080E390E0622F0E94200C8F878F85813019
:101AC000F1F48A89282F30E08989482F50E0220FCD
:101AD000331F220F331FCE010196820F931F840FF5
:101AE000951FFC017A968081888B8889AF960FB606
:101AF000F894DEBF0FBECDBFCF91DF9108958989E5
:101B00008F5F898B8989853050F28A89282F30E050
:101B1000CE014396FC01E20FF31F208183E390E0A6
:101B2000622F41E00E94DB0880E090E0A0E2B1E497
:101B30008B879C87AD87BE876B857C858D859E85D1
:101B400020E030E04AE755E40E941F02DC01CB01AF
:101B50008F839887A987BA876F81788589859A85C9
:101B600020E030E040E85FE30E94250488232CF465
:101B700081E090E09E838D833FC06F817885898569
:101B80009A8520E03FEF4FE757E40E94C5031816FF
:101B90004CF56B857C858D859E8520E030E040E2AC
:101BA00051E40E941F02DC01CB01BC01CD010E9467
:101BB0004900DC01CB019E838D830FC080E991E059
:101BC0009C838B838B819C810197F1F79C838B8312
:101BD0008D819E8101979E838D838D819E8100974B
:101BE00069F714C06F81788589859A850E944900BC
:101BF000DC01CB019E838D838D819E819A838983B5
:101C000089819A810197F1F79A8389838A898F5F05
:101C10008A8B8A89853008F431CF2ECFDF93CF931A
:101C200000D000D000D0CDB7DEB79A8389836B8314
:101C30004C8389819A816C8141E00E9427088B81C5
:101C4000282F30E03E832D838D819E81009761F0A7
:101C50002D813E812130310569F489819A816C8121
:101C600041E00E94DB0806C089819A816C8140E0D6
:101C70000E94DB0826960FB6F894DEBF0FBECDBFDC
:101C8000CF91DF910895DF93CF9300D000D000D0A3
:101C9000CDB7DEB782E00E94B6079E838D838D812B
:101CA0009E81CC01A0E0B0E0BC01CD010E94A9045E
:101CB000DC01CB01BC01CD0120E030E048EC52E476
:101CC0000E941F02DC01CB01BC01CD0120E030E00D
:101CD00040E251E40E941903DC01CB0189839A831D
:101CE000AB83BC8369817A818B819C810E9449008E
:101CF000DC01CB0126960FB6F894DEBF0FBECDBF38
:101D0000CF91DF9108950F931F93DF93CF93CDB7BA
:101D1000DEB7C754D0400FB6F894DEBF0FBECDBFBC
:101D2000FE01E95BFF4F808389E390E062E040E0E1
:101D30000E94DB08FE01ED5BFF4F80E090E0A0E237
:101D4000B1E480839183A283B3838E01015C1F4F32
:101D5000FE01ED5BFF4F608171818281938120E004
:101D600030E04AE755E40E941F02DC01CB01F80194
:101D700080839183A283B383FE01FF96608171818A
:101D80008281938120E030E040E85FE30E942504F7
:101D900088232CF481E090E09EAF8DAF46C0FE0119
:101DA000FF96608171818281938120E03FEF4FE750
:101DB00057E40E94C503181664F5FE01ED5BFF4F62
:101DC000608171818281938120E030E040E251E4C2
:101DD0000E941F02DC01CB01BC01CD010E94490021
:101DE000DC01CB019EAF8DAF0FC080E991E09CAFCD
:101DF0008BAF8BAD9CAD0197F1F79CAF8BAF8DADE9
:101E00009EAD01979EAF8DAF8DAD9EAD009769F7EA
:101E100016C0FE01FF9660817181828193810E94CC
:101E20004900DC01CB019EAF8DAF8DAD9EAD9AAF69
:101E300089AF89AD9AAD0197F1F79AAF89AFFE01ED
:101E4000E95BFF4F8081882F90E0807190709595BD
:101E50008795959587959595879595958795282F3D
:101E600086E390E060E0422F0E94DB08FE01E95B20
:101E7000FF4F8081882F90E08072907095958795B4
:101E8000959587959595879595958795959587953A
:101E9000282F86E390E061E0422F0E94DB08FE01DC
:101EA000E95BFF4F8081882F90E080749070082E4E
:101EB000892F000C881F990B000C881F991F282F51
:101EC00086E390E062E0422F0E94DB08FE01E95BBE
:101ED000FF4F8081282F221F2227221F86E390E0B8
:101EE00064E0422F0E94DB0889E390E062E041E079
:101EF0000E94DB0880E090E0A0E2B1E48DAB9EABF5
:101F0000AFABB8AF6DA97EA98FA998AD20E030E046
:101F10004AE755E40E941F02DC01CB0189AB9AAB72
:101F2000ABABBCAB69A97AA98BA99CA920E030E036
:101F300040E85FE30E94250488232CF481E090E0D0
:101F400098AB8FA73FC069A97AA98BA99CA920E06B
:101F50003FEF4FE757E40E94C50318164CF56DA9F3
:101F60007EA98FA998AD20E030E040E251E40E94C4
:101F70001F02DC01CB01BC01CD010E944900DC0144
:101F8000CB0198AB8FA70FC080E991E09EA78DA7EA
:101F90008DA59EA50197F1F79EA78DA78FA598A95E
:101FA000019798AB8FA78FA598A9009769F714C0E0
:101FB00069A97AA98BA99CA90E944900DC01CB01DF
:101FC00098AB8FA78FA598A99CA78BA78BA59CA53D
:101FD0000197F1F79CA78BA789E390E062E040E0CE
:101FE0000E94DB0880E090E0A0E2B1E48FA398A714
:101FF000A9A7BAA76FA178A589A59AA520E030E086
:102000004AE755E40E941F02DC01CB018BA39CA38D
:10201000ADA3BEA36BA17CA18DA19EA120E030E069
:1020200040E85FE30E94250488232CF481E090E0DF
:102030009AA389A33FC06BA17CA18DA19EA120E0A2
:102040003FEF4FE757E40E94C50318164CF56FA108
:1020500078A589A59AA520E030E040E251E40E94ED
:102060001F02DC01CB01BC01CD010E944900DC0153
:10207000CB019AA389A30FC080E991E098A38F8F29
:102080008F8D98A10197F1F798A38F8F89A19AA1BD
:1020900001979AA389A389A19AA1009769F714C00F
:1020A0006BA17CA18DA19EA10E944900DC01CB0106
:1020B0009AA389A389A19AA19E8F8D8F8D8D9E8DC4
:1020C0000197F1F79E8F8D8FFE01E95BFF4F8081B5
:1020D000282F217086E390E060E0422F0E94DB0809
:1020E000FE01E95BFF4F8081882F90E08270907045
:1020F00095958795282F86E390E061E0422F0E9416
:10210000DB08FE01E95BFF4F8081882F90E084703F
:1021100090709595879595958795282F86E390E003
:1021200062E0422F0E94DB08FE01E95BFF4F8081E5
:10213000882F90E0887090709595879595958795F4
:1021400095958795282F86E390E064E0422F0E94C2
:10215000DB0889E390E062E041E00E94DB0880E078
:1021600090E0A0E2B1E4898F9A8FAB8FBC8F698D2C
:102170007A8D8B8D9C8D20E030E04AE755E40E94FB
:102180001F02DC01CB018D8B9E8BAF8BB88F6D89CD
:102190007E898F89988D20E030E040E85FE30E94DF
:1021A000250488232CF481E090E09C8B8B8B3FC02E
:1021B0006D897E898F89988D20E03FEF4FE757E446
:1021C0000E94C50318164CF5698D7A8D8B8D9C8DF8
:1021D00020E030E040E251E40E941F02DC01CB012C
:1021E000BC01CD010E944900DC01CB019C8B8B8B93
:1021F0000FC080E991E09A8B898B89899A89019730
:10220000F1F79A8B898B8B899C8901979C8B8B8B9F
:102210008B899C89009769F714C06D897E898F89A5
:10222000988D0E944900DC01CB019C8B8B8B8B89A4
:102230009C89988B8F878F8598890197F1F7988B68
:102240008F8789E390E062E040E00E94DB0880E055
:1022500090E0A8E4B2E48B879C87AD87BE876B854E
:102260007C858D859E8520E030E04AE755E40E941C
:102270001F02DC01CB018F839887A987BA876F8102
:10228000788589859A8520E030E040E85FE30E9408
:10229000250488232CF481E090E09E838D833FC049
:1022A0006F81788589859A8520E03FEF4FE757E475
:1022B0000E94C50318164CF56B857C858D859E851F
:1022C00020E030E040E251E40E941F02DC01CB013B
:1022D000BC01CD010E944900DC01CB019E838D83AE
:1022E0000FC080E991E09C838B838B819C81019757
:1022F000F1F79C838B838D819E8101979E838D83D3
:102300008D819E81009769F714C06F8178858985DA
:102310009A850E944900DC01CB019E838D838D81CB
:102320009E819A83898389819A810197F1F79A83A3
:102330008983C95BDF4F0FB6F894DEBF0FBECDBFF8
:10234000CF91DF911F910F910895DF93CF93CDB778
:10235000DEB76C970FB6F894DEBF0FBECDBF80E03E
:1023600090E0A0EFB1E4898F9A8FAB8FBC8F698D1D
:102370007A8D8B8D9C8D20E030E04AE755E40E94F9
:102380001F02DC01CB018D8B9E8BAF8BB88F6D89CB
:102390007E898F89988D20E030E040E85FE30E94DD
:1023A000250488232CF481E090E09C8B8B8B3FC02C
:1023B0006D897E898F89988D20E03FEF4FE757E444
:1023C0000E94C50318164CF5698D7A8D8B8D9C8DF6
:1023D00020E030E040E251E40E941F02DC01CB012A
:1023E000BC01CD010E944900DC01CB019C8B8B8B91
:1023F0000FC080E991E09A8B898B89899A8901972E
:10240000F1F79A8B898B8B899C8901979C8B8B8B9D
:102410008B899C89009769F714C06D897E898F89A3
:10242000988D0E944900DC01CB019C8B8B8B8B89A2
:102430009C89988B8F878F8598890197F1F7988B66
:102440008F8789E390E063E041E00E94270889E3F9
:1024500090E062E041E00E94270880E090E0A0EA7E
:10246000B1E48B879C87AD87BE876B857C858D8526
:102470009E8520E030E04AE755E40E941F02DC011F
:10248000CB018F839887A987BA876F8178858985E3
:102490009A8520E030E040E85FE30E94250488232D
:1024A0002CF481E090E09E838D833FC06F8178851E
:1024B00089859A8520E03FEF4FE757E40E94C503E6
:1024C00018164CF56B857C858D859E8520E030E067
:1024D00040E251E40E941F02DC01CB01BC01CD01AE
:1024E0000E944900DC01CB019E838D830FC080E9EF
:1024F00091E09C838B838B819C810197F1F79C8376
:102500008B838D819E8101979E838D838D819E819A
:10251000009769F714C06F81788589859A850E9434
:102520004900DC01CB019E838D838D819E819A833E
:10253000898389819A810197F1F79A83898386E358
:1025400090E060E041E00E94270886E390E061E0CF
:1025500041E00E94270886E390E062E041E00E94AB
:10256000270886E390E064E041E00E94270883E3C7
:102570000E94CF1282E30E94CF1288E20E94CF1203
:102580008CE00E94CF1281E00E94CF126C960FB6B1
:10259000F894DEBF0FBECDBFCF91DF910895DF93DA
:1025A000CF93CDB7DEB72F970FB6F894DEBF0FBE2F
:1025B000CDBF8F8789E390E063E040E00E94DB08B5
:1025C00080E090E0A0E8BFE38B879C87AD87BE8763
:1025D0006B857C858D859E8520E030E04AE755E45B
:1025E0000E941F02DC01CB018F839887A987BA87DD
:1025F0006F81788589859A8520E030E040E85FE347
:102600000E94250488232CF481E090E09E838D8332
:102610003FC06F81788589859A8520E03FEF4FE73D
:1026200057E40E94C50318164CF56B857C858D8593
:102630009E8520E030E040E251E40E941F02DC0170
:10264000CB01BC01CD010E944900DC01CB019E837E
:102650008D830FC080E991E09C838B838B819C816B
:102660000197F1F79C838B838D819E8101979E83D7
:102670008D838D819E81009769F714C06F81788565
:1026800089859A850E944900DC01CB019E838D8358
:102690008D819E819A83898389819A810197F1F73F
:1026A0009A8389838F850E94830E2F960FB6F894A4
:1026B000DEBF0FBECDBFCF91DF910895DF93CF93E3
:1026C0000F92CDB7DEB7898389E390E063E041E004
:1026D0000E94DB0889810E94830E0F90CF91DF91C9
:1026E0000895DF93CF9300D0CDB7DEB79A83898367
:1026F0000AC0E981FA8180810E945E1389819A81F2
:1027000001969A838983E981FA818081882F90E0FC
:10271000009779F70F900F90CF91DF910895DF9395
:10272000CF93CDB7DEB762970FB6F894DEBF0FBE7A
:10273000CDBF9A8B898B89899A899E012F5F3F4FE4
:10274000B9014AE050E00E94121FCE0101960E949A
:10275000711362960FB6F894DEBF0FBECDBFCF9156
:10276000DF910895DF93CF9300D000D000D0CDB794
:10277000DEB78D836E8380E8898380EC8A8384E969
:102780008B8384ED8C838D81282F30E0CE010196E0
:10279000FC01E20FF31F90818E81890F0E94CF12FE
:1027A00026960FB6F894DEBF0FBECDBFCF91DF9156
:1027B0000895DF93CF93CDB7DEB781E00E94CF12AB
:1027C000CF91DF9108950F931F93DF93CF93CDB7F0
:1027D000DEB7CB5AD0400FB6F894DEBF0FBECDBFE8
:1027E000FE01E755FF4F808386E390E060E041E023
:1027F0000E94270886E390E061E041E00E942708FC
:1028000086E390E062E041E00E94270886E390E0E2
:1028100064E041E00E94270886E390E060E040E049
:102820000E94DB0886E390E061E040E00E94DB0864
:1028300086E390E062E040E00E94DB0886E390E0FF
:1028400064E040E00E94DB0889E390E063E041E05F
:102850000E94270889E390E062E041E00E94270897
:1028600086E390E065E041E00E94270886E390E07F
:1028700066E041E00E942708FE01E755FF4F808196
:10288000282F30E0C655DF4F39832883CA5AD040FD
:10289000C655DF4F88819981CA5AD0408130910551
:1028A00009F45CC2C655DF4FE881F981CA5AD040AD
:1028B000E230F1055CF4C655DF4F28813981CA5AF0
:1028C000D04021153105C1F00C94111CC655DF4FC5
:1028D00088819981CA5AD0408230910509F470C428
:1028E000C655DF4FE881F981CA5AD040E330F1057F
:1028F00009F429C60C94111C89E390E063E040E0E0
:102900000E94DB08FE01EB55FF4F80E090E0A0E065
:10291000B0E480839183A283B3838E010F551F4F50
:10292000FE01EB55FF4F608171818281938120E030
:1029300030E04AE755E40E941F02DC01CB01F801B8
:1029400080839183A283B383FE01EF55FF4F6081A3
:1029500071818281938120E030E040E85FE30E9452
:102960002504882344F4FE01E156FF4F81E090E006
:102970009183808364C0FE01EF55FF4F60817181B8
:102980008281938120E03FEF4FE757E40E94C50327
:1029900018160CF043C0FE01EB55FF4F60817181AA
:1029A0008281938120E030E040E251E40E941F02E6
:1029B000DC01CB018E0101561F4FBC01CD010E94ED
:1029C0004900DC01CB01F801918380831FC0FE0127
:1029D000E356FF4F80E991E091838083FE01E35647
:1029E000FF4F808191810197F1F7FE01E356FF4F80
:1029F00091838083DE01A156BF4FFE01E156FF4F58
:102A000080819181019711969C938E93FE01E156EE
:102A1000FF4F808191810097D1F627C08E0101562A
:102A20001F4FFE01EF55FF4F6081718182819381BD
:102A30000E944900DC01CB01F80191838083DE0113
:102A4000A556BF4FFE01E156FF4F808191818D93C6
:102A50009C93FE01E556FF4F808191810197F1F72C
:102A6000FE01E556FF4F9183808389E390E062E0A9
:102A700041E00E94DB08FE01E956FF4F80E090E054
:102A8000A0E0B0E480839183A283B3838E010D56CE
:102A90001F4FFE01E956FF4F608171818281938152
:102AA00020E030E04AE755E40E941F02DC01CB0140
:102AB000F80180839183A283B383FE01ED56FF4F1B
:102AC000608171818281938120E030E040E85FE3A2
:102AD0000E942504882344F4FE01EF56FF4F81E055
:102AE00090E09183808364C0FE01ED56FF4F6081CA
:102AF00071818281938120E03FEF4FE757E40E948C
:102B0000C50318160CF043C0FE01E956FF4F608163
:102B100071818281938120E030E040E251E40E94A3
:102B20001F02DC01CB018E010F561F4FBC01CD01EE
:102B30000E944900DC01CB01F801918380831FC012
:102B4000FE01E157FF4F80E991E091838083FE0110
:102B5000E157FF4F808191810197F1F7FE01E15725
:102B6000FF4F91838083DE01AF56BF4FFE01EF56CA
:102B7000FF4F80819181019711969C938E93FE0166
:102B8000EF56FF4F808191810097D1F627C08E01CB
:102B90000F561F4FFE01ED56FF4F608171818281FC
:102BA00093810E944900DC01CB01F801918380836D
:102BB000DE01A357BF4FFE01EF56FF4F8081918189
:102BC0008D939C93FE01E357FF4F80819181019784
:102BD000F1F7FE01E357FF4F9183808386E390E096
:102BE00065E041E00E94DB08FE01E757FF4F80E00F
:102BF00090E0A0E0B0E480839183A283B3838E0150
:102C00000B571F4FFE01E757FF4F60817181828193
:102C1000938120E030E04AE755E40E941F02DC0186
:102C2000CB01F80180839183A283B383FE01EB572C
:102C3000FF4F608171818281938120E030E040E824
:102C40005FE30E942504882344F4FE01ED57FF4F03
:102C500081E090E09183808364C0FE01EB57FF4FD9
:102C6000608171818281938120E03FEF4FE757E4DB
:102C70000E94C50318160CF043C0FE01E757FF4F32
:102C8000608171818281938120E030E040E251E4F3
:102C90000E941F02DC01CB018E010D571F4FBC01AA
:102CA000CD010E944900DC01CB01F80191838083B2
:102CB0001FC0FE01EF57FF4F80E991E091838083B1
:102CC000FE01EF57FF4F808191810197F1F7FE01DF
:102CD000EF57FF4F91838083DE01AD57BF4FFE0159
:102CE000ED57FF4F80819181019711969C938E93B0
:102CF000FE01ED57FF4F808191810097D1F627C0EB
:102D00008E010D571F4FFE01EB57FF4F6081718100
:102D1000828193810E944900DC01CB01F8019183FB
:102D20008083DE01A158BF4FFE01ED57FF4F808128
:102D300091818D939C93FE01E158FF4F8081918199
:102D40000197F1F7FE01E158FF4F9183808386E3FD
:102D500090E066E041E00E94DB0863C589E390E013
:102D600063E040E00E94DB08FE01E558FF4F80E091
:102D700090E0A0E0B0E480839183A283B3838E01CE
:102D800009581F4FFE01E558FF4F60817181828114
:102D9000938120E030E04AE755E40E941F02DC0105
:102DA000CB01F80180839183A283B383FE01E958AC
:102DB000FF4F608171818281938120E030E040E8A3
:102DC0005FE30E942504882344F4FE01EB58FF4F83
:102DD00081E090E09183808364C0FE01E958FF4F59
:102DE000608171818281938120E03FEF4FE757E45A
:102DF0000E94C50318160CF043C0FE01E558FF4FB2
:102E0000608171818281938120E030E040E251E471
:102E10000E941F02DC01CB018E010B581F4FBC0129
:102E2000CD010E944900DC01CB01F8019183808330
:102E30001FC0FE01ED58FF4F80E991E09183808330
:102E4000FE01ED58FF4F808191810197F1F7FE015E
:102E5000ED58FF4F91838083DE01AB58BF4FFE01D9
:102E6000EB58FF4F80819181019711969C938E932F
:102E7000FE01EB58FF4F808191810097D1F627C06A
:102E80008E010B581F4FFE01E958FF4F6081718181
:102E9000828193810E944900DC01CB01F80191837A
:102EA0008083DE01AF58BF4FFE01EB58FF4F80819A
:102EB00091818D939C93FE01EF58FF4F808191810A
:102EC0000197F1F7FE01EF58FF4F9183808389E36B
:102ED00090E062E040E00E94DB08FE01E359FF4F12
:102EE00080E090E0A0E0B0E480839183A283B3838C
:102EF0008E0107591F4FFE01E359FF4F6081718119
:102F00008281938120E030E04AE755E40E941F026D
:102F1000DC01CB01F80180839183A283B383FE019E
:102F2000E759FF4F608171818281938120E030E019
:102F300040E85FE30E942504882344F4FE01E95938
:102F4000FF4F81E090E09183808364C0FE01E759E8
:102F5000FF4F608171818281938120E03FEF4FE7D5
:102F600057E40E94C50318160CF043C0FE01E35954
:102F7000FF4F608171818281938120E030E040E2E7
:102F800051E40E941F02DC01CB018E0109591F4F41
:102F9000BC01CD010E944900DC01CB01F801918305
:102FA00080831FC0FE01EB59FF4F80E991E09183C0
:102FB0008083FE01EB59FF4F808191810197F1F7EA
:102FC000FE01EB59FF4F91838083DE01A959BF4F6A
:102FD000FE01E959FF4F80819181019711969C93E1
:102FE0008E93FE01E959FF4F808191810097D1F6C0
:102FF00027C08E0109591F4FFE01E759FF4F60811D
:103000007181828193810E944900DC01CB01F8012A
:1030100091838083DE01AD59BF4FFE01E959FF4F17
:10302000808191818D939C93FE01ED59FF4F8081AA
:1030300091810197F1F7FE01ED59FF4F9183808354
:1030400086E390E065E041E00E94DB08FE01E15A82
:10305000FF4F80E090E0A0E0B0E480839183A28302
:10306000B3838E01055A1F4FFE01E15AFF4F608165
:1030700071818281938120E030E04AE755E40E942B
:103080001F02DC01CB01F80180839183A283B3830B
:10309000FE01E55AFF4F608171818281938120E0BA
:1030A00030E040E85FE30E942504882344F4FE01F9
:1030B000E75AFF4F81E090E09183808364C0FE0176
:1030C000E55AFF4F608171818281938120E03FEF5B
:1030D0004FE757E40E94C50318160CF043C0FE01E9
:1030E000E15AFF4F608171818281938120E030E05D
:1030F00040E251E40E941F02DC01CB018E01075A1D
:103100001F4FBC01CD010E944900DC01CB01F80139
:10311000918380831FC0FE01E95AFF4F80E991E04F
:1031200091838083FE01E95AFF4F8081918101974D
:10313000F1F7FE01E95AFF4F91838083DE01A75A20
:10314000BF4FFE01E75AFF4F808191810197119691
:103150009C938E93FE01E75AFF4F808191810097E7
:10316000D1F627C08E01075A1F4FFE01E55AFF4FC7
:1031700060817181828193810E944900DC01CB01D1
:10318000F80191838083DE01AB5ABF4FFE01E75AFD
:10319000FF4F808191818D939C93FE01EB5AFF4FED
:1031A000808191810197F1F7FE01EB5AFF4F9183E6
:1031B000808386E390E066E041E00E94DB0831C353
:1031C00089E390E063E040E00E94DB08FE01EF5AF3
:1031D000FF4F80E090E0A0E0B0E480839183A28381
:1031E000B3838E01035B1F4FFE01EF5AFF4F6081D7
:1031F00071818281938120E030E04AE755E40E94AA
:103200001F02DC01CB01F80180839183A283B38389
:10321000FE01E35BFF4F608171818281938120E039
:1032200030E040E85FE30E942504882344F4FE0177
:10323000E55BFF4F81E090E09183808364C0FE01F5
:10324000E35BFF4F608171818281938120E03FEFDA
:103250004FE757E40E94C50318160CF043C0FE0167
:10326000EF5AFF4F608171818281938120E030E0CD
:1032700040E251E40E941F02DC01CB018E01055B9C
:103280001F4FBC01CD010E944900DC01CB01F801B8
:10329000918380831FC0FE01E75BFF4F80E991E0CF
:1032A00091838083FE01E75BFF4F808191810197CD
:1032B000F1F7FE01E75BFF4F91838083DE01A55BA1
:1032C000BF4FFE01E55BFF4F808191810197119611
:1032D0009C938E93FE01E55BFF4F80819181009767
:1032E000D1F627C08E01055B1F4FFE01E35BFF4F48
:1032F00060817181828193810E944900DC01CB0150
:10330000F80191838083DE01A95BBF4FFE01E55B7D
:10331000FF4F808191818D939C93FE01E95BFF4F6C
:10332000808191810197F1F7FE01E95BFF4F918365
:10333000808389E390E062E040E00E94DB08FE01C8
:10334000ED5BFF4F80E090E0A0E0B0E480839183EC
:10335000A283B3838E01015C1F4FFE01ED5BFF4F23
:10336000608171818281938120E030E04AE755E4F9
:103370000E941F02DC01CB01F80180839183A283AC
:10338000B383FE01FF96608171818281938120E089
:1033900030E040E85FE30E94250488232CF481E0BC
:1033A00090E09EAF8DAF46C0FE01FF9660817181B7
:1033B0008281938120E03FEF4FE757E40E94C503ED
:1033C000181664F5FE01ED5BFF4F6081718182810B
:1033D000938120E030E040E251E40E941F02DC01D2
:1033E000CB01BC01CD010E944900DC01CB019EAFA5
:1033F0008DAF0FC080E991E09CAF8BAF8BAD9CADE2
:103400000197F1F79CAF8BAF8DAD9EAD01979EAF4D
:103410008DAF8DAD9EAD009769F716C0FE01FF968A
:1034200060817181828193810E944900DC01CB011E
:103430009EAF8DAF8DAD9EAD9AAF89AF89AD9AAD80
:103440000197F1F79AAF89AF86E390E065E040E03D
:103450000E94DB0880E090E0A0E0B0E48DAB9EAB82
:10346000AFABB8AF6DA97EA98FA998AD20E030E0D1
:103470004AE755E40E941F02DC01CB0189AB9AABFD
:10348000ABABBCAB69A97AA98BA99CA920E030E0C1
:1034900040E85FE30E94250488232CF481E090E05B
:1034A00098AB8FA73FC069A97AA98BA99CA920E0F6
:1034B0003FEF4FE757E40E94C50318164CF56DA97E
:1034C0007EA98FA998AD20E030E040E251E40E944F
:1034D0001F02DC01CB01BC01CD010E944900DC01CF
:1034E000CB0198AB8FA70FC080E991E09EA78DA775
:1034F0008DA59EA50197F1F79EA78DA78FA598A9E9
:10350000019798AB8FA78FA598A9009769F714C06A
:1035100069A97AA98BA99CA90E944900DC01CB0169
:1035200098AB8FA78FA598A99CA78BA78BA59CA5C7
:103530000197F1F79CA78BA786E390E066E041E056
:103540000E94DB086EC189E390E063E040E00E94E6
:10355000DB0880E090E0A0E0B0E48FA398A7A9A7E3
:10356000BAA76FA178A589A59AA520E030E04AE71F
:1035700055E40E941F02DC01CB018BA39CA3ADA3E9
:10358000BEA36BA17CA18DA19EA120E030E040E80C
:103590005FE30E94250488232CF481E090E09AA345
:1035A00089A33FC06BA17CA18DA19EA120E03FEF2C
:1035B0004FE757E40E94C50318164CF56FA178A594
:1035C00089A59AA520E030E040E251E40E941F0264
:1035D000DC01CB01BC01CD010E944900DC01CB0123
:1035E0009AA389A30FC080E991E098A38F8F8F8D54
:1035F00098A10197F1F798A38F8F89A19AA10197BC
:103600009AA389A389A19AA1009769F714C06BA115
:103610007CA18DA19EA10E944900DC01CB019AA34F
:1036200089A389A19AA19E8F8D8F8D8D9E8D0197E3
:10363000F1F79E8F8D8F89E390E062E040E00E9479
:10364000DB0880E090E0A0E0B0E4898F9A8FAB8F38
:10365000BC8F698D7A8D8B8D9C8D20E030E04AE7A0
:1036600055E40E941F02DC01CB018D8B9E8BAF8B3A
:10367000B88F6D897E898F89988D20E030E040E891
:103680005FE30E94250488232CF481E090E09C8B6A
:103690008B8B3FC06D897E898F89988D20E03FEFAD
:1036A0004FE757E40E94C50318164CF5698D7A8DD3
:1036B0008B8D9C8D20E030E040E251E40E941F029F
:1036C000DC01CB01BC01CD010E944900DC01CB0132
:1036D0009C8B8B8B0FC080E991E09A8B898B8989B9
:1036E0009A890197F1F79A8B898B8B899C8901972D
:1036F0009C8B8B8B8B899C89009769F714C06D8993
:103700007E898F89988D0E944900DC01CB019C8BBA
:103710008B8B8B899C89988B8F878F859889019754
:10372000F1F7988B8F8786E390E065E040E00E9498
:10373000DB0880E090E0A0E0B0E48B879C87AD8759
:10374000BE876B857C858D859E8520E030E04AE7CD
:1037500055E40E941F02DC01CB018F839887A98763
:10376000BA876F81788589859A8520E030E040E8C6
:103770005FE30E94250488232CF481E090E09E837F
:103780008D833FC06F81788589859A8520E03FEFE2
:103790004FE757E40E94C50318164CF56B857C85EE
:1037A0008D859E8520E030E040E251E40E941F02BA
:1037B000DC01CB01BC01CD010E944900DC01CB0141
:1037C0009E838D830FC080E991E09C838B838B81E6
:1037D0009C810197F1F79C838B838D819E8101975A
:1037E0009E838D838D819E81009769F714C06F81C0
:1037F000788589859A850E944900DC01CB019E83EA
:103800008D838D819E819A83898389819A81019795
:10381000F1F79A83898386E390E066E040E00E94B6
:10382000DB08C555DF4F0FB6F894DEBF0FBECDBF26
:10383000CF91DF911F910F910895DF93CF9300D027
:103840000F92CDB7DEB789838981282F30E03B8383
:103850002A838A819B818430910509F4ABC02A8137
:103860003B8125303105ECF48A819B8181309105C3
:1038700009F455C02A813B81223031052CF48A811C
:103880009B81009799F12BC12A813B812230310520
:1038900009F45EC08A819B818330910509F471C06F
:1038A0001EC12A813B812730310509F4CEC08A81AF
:1038B0009B81883091056CF42A813B81253031054C
:1038C00009F491C08A819B818630910509F4A4C0D6
:1038D00006C12A813B812830310509F4CFC08A8195
:1038E0009B818930910509F4E2C0F9C086E390E03C
:1038F00060E040E00E94DB0886E390E061E040E0A9
:103900000E94DB0886E390E062E040E00E94DB0872
:1039100086E390E064E040E00E94DB08E0C086E3DC
:1039200090E060E041E00E94DB0886E390E061E027
:1039300040E00E94DB0886E390E062E040E00E9405
:10394000DB0886E390E064E040E00E94DB08C7C04B
:1039500086E390E060E040E00E94DB0886E390E0D0
:1039600061E041E00E94DB0886E390E062E040E035
:103970000E94DB0886E390E064E040E00E94DB0800
:10398000AEC086E390E060E041E00E94DB0886E3A1
:1039900090E061E041E00E94DB0886E390E062E0B5
:1039A00040E00E94DB0886E390E064E040E00E9493
:1039B000DB0895C086E390E060E040E00E94DB0811
:1039C00086E390E061E040E00E94DB0886E390E05F
:1039D00062E041E00E94DB0886E390E064E040E0C2
:1039E0000E94DB087CC086E390E060E041E00E943A
:1039F000DB0886E390E061E040E00E94DB0886E3BC
:103A000090E062E041E00E94DB0886E390E064E041
:103A100040E00E94DB0863C086E390E060E040E0A5
:103A20000E94DB0886E390E061E041E00E94DB0851
:103A300086E390E062E041E00E94DB0886E390E0EC
:103A400064E040E00E94DB084AC086E390E060E06A
:103A500041E00E94DB0886E390E061E041E00E94E3
:103A6000DB0886E390E062E041E00E94DB0886E349
:103A700090E064E040E00E94DB0831C086E390E023
:103A800060E040E00E94DB0886E390E061E040E017
:103A90000E94DB0886E390E062E040E00E94DB08E1
:103AA00086E390E064E041E00E94DB0818C086E312
:103AB00090E060E041E00E94DB0886E390E061E096
:103AC00040E00E94DB0886E390E062E040E00E9474
:103AD000DB0886E390E064E041E00E94DB080F90A1
:103AE0000F900F90CF91DF910895DF93CF93CDB7D3
:103AF000DEB76C970FB6F894DEBF0FBECDBF89E37B
:103B000090E061E046E00E940E0E80E090E0AAEFB7
:103B1000B4E4898F9A8FAB8FBC8F698D7A8D8B8D32
:103B20009C8D20E030E04AE755E40E941F02DC0152
:103B3000CB018D8B9E8BAF8BB88F6D897E898F89E2
:103B4000988D20E030E040E85FE30E942504882360
:103B50002CF481E090E09C8B8B8B3FC06D897E893B
:103B60008F89988D20E03FEF4FE757E40E94C5030F
:103B700018164CF5698D7A8D8B8D9C8D20E030E088
:103B800040E251E40E941F02DC01CB01BC01CD01E7
:103B90000E944900DC01CB019C8B8B8B0FC080E91C
:103BA00091E09A8B898B89899A890197F1F79A8B91
:103BB000898B8B899C8901979C8B8B8B8B899C89AA
:103BC000009769F714C06D897E898F89988D0E944E
:103BD0004900DC01CB019C8B8B8B8B899C89988B5A
:103BE0008F878F8598890197F1F7988B8F8789E365
:103BF00090E060E046E00E940E0E80E090E0AAEFC8
:103C0000B4E48B879C87AD87BE876B857C858D856B
:103C10009E8520E030E04AE755E40E941F02DC0167
:103C2000CB018F839887A987BA876F81788589852B
:103C30009A8520E030E040E85FE30E942504882375
:103C40002CF481E090E09E838D833FC06F81788566
:103C500089859A8520E03FEF4FE757E40E94C5032E
:103C600018164CF56B857C858D859E8520E030E0AF
:103C700040E251E40E941F02DC01CB01BC01CD01F6
:103C80000E944900DC01CB019E838D830FC080E937
:103C900091E09C838B838B819C810197F1F79C83BE
:103CA0008B838D819E8101979E838D838D819E81E3
:103CB000009769F714C06F81788589859A850E947D
:103CC0004900DC01CB019E838D838D819E819A8387
:103CD000898389819A810197F1F79A8389836C9608
:103CE0000FB6F894DEBF0FBECDBFCF91DF91089520
:103CF000DF93CF93CDB7DEB789E390E061E046E094
:103D00000E940E0ECF91DF910895DF93CF9300D0E4
:103D100000D0CDB7DEB787E0898385E79DE19C833E
:103D20008B8381E08A83CE0101960E944D0A0F9019
:103D30000F900F900F90CF91DF910895DF93CF9365
:103D400000D000D000D0CDB7DEB781E08D8387E012
:103D50008A8383E08983CE0101960E9427072696F5
:103D60000FB6F894DEBF0FBECDBFCF91DF9108959F
:103D7000DF93CF93CDB7DEB70E94A5110E94CB0C85
:103D80000E94851E0E949E1ECF91DF910895DF93B1
:103D9000CF9300D0CDB7DEB70E94B81E80E690E08A
:103DA0000E9471131A82198225E73DE181E0B90171
:103DB0000E94EF07F9CF2F923F924F925F926F923E
:103DC0007F928F929F92AF92BF92CF92DF92EF92AB
:103DD000FF920F931F93CF93DF93CDB7DEB7CA1B2C
:103DE000DB0B0FB6F894DEBF0FBECDBF09942A8857
:103DF000398848885F846E847D848C849B84AA84FF
:103E0000B984C884DF80EE80FD800C811B81AA818B
:103E1000B981CE0FD11D0FB6F894DEBF0FBECDBF56
:103E2000ED010895FB019F01E8944230C4F0453252
:103E3000B4F44A3029F497FB1EF4909581959F4F76
:103E4000642F77270E94431F805D8A330CF0895DC1
:103E50008193CB010097A1F716F45DE25193108294
:103E6000C9010C94331FDC01FC01672F719177238A
:103E7000E1F7329704C07C916D9370836291AE1725
:103E8000BF07C8F30895AA1BBB1B51E107C0AA1FB7
:103E9000BB1FA617B70710F0A61BB70B881F991FEB
:103EA0005A95A9F780959095BC01CD010895F89495
:023EB000FFCF42
:103EB200506F742056616C75653A20000000000056
:103EC20000000000000102020303030304040404CF
:103ED2000404040405050505050505050505050594
:103EE2000505050506060606060606060606060674
:103EF2000606060606060606060606060606060660
:103F02000606060607070707070707070707070743
:103F1200070707070707070707070707070707072F
:103F2200070707070707070707070707070707071F
:103F3200070707070707070707070707070707070F
:103F420007070707080808080808080808080808F3
:103F520008080808080808080808080808080808DF
:103F620008080808080808080808080808080808CF
:103F720008080808080808080808080808080808BF
:103F820008080808080808080808080808080808AF
:103F9200080808080808080808080808080808089F
:103FA200080808080808080808080808080808088F
:103FB200080808080808080808080808080808087F
:103FC200080808083132332B3435362D3738392A70
:103FD200303D632F54657A6B20376D7261000102A8
:0E3FE200034104050642070809432A00234450
:00000001FF
