:100000000C942A000C949C0B0C94D10B0C94060CB1
:100010000C9447000C9447000C94C90D0C944700B5
:100020000C9447000C9447000C9420120C94DD11A2
:100030000C94570C0C94DC140C9447000C9447005F
:100040000C9417070C9447000C9447000C9447003D
:100050000C94470011241FBECFE5D8E0DEBFCDBF12
:1000600011E0A0E6B0E0E2E1FCE702C005900D92ED
:10007000AA3DB107D9F712E0AAEDB1E001C01D9287
:10008000A434B107E1F70E94F13C0C94073E0C94B4
:100090000000EF92FF920F931F937B018C0120E0F1
:1000A00030E040E05FE40E94F50388238CF0C80153
:1000B000B70120E030E040E05FE40E94C1010E940F
:1000C00055049B01AC01205030404040504806C0D0
:1000D000C801B7010E9455049B01AC01B901CA01D6
:1000E0001F910F91FF90EF900895A0E0B0E0EBE733
:1000F000F0E00C949F3DDC012B01FA019C919230C1
:1001000008F439C1EB018881823008F433C194309E
:1001100069F4843009F02FC111969C91119789815F
:10012000981709F428C1A0E6B0E025C1843009F48D
:1001300021C18230A9F4923009F01DC19A01AD01AC
:1001400088E0EA010990AE01E90109929E0181501F
:10015000C1F7E201898111969C918923818308C1AD
:10016000923009F407C112962D903C901397EB0141
:100170008A819B811496AD90BD90CD90DC901797AD
:10018000EC80FD800E811F819101281B390BB90184
:1001900037FF04C066277727621B730B6032710537
:1001A0000CF061C0121613066CF537014801062EDB
:1001B00004C096948794779467940A94D2F721E0C8
:1001C00030E040E050E004C0220F331F441F551FB1
:1001D0006A95D2F721503040404050402E213F21B7
:1001E00040235123211531054105510521F021E01E
:1001F00030E040E050E079018A01E628F72808293C
:1002000019293CC0232BD1F1260E371E350146019A
:10021000062E04C096948794779467940A94D2F734
:1002200021E030E040E050E004C0220F331F441FC3
:10023000551F6A95D2F721503040404050402A2146
:100240003B214C215D21211531054105510521F04E
:1002500021E030E040E050E059016A01A628B728CB
:10026000C828D9280BC0821593052CF01C01AA249C
:10027000BB24650103C0EE24FF24870111969C91E5
:10028000D20111968C91981709F445C0992339F041
:10029000A80197012A193B094C095D0906C0A6016E
:1002A00095012E193F09400B510B57FD08C01182D3
:1002B0003382228224833583468357831DC081E0A5
:1002C00081833382228288279927DC01821B930B4A
:1002D000A40BB50B84839583A683B7830DC0220F2F
:1002E000331F441F551F24833583468357838281E0
:1002F000938101979383828324813581468157813D
:10030000DA01C9010197A109B1098F5F9F4FAF4F72
:10031000BF4328F30BC0918333822282EA0CFB1C7B
:100320000C1D1D1DE482F5820683178383E0808304
:10033000248135814681578157FF1AC0C901AA27F8
:1003400097FDA095BA2F81709070A070B0705695EF
:10035000479537952795822B932BA42BB52B848318
:100360009583A683B7838281938101969383828349
:10037000DF0101C0D201CD01CDB7DEB7E2E10C94BF
:10038000BB3DA0E2B0E0E7ECF1E00C94AB3D69834B
:100390007A838B839C832D833E834F835887E9E048
:1003A000EE2EF12CEC0EFD1ECE010196B7010E943F
:1003B00046068E010F5E1F4FCE010596B8010E94C2
:1003C00046068A8991E089278A8BC701B801AE0168
:1003D000475E5F4F0E9475000E947105A096E6E09F
:1003E0000C94C73DA0E2B0E0E8EFF1E00C94AB3D27
:1003F00069837A838B839C832D833E834F835887C5
:10040000F9E0EF2EF12CEC0EFD1ECE010196B701A6
:100410000E9446068E010F5E1F4FCE010596B80161
:100420000E944606C701B801AE01475E5F4F0E94B9
:1004300075000E947105A096E6E00C94C73DA0E20D
:10044000B0E0E5E2F2E00C949F3D69837A838B8310
:100450009C832D833E834F835887CE010196BE0136
:10046000675F7F4F0E944606CE010596BE016F5E14
:100470007F4F0E9446069985923088F089898230A4
:10048000C8F0943019F4823051F404C0843029F457
:10049000923081F480E690E0C6C0923049F420E0CA
:1004A0009A858A89981321E02A87CE010996BBC0D4
:1004B000823049F420E09A858A89981321E02A8BBA
:1004C000CE014196B0C02D843E844F8458886D88FB
:1004D0007E888F88988CEE24FF248701AA24BB2471
:1004E000650140E050E060E070E0E0E0F0E0C10174
:1004F00081709070892BE9F0E60CF71C081D191D1E
:100500009A01AB012A0D3B1D4C1D5D1D80E090E062
:10051000A0E0B0E0E614F7040805190520F481E036
:1005200090E0A0E0B0E0BA01A901480F591F6A1F8E
:100530007B1FAA0CBB1CCC1CDD1C97FE08C081E0F5
:1005400090E0A0E0B0E0A82AB92ACA2ADB2A3196B6
:10055000E032F10549F0660C771C881C991C569412
:10056000479437942794C3CFFA85EA892B893C892D
:100570008B859C85280F391F2E5F3F4F17C0CA01FE
:1005800081709070892B61F016950795F794E79428
:1005900080E090E0A0E0B0E8E82AF92A0A2B1B2BC3
:1005A00076956795579547952F5F3F4F77FDE7CF36
:1005B0000CC0440F551F661F771F17FD4160EE0CDE
:1005C000FF1C001F111F21503040403090E05907A0
:1005D00090E0690790E4790760F32B8F3C8FDB0193
:1005E000CA018F779070A070B07080349105A1051A
:1005F000B10561F447FD0AC0E114F10401051105DC
:1006000029F0405C5F4F6F4F7F4F40781A8EFE1786
:1006100011F081E08A8F4D8F5E8F6F8F78A383E01A
:10062000898FCE0149960E947105A096E2E10C9453
:10063000BB3DA8E1B0E0EFE1F3E00C94A73D698396
:100640007A838B839C832D833E834F835887B9E0C5
:10065000EB2EF12CEC0EFD1ECE010196B7010E948F
:1006600046068E010F5E1F4FCE010596B8010E940F
:1006700046062985223008F47EC03989323010F4CC
:10068000B8017CC08A859A8989278A87243011F02D
:10069000223031F4231709F06EC060E670E06EC0BE
:1006A000343039F41D861E861F86188A1C861B86E8
:1006B00004C0323021F484E08987B7015FC02B8504
:1006C0003C858B899C89281B390B3C872B87ED84C3
:1006D000FE840F851889AD88BE88CF88D88CEA142F
:1006E000FB040C051D0540F4EE0CFF1C001F111F40
:1006F000215030403C872B8720E030E040E050E044
:1007000080E090E0A0E0B0E460E070E0EA14FB0478
:100710000C051D0540F0282B392B4A2B5B2BEA18C2
:10072000FB080C091D09B695A79597958795EE0CC2
:10073000FF1C001F111F6F5F7F4F6F31710531F775
:10074000DA01C9018F779070A070B0708034910584
:10075000A105B10561F427FD0AC0E114F10401050A
:10076000110529F0205C3F4F4F4F5F4F20782D87B8
:100770003E874F87588BBE01675F7F4FCB010E943A
:1007800071056896EAE00C94C33DA8E1B0E0EBEC9B
:10079000F3E00C94AB3D69837A838B839C832D8338
:1007A0003E834F83588789E0E82EF12CEC0EFD1E26
:1007B000CE010196B7010E9446068E010F5E1F4FC3
:1007C000CE010596B8010E9446068985823040F028
:1007D0008989823028F0C701B8010E94BE0601C095
:1007E0008FEF6896E6E00C94C73DA8E1B0E0EBEF30
:1007F000F3E00C94AB3D69837A838B839C832D83D8
:100800003E834F83588789E0E82EF12CEC0EFD1EC5
:10081000CE010196B7010E9446068E010F5E1F4F62
:10082000CE010596B8010E9446068985823040F0C7
:100830008989823028F0C701B8010E94BE0601C034
:100840008FEF6896E6E00C94C73DA8E1B0E0EBE2DC
:10085000F4E00C94AB3D69837A838B839C832D8376
:100860003E834F83588789E0E82EF12CEC0EFD1E65
:10087000CE010196B7010E9446068E010F5E1F4F02
:10088000CE010596B8010E9446068985823040F067
:100890008989823028F0C701B8010E94BE0601C0D4
:1008A00081E06896E6E00C94C73DACE0B0E0EBE593
:1008B000F4E00C94AF3D69837A838B839C83CE01F3
:1008C0000196BE016B5F7F4F0E9446068D8182308C
:1008D00061F1823050F1843021F48E81882351F10E
:1008E0002EC02F81388537FD20C06E812F31310514
:1008F0001CF06623F9F023C08EE190E0821B930B7D
:1009000029853A854B855C8504C056954795379572
:1009100027958A95D2F76623B1F05095409530958A
:1009200021953F4F4F4F5F4F0EC020E030E040E039
:1009300050E009C02FEF3FEF4FEF5FE704C020E02A
:1009400030E040E050E8B901CA012C96E2E00C9496
:10095000CB3DA8E0B0E0EFEAF4E00C94A73D7B01CA
:100960008C01611571058105910519F482E0898377
:1009700060C083E089838EE1C82ED12CDC82CB82DB
:10098000ED82FE820F831887C801B7010E942205FD
:10099000FC013197F7FF3BC0222733272E1B3F0B6B
:1009A00057016801022E04C0D694C794B794A79447
:1009B0000A94D2F740E050E060E070E081E090E01F
:1009C000A0E0B0E004C0880F991FAA1FBB1F2A95A2
:1009D000D2F70197A109B1098E219F21A023B1234C
:1009E0000097A105B10521F041E050E060E070E022
:1009F0004A295B296C297D294D835E836F83788723
:100A00008EE190E08E1B9F0B9C838B8312C03097EE
:100A100081F00E2E04C0EE0CFF1C001F111F0A9463
:100A2000D2F7ED82FE820F831887CE1ADF0ADC82AE
:100A3000CB821A82CE0101960E9471052896EAE0C7
:100A40000C94C33DEF92FF920F931F937B018C0197
:100A500080E0E81680E0F80681E0080780E01807EB
:100A600088F48FEFE816F1040105110531F028F044
:100A700088E090E0A0E0B0E017C080E090E0A0E067
:100A8000B0E012C080E0E81680E0F80680E00807D9
:100A900081E0180728F088E190E0A0E0B0E004C011
:100AA00080E190E0A0E0B0E020E230E040E050E003
:100AB000281B390B4A0B5B0B04C016950795F7945E
:100AC000E7948A95D2F7F701E859FF4F8081281BF8
:100AD000310941095109C9011F910F91FF90EF9010
:100AE0000895DF92EF92FF920F931F93FC01E48031
:100AF000F58006811781D1808081823048F480E0C2
:100B000090E0A0E1B0E0E82AF92A0A2B1B2BA5C04F
:100B1000843009F49FC0823021F4EE24FF24870141
:100B200005C0E114F1040105110519F4E0E0F0E05D
:100B300096C0628173819FEF623879070CF05BC0C9
:100B400022E83FEF261B370B2A3131052CF020E03D
:100B500030E040E050E02AC0B801A701022E04C0F6
:100B600076956795579547950A94D2F781E090E07E
:100B7000A0E0B0E004C0880F991FAA1FBB1F2A95F0
:100B8000D2F70197A109B1098E219F21A023B1239A
:100B90000097A105B10521F081E090E0A0E0B0E070
:100BA0009A01AB01282B392B4A2B5B2BDA01C901A7
:100BB0008F779070A070B07080349105A105B10559
:100BC00039F427FF09C0205C3F4F4F4F5F4F04C0EF
:100BD000215C3F4F4F4F5F4FE0E0F0E02030A0E05E
:100BE0003A07A0E04A07A0E45A0710F0E1E0F0E07D
:100BF00079018A0127C06038710564F5FB01E1586D
:100C0000FF4FD801C7018F779070A070B07080340B
:100C10009105A105B10539F4E7FE0DC080E490E02F
:100C2000A0E0B0E004C08FE390E0A0E0B0E0E80E08
:100C3000F91E0A1F1B1F17FF05C016950795F7948D
:100C4000E794319687E016950795F794E7948A958F
:100C5000D1F705C0EE24FF248701EFEFF0E06E2FFF
:100C6000679566276795902F9F77D794DD24D79453
:100C70008E2F8695492F462B582F5D29B701CA0123
:100C80001F910F91FF90EF90DF900895FC01DB0121
:100C9000408151812281622F6F7770E0221F2227CD
:100CA000221F9381892F880F822B282F30E0991FD4
:100CB0009927991F11969C93119721153105A9F534
:100CC000411551056105710511F482E037C082E8D4
:100CD0009FEF13969C938E9312979A01AB0167E056
:100CE000220F331F441F551F6A95D1F783E08C9361
:100CF0000DC0220F331F441F551F12968D919C91DA
:100D00001397019713969C938E931297203080E04F
:100D1000380780E0480780E4580758F314962D936D
:100D20003D934D935C93179708952F3F310579F4C8
:100D3000411551056105710519F484E08C930895FE
:100D400064FF03C081E08C9312C01C9210C02F5727
:100D5000304013963C932E93129783E08C9387E058
:100D6000440F551F661F771F8A95D1F7706414963C
:100D70004D935D936D937C93179708951F93DC01BA
:100D8000FB019C91923008F447C08081823008F4C6
:100D900043C0943051F411961C91843099F58181AF
:100DA000682F70E0611B71093FC0843021F09230E0
:100DB00031F48230B9F18181882389F12DC01196F7
:100DC0001C9111978230F1F081811817D9F4129695
:100DD0002D913C911397828193818217930794F010
:100DE00028173907BCF014968D919D910D90BC91F8
:100DF000A02D2481358146815781281739074A075C
:100E00005B0718F4112341F00AC082179307A40767
:100E1000B50740F4112319F061E070E005C06FEFF1
:100E20007FEF02C060E070E0CB011F9108951F9238
:100E30000F920FB60F9211242F933F934F935F930E
:100E40006F937F938F939F93AF93BF93EF93FF9392
:100E5000DF93CF93CDB7DEB7AFE5B0E0EFE5F0E0DD
:100E600080818F778C93E091FB01F091FC010995D3
:100E7000E4E2F0E0828180618283CF91DF91FF9193
:100E8000EF91BF91AF919F918F917F916F915F9102
:100E90004F913F912F910F900FBE0F901F9018957B
:100EA000DF93CF9300D0CDB7DEB79A838983A4E2D6
:100EB000B0E0E4E2F0E08381282F2F73E981FA812A
:100EC0008081882F90E000249695879507949695C9
:100ED00087950794982F802D822B13968C93A4E2EC
:100EE000B0E0E4E2F0E08281982F987FE981FA8116
:100EF0008181892B12968C93A4E2B0E0E4E2F0E0C9
:100F00008281806812968C931297E981FA8183819D
:100F10008130A1F4A4E2B0E0E981FA81838181709B
:100F20008170982F9295990F907E13968C911397BC
:100F30008F7D892B13968C93139718C0E981FA81C2
:100F40008381882399F4A4E2B0E0E981FA81838166
:100F500081708170982F9295990F907E13968C9145
:100F600013978F7D892B13968C931397E981FA81C0
:100F700084818823F9F4E4E2F0E082818F7D82832A
:100F8000E4E2F0E0828180628283A0E5B0E0E0E507
:100F9000F0E08081282FE981FA818581882F90E017
:100FA000880F991F82959295907F9827807F982728
:100FB000822B8C930F900F90CF91DF910895DF9348
:100FC000CF930F92CDB7DEB78983A4E2B0E0E4E21D
:100FD000F0E08381982F907E8981892B13968C93E2
:100FE000A4E2B0E0E4E2F0E08281806412968C93A7
:100FF0001297E4E2F0E08281882F90E08071907097
:101000000097B9F3A4E2B0E0E4E2F0E0828180610D
:1010100012968C931297E4E2F0E0808191810F9018
:10102000CF91DF910895DF93CF9300D00F92CDB78A
:10103000DEB789837B836A83A4E2B0E0E4E2F0E078
:101040008381982F907E8981892B13968C93AFE5AD
:10105000B0E0EFE5F0E0808180688C93A4E2B0E03E
:10106000E4E2F0E08281886012968C93A4E2B0E022
:10107000E4E2F0E08281806412968C9312978A8178
:101080009B819093FC018093FB010F900F900F9038
:10109000CF91DF910895DF93CF9300D000D000D09F
:1010A000CDB7DEB79A8389836B834C838B81282FDE
:1010B00030E03E832D838D819E818330910509F43C
:1010C00051C02D813E81243031057CF48D819E817B
:1010D0008130910571F12D813E8122303105ACF5D1
:1010E0008D819E810097D1F081C02D813E81253078
:1010F000310509F452C08D819E81853091050CF433
:101100003FC02D813E812630310509F454C08D81C8
:101110009E818730910509F45DC068C08C81817023
:10112000E981FA81982F917081818E7F892B81834B
:101130005DC08C818170E981FA818170982F990F4F
:1011400081818D7F892B818351C08C818170E98160
:10115000FA818170982F990F990F81818B7F892B4C
:10116000818344C08C818170E981FA818170982FDC
:10117000990F990F990F8181877F892B818336C0C1
:101180008C818170E981FA818170982F9295907F8E
:1011900081818F7E892B818329C08C818170E98137
:1011A000FA818170982F9295990F907E81818F7D21
:1011B000892B81831BC08C818170E981FA818170C8
:1011C000982F9295990F990F907C81818F7B892B15
:1011D00081830CC08C818170E981FA81982F979569
:1011E0009927979581818F77892B818326960FB6D2
:1011F000F894DEBF0FBECDBFCF91DF910895DF938E
:10120000CF9300D000D000D0CDB7DEB79A838983CA
:101210006B834C838B81282F30E03E832D838D811F
:101220009E818330910509F451C02D813E81243087
:1012300031057CF48D819E818130910571F12D8184
:101240003E8122303105ACF58D819E810097D1F031
:1012500081C02D813E812530310509F452C08D8138
:101260009E81853091050CF43FC02D813E81263052
:10127000310509F454C08D819E818730910509F4B0
:101280005DC068C08C818170E981FA81982F91706E
:1012900082818E7F892B82835DC08C818170E98100
:1012A000FA818170982F990F82818D7F892B82839B
:1012B00051C08C818170E981FA818170982F990FDA
:1012C000990F82818B7F892B828344C08C818170AE
:1012D000E981FA818170982F990F990F990F828176
:1012E000877F892B828336C08C818170E981FA8166
:1012F0008170982F9295907F82818F7E892B828337
:1013000029C08C818170E981FA818170982F929532
:10131000990F907E82818F7D892B82831BC08C8167
:101320008170E981FA818170982F9295990F990FB8
:10133000907C82818F7B892B82830CC08C81817011
:10134000E981FA81982F97959927979582818F77D0
:10135000892B828326960FB6F894DEBF0FBECDBFD1
:10136000CF91DF910895DF93CF9300D000D000D0CC
:10137000CDB7DEB79B838A836C8319828C81282F3B
:1013800030E03E832D838D819E818330910509F469
:101390003EC02D813E81243031057CF48D819E81BB
:1013A0008130910529F12D813E81223031053CF5B6
:1013B0008D819E810097B1F055C02D813E812530F1
:1013C0003105B1F18D819E81853091054CF12D81E2
:1013D0003E8126303105A9F18D819E8187309105AE
:1013E000D1F140C0EA81FB818081817089833AC05C
:1013F000EA81FB81808186958170898333C0EA818F
:10140000FB81808186958695817089832BC0EA81D6
:10141000FB8180818695869586958170898322C01F
:10142000EA81FB81808182958F70817089831AC0E7
:10143000EA81FB818081829586958770817089839E
:1014400011C0EA81FB8180818295869586958370A3
:101450008170898307C0EA81FB818081881F88278A
:10146000881F8983898126960FB6F894DEBF0FBE48
:10147000CDBFCF91DF910895DF93CF9300D00F922E
:10148000CDB7DEB79A8389836B83E981FA818B813B
:1014900081830F900F900F90CF91DF910895DF938C
:1014A000CF9300D00F92CDB7DEB79A8389836B8339
:1014B000E981FA818B8182830F900F900F90CF91F9
:1014C000DF910895DF93CF9300D0CDB7DEB79A8335
:1014D0008983E981FA8180810F900F90CF91DF910C
:1014E0000895DF93CF9300D000D00F92CDB7DEB731
:1014F0009A83898389819A81009719F421E02D8349
:1015000097C00E943B0CA4E5B0E0E4E5F0E08781E1
:10151000482FE981FA818081282F30E081E090E036
:1015200002C0880F991F2A95E2F7842B17968C9397
:101530001797E981FA818081282F30E03C832B8343
:101540008B819C818630910561F02B813C81273015
:10155000310519F18B819C818530910509F441C0D9
:1015600066C0A4E5B0E0E4E5F0E0818111968C93DB
:10157000A4E5B0E0E4E5F0E09181E981FA818181C0
:10158000892B11968C931197E981FA81828193813D
:101590009093FE018093FD014AC0A4E5B0E0E4E52C
:1015A000F0E08181817111968C93A4E5B0E0E4E5CF
:1015B000F0E08181282FE981FA818181882F90E0F4
:1015C000880F991F880F991F822B11968C93119762
:1015D000E981FA8182819381909300028093FF01D7
:1015E00026C0A4E5B0E0E4E5F0E0808181718C9351
:1015F000A4E5B0E0E4E5F0E08081282FE981FA81FC
:101600008181882F90E00297002496958795079412
:10161000969587950794982F802D822B8C93E9813E
:10162000FA818281938190930202809301021D824C
:101630008D810F900F900F900F900F90CF91DF91B1
:101640000895DF93CF9300D000D00F92CDB7DEB7CF
:101650009A83898389819A81009719F421E02D83E7
:1016600062C0E981FA818081282F30E03C832B839E
:101670008B819C818630910559F02B813C812730EC
:101680003105F9F08B819C818530910599F14AC033
:10169000A4E5B0E0E4E5F0E08781482FE981FA8134
:1016A0008081282F30E081E090E0022E02C0880F78
:1016B000991F0A94E2F78095842317968C931797C5
:1016C00031C0A4E5B0E0E4E5F0E08781482FE9818E
:1016D000FA818081282F30E081E090E0022E02C064
:1016E000880F991F0A94E2F78095842317968C93AC
:1016F000179718C0A4E5B0E0E4E5F0E08781482F33
:10170000E981FA818081282F30E081E090E0022E8B
:1017100002C0880F991F0A94E2F7809584231796D8
:101720008C9317971D828D810F900F900F900F90C3
:101730000F90CF91DF9108951F920F920FB60F92E5
:1017400011242F933F934F935F936F937F938F93C6
:101750009F93AF93BF93EF93FF93DF93CF93CDB757
:10176000DEB7A4E5B0E0E4E5F0E087818F7B179673
:101770008C93E091FD01F091FE010995CF91DF91ED
:10178000FF91EF91BF91AF919F918F917F916F9159
:101790005F914F913F912F910F900FBE0F901F902F
:1017A00018951F920F920FB60F9211242F933F930B
:1017B0004F935F936F937F938F939F93AF93BF9359
:1017C000EF93FF93DF93CF93CDB7DEB7A4E5B0E0FF
:1017D000E4E5F0E087818F7717968C93E091FF0125
:1017E000F09100020995CF91DF91FF91EF91BF91A8
:1017F000AF919F918F917F916F915F914F913F91A9
:101800002F910F900FBE0F901F9018951F920F925F
:101810000FB60F9211242F933F934F935F936F93C3
:101820007F938F939F93AF93BF93EF93FF93DF9338
:10183000CF93CDB7DEB7A4E5B0E0E4E5F0E0878173
:101840008F7D17968C93E0910102F0910202099529
:10185000CF91DF91FF91EF91BF91AF919F918F91C8
:101860007F916F915F914F913F912F910F900FBE9C
:101870000F901F901895DF93CF93CDB7DEB7AFE5EC
:10188000B0E0EFE5F0E0808180688C93CF91DF914C
:101890000895DF93CF93CDB7DEB7AFE5B0E0EFE5C6
:1018A000F0E080818F778C93CF91DF9108951F9224
:1018B0000F920FB60F9211242F933F934F935F9384
:1018C0006F937F938F939F93AF93BF93EF93FF9308
:1018D000DF93CF93CDB7DEB7E091DA01F091DB0172
:1018E000ADE2B0E012968C910995CF91DF91FF9116
:1018F000EF91BF91AF919F918F917F916F915F9188
:101900004F913F912F910F900FBE0F901F90189500
:10191000DF93CF9300D0CDB7DEB79A838983ADE252
:10192000B0E0EDE2F0E0808180648C93ADE2B0E065
:10193000EDE2F0E08081282F2F7DE981FA8180811E
:10194000882F90E0880F991F82959295907F982715
:10195000807F9827822B8C93ADE2B0E0EDE2F0E03F
:101960008081282F2F7EE981FA818581882F90E060
:1019700082959295907F9827807F9827822B8C93D1
:10198000ADE2B0E0EDE2F0E08081282F2E7FE9812A
:10199000FA818181882F90E0880F991F880F991F05
:1019A000880F991F822B8C93ADE2B0E0EDE2F0E05E
:1019B0008081282F2B7FE981FA818281882F90E016
:1019C000880F991F880F991F822B8C93ADE2B0E08E
:1019D000EDE2F0E08081982F9C7FE981FA8184819B
:1019E000892B8C930F900F90CF91DF910895DF9307
:1019F000CF9300D00F92CDB7DEB789837B836A8304
:101A0000EDE2F0E089818283EDE2F0E081818823DC
:101A1000DCF7EDE2F0E08281EA81FB8180830F90C8
:101A20000F900F90CF91DF910895DF93CF9300D067
:101A3000CDB7DEB79A838983ADE2B0E0EDE2F0E0A6
:101A4000808180688C9389819A819093DB01809357
:101A5000DA010F900F90CF91DF910895DF93CF932C
:101A600000D0CDB7DEB79A838983A0E2B0E0E981E8
:101A7000FA8181818C93E6E5F0E084E88083A0E23E
:101A8000B0E0E1E2F0E08081982F987FE981FA816F
:101A90008081892B11968C9311970F900F90CF9185
:101AA000DF910895DF93CF93CDB7DEB7E6E5F0E0A1
:101AB00084EA8083E6E5F0E080818823DCF7CF913B
:101AC000DF910895DF93CF93CDB7DEB7E6E5F0E081
:101AD00084E98083CF91DF910895DF93CF930F92B4
:101AE000CDB7DEB78983E0E2F0E089818383E6E564
:101AF000F0E084E88083E6E5F0E080818823DCF78D
:101B00000F90CF91DF910895DF93CF9300D0CDB7A1
:101B1000DEB79A838983E6E5F0E084EC8083E6E52E
:101B2000F0E080818823DCF7E0E2F0E08381E98166
:101B3000FA8180830F900F90CF91DF910895DF930A
:101B4000CF9300D0CDB7DEB79A838983E6E5F0E086
:101B500084E88083E6E5F0E080818823DCF7E0E23A
:101B6000F0E08381E981FA8180830F900F90CF911B
:101B7000DF910895DF93CF930F92CDB7DEB7E0E208
:101B8000F0E08181887F898389810F90CF91DF91F7
:101B900008951F920F920FB60F9211242F933F9327
:101BA0004F935F936F937F938F939F93AF93BF9365
:101BB000EF93FF93DF93CF93CDB7DEB78091E00132
:101BC0009091E101009769F0A2E5B0E0E2E5F0E074
:101BD0008781806217968C93E091E001F091E1019A
:101BE0000995CF91DF91FF91EF91BF91AF919F91B7
:101BF0008F917F916F915F914F913F912F910F90B6
:101C00000FBE0F901F901895DF93CF9300D000D098
:101C1000CDB7DEB79A838983E6E4F0E01186E981E7
:101C2000FA818081282F30E03C832B838B819C813B
:101C30008730910509F43EC12B813C812830310564
:101C40004CF58B819C818330910509F4ADC02B81CB
:101C50003C81243031058CF48B819C81813091054D
:101C600009F45EC02B813C81223031050CF07AC032
:101C70008B819C810097C9F12CC22B813C8125303E
:101C8000310509F4D3C08B819C81863091050CF01D
:101C9000EFC0ACC02B813C812B30310509F492C1DF
:101CA0008B819C818C3091056CF42B813C81293097
:101CB000310509F443C18B819C818A3091050CF078
:101CC0005FC11AC12B813C812E30310509F4BEC1A0
:101CD0008B819C818F30910509F4DAC12B813C8185
:101CE0002C30310509F490C1F4C1E6E4F0E08CE059
:101CF0008187A6E4B0E0E981FA8183819481179617
:101D00009C938E931697A6E4B0E0E6E4F0E090850D
:101D1000E981FA818181892B18968C931897D9C112
:101D2000A6E4B0E0E6E4F0E08185816019968C934A
:101D3000A6E4B0E0E6E4F0E081858D7F19968C930F
:101D4000A6E4B0E0E6E4F0E08085877F18968C9307
:101D5000A6E4B0E0E6E4F0E080858F7E18968C93F0
:101D60001897B7C1A6E4B0E0E6E4F0E081858E7F85
:101D700019968C93A6E4B0E0E6E4F0E081858260F9
:101D800019968C93A6E4B0E0E6E4F0E08085877FC6
:101D900018968C93A6E4B0E0E6E4F0E080858F7EB0
:101DA00018968C93189795C1A6E4B0E0E6E4F0E0AD
:101DB0008185816019968C93A6E4B0E0E6E4F0E0BA
:101DC0008185826019968C93A6E4B0E0E6E4F0E0A9
:101DD0008085877F18968C93A6E4B0E0E6E4F0E077
:101DE00080858F7E18968C93189773C1A6E4B0E017
:101DF000E981FA818581968115969C938E9314973B
:101E0000A6E4B0E0E6E4F0E081858C6019968C935E
:101E1000A6E4B0E0E6E4F0E09085E981FA81818112
:101E2000892B886018968C93189753C1A6E4B0E06C
:101E3000E6E4F0E08185816019968C93A6E4B0E039
:101E4000E6E4F0E081858D7F19968C93A6E4B0E0FE
:101E5000E6E4F0E08085886018968C93A6E4B0E014
:101E6000E6E4F0E080858F7E18968C93189731C158
:101E7000A6E4B0E0E6E4F0E081858E7F19968C93CD
:101E8000A6E4B0E0E6E4F0E08185826019968C93E8
:101E9000A6E4B0E0E6E4F0E08085886018968C93D4
:101EA000A6E4B0E0E6E4F0E080858F7E18968C939F
:101EB00018970FC1A6E4B0E0E6E4F0E08185816008
:101EC00019968C93A6E4B0E0E6E4F0E081858260A8
:101ED00019968C93A6E4B0E0E6E4F0E08085886093
:101EE00018968C93A6E4B0E0E6E4F0E080858F7E5F
:101EF00018968C931897EDC0A6E4B0E0E6E4F0E005
:101F000081858E7F19968C93A6E4B0E0E6E4F0E03C
:101F100081858D7F19968C93A6E4B0E0E6E4F0E02D
:101F20008085877F18968C93A6E4B0E0E6E4F0E025
:101F30008085806118968C931897CBC0A6E4B0E09A
:101F4000E6E4F0E08185816019968C93A6E4B0E028
:101F5000E6E4F0E081858D7F19968C93A6E4B0E0ED
:101F6000E6E4F0E08085877F18968C93A6E4B0E0E5
:101F7000E6E4F0E08085806118968C931897A9C0FC
:101F8000A6E4B0E0E6E4F0E081858E7F19968C93BC
:101F9000A6E4B0E0E6E4F0E08185826019968C93D7
:101FA000A6E4B0E0E6E4F0E08085877F18968C93A5
:101FB000A6E4B0E0E6E4F0E08085806118968C93BA
:101FC000189787C0A6E4B0E0E6E4F0E08185816080
:101FD00019968C93A6E4B0E0E6E4F0E08185826097
:101FE00019968C93A6E4B0E0E6E4F0E08085877F64
:101FF00018968C93A6E4B0E0E6E4F0E0808580617A
:1020000018968C93189765C0A6E4B0E0E6E4F0E07B
:1020100081858E7F19968C93A6E4B0E0E6E4F0E02B
:1020200081858D7F19968C93A6E4B0E0E6E4F0E01C
:102030008085886018968C93A6E4B0E0E6E4F0E032
:102040008085806118968C93189743C0A6E4B0E011
:10205000E6E4F0E081858E7F19968C93A6E4B0E0EB
:10206000E6E4F0E08185826019968C93A6E4B0E006
:10207000E6E4F0E08085886018968C93A6E4B0E0F2
:10208000E6E4F0E08085806118968C93189721C073
:10209000A6E4B0E0E6E4F0E08185816019968C93D7
:1020A000A6E4B0E0E6E4F0E08185826019968C93C6
:1020B000A6E4B0E0E6E4F0E08085886018968C93B2
:1020C000A6E4B0E0E6E4F0E08085806118968C93A9
:1020D0001897E981FA8187818130D1F4A6E4B0E0D4
:1020E000E6E4F0E08085282F2F73E981FA81828170
:1020F000882F90E00024969587950794969587956C
:102100000794982F802D822B18968C93189716C0C1
:10211000A6E4B0E0E6E4F0E08185282F2F7CE98199
:10212000FA818281882F90E082959295907F9827FE
:10213000807F9827822B19968C9319970F900F9078
:102140000F900F90CF91DF910895DF93CF9300D040
:1021500000D000D0CDB7DEB79A8389837C836B83B0
:10216000E981FA818081282F30E03E832D838D81A3
:102170009E8184309105B1F12D813E812C30310555
:1021800091F08D819E81009709F04AC0A2E5B0E0F0
:10219000E2E5F0E08781846017968C938B819C81C7
:1021A0000E9419113DC0E981FA818781882369F471
:1021B000A2E5B0E0E2E5F0E08781806117968C93BC
:1021C0008B819C810E9419112BC0A2E5B0E0E2E551
:1021D000F0E08781886017968C938B819C810E94A8
:1021E00019111EC0E981FA818781882369F4A2E56B
:1021F000B0E0E2E5F0E08781806117968C938B81F7
:102200009C810E9419110CC0A2E5B0E0E2E5F0E06B
:102210008781886017968C938B819C810E9419110D
:1022200026960FB6F894DEBF0FBECDBFCF91DF91DB
:102230000895DF93CF9300D0CDB7DEB79A8389831B
:1022400089819A819093DD018093DC010F900F903A
:10225000CF91DF910895DF93CF9300D0CDB7DEB754
:102260009A83898380E390E066E040E00E944B0817
:10227000EFE4F0E08CE08083AEE4B0E0EFE4F0E087
:102280008081982F987FE981FA818181892B8C93B5
:10229000AEE4B0E0EEE4F0E08081282F2F7BE9810E
:1022A000FA818081882F90E0002496958795079485
:1022B000969587950794982F802D822B8C93ECE42C
:1022C000F0E011821082E6E4F0E011821082A9E5CC
:1022D000B0E0E9E5F0E0808180628C930F900F9090
:1022E000CF91DF910895DF93CF9300D0CDB7DEB7C4
:1022F0009A83898389819A819093E1018093E00197
:102300000F900F90CF91DF910895DF93CF930F92AD
:10231000CDB7DEB78983AEE4B0E0EEE4F0E08081D3
:10232000382FEEE4F0E08081282F2F7B8981882FE1
:1023300090E0002496958795079496958795079445
:10234000982F802D822B832B8C930F90CF91DF9130
:102350000895DF93CF93CDB7DEB7E6E4F0E0808158
:102360009181CF91DF910895DF93CF93CDB7DEB701
:10237000ECE4F0E011821082CF91DF910895DF93B9
:10238000CF93CDB7DEB7E6E4F0E01186E6E4F0E007
:102390001086E6E4F0E017821682E6E4F0E01182AF
:1023A0001082A2E5B0E0E2E5F0E087818F7D17962C
:1023B0008C931797CF91DF9108951F920F920FB6CC
:1023C0000F9211242F933F934F935F936F937F93BB
:1023D0008F939F93AF93BF93EF93FF93DF93CF932D
:1023E000CDB7DEB7AFE5B0E0EFE5F0E080818F7705
:1023F0008C93A2E5B0E0E2E5F0E08681816016967C
:102400008C9316978091E2019091E301009729F057
:10241000E091E201F091E3010995CF91DF91FF9105
:10242000EF91BF91AF919F918F917F916F915F914C
:102430004F913F912F910F900FBE0F901F901895C5
:102440001F920F920FB60F9211242F933F934F9329
:102450005F936F937F938F939F93AF93BF93EF930C
:10246000FF93DF93CF93CDB7DEB7AFE5B0E0EFE5F5
:10247000F0E080818F778C93A2E5B0E0E2E5F0E0B8
:102480008681826016968C9316978091E2019091D6
:10249000E301009729F0E091E201F091E301099551
:1024A000CF91DF91FF91EF91BF91AF919F918F916C
:1024B0007F916F915F914F913F912F910F900FBE40
:1024C0000F901F901895DF93CF9300D000D0CDB719
:1024D000DEB79A838983A2E5B0E0E2E5F0E091817E
:1024E000E981FA818181892B11968C931197E98179
:1024F000FA818081282F30E03C832B838B819C8163
:102500008130910509F454C02B813C812230310582
:102510002CF48B819C81009769F0D0C02B813C8189
:1025200022303105B9F08B819C818330910509F40B
:1025300083C0C4C0A2E5B0E0E2E5F0E0818180683C
:1025400011968C93A2E5B0E0E981FA8183819481B0
:102550008C93B4C0A2E5B0E0E2E5F0E08181806850
:1025600011968C93A2E5B0E0E2E5F0E0818188600D
:1025700011968C93A2E5B0E0E2E5F0E08181282F8E
:10258000E981FA818281882F90E082959295907FEF
:102590009827807F9827822B11968C93A2E5B0E034
:1025A000E981FA81858196811A968C931A9786C063
:1025B000A2E5B0E0E2E5F0E08181806411968C93C1
:1025C000A2E5B0E0E2E5F0E08181877F11968C938F
:1025D000A2E5B0E0E2E5F0E08181282FE981FA810F
:1025E0008281882F90E082959295907F9827807FB6
:1025F0009827822B11968C931197E981FA81828119
:10260000823051F4A2E5B0E0E2E5F0E08181806241
:1026100011968C93119752C0E981FA81828183309F
:1026200009F04CC0A2E5B0E0E2E5F0E08181806312
:1026300011968C93119742C0A2E5B0E0E2E5F0E07C
:102640008181886011968C93A2E5B0E0E2E5F0E02C
:102650008181806411968C93A2E5B0E0E2E5F0E020
:102660008181282FE981FA818281882F90E08295EB
:102670009295907F9827807F9827822B11968C9334
:102680001197E981FA818281823051F4A2E5B0E0AC
:10269000E2E5F0E08181806211968C9311970EC083
:1026A000E981FA818281833049F4A2E5B0E0E2E574
:1026B000F0E08181806311968C9311970F900F90B9
:1026C0000F900F90CF91DF910895DF93CF9300D0BB
:1026D000CDB7DEB79A838983A2E5B0E0E2E5F0E00A
:1026E0009181E981FA818181892B11968C931197CF
:1026F0000F900F90CF91DF910895DF93CF93CDB7D7
:10270000DEB7A2E5B0E0E2E5F0E08181887F1196D6
:102710008C931197CF91DF910895DF93CF9300D0E1
:1027200000D000D0CDB7DEB79A8389837C836B83DA
:10273000E981FA818081282F30E03E832D838D81CD
:102740009E81009731F02D813E8122303105B1F01C
:1027500029C0A2E5B0E0E2E5F0E08781816017964C
:102760008C93A2E5B0E0E2E5F0E086818160169608
:102770008C938B819C810E94CA1414C0A2E5B0E0A6
:10278000E2E5F0E08781826017968C93A2E5B0E0E5
:10279000E2E5F0E08681826016968C938B819C81C5
:1027A0000E94CA1426960FB6F894DEBF0FBECDBFA6
:1027B000CF91DF910895DF93CF93CDB7DEB7A2E538
:1027C000B0E0E2E5F0E08681826016968C93A2E5A7
:1027D000B0E0E2E5F0E08681816016968C93169772
:1027E000CF91DF910895DF93CF93CDB7DEB72A97CE
:1027F0000FB6F894DEBF0FBECDBF89836A838A818E
:10280000823071F582E590E09A8789878981482F27
:1028100050E0CA019C01220F331FC9019695982FE1
:10282000882797958795821B930B840F951F24E625
:1028300030E0B9010E944F3DCB01019798878F830B
:10284000EF81F885FF233CF48F81988590958195E1
:102850009F4F98878F838F81E985FA85828728C06B
:102860008A81833029F582E590E09E838D8389817A
:10287000882F90E0982F882724E630E0B9010E9445
:102880004F3DCB019C018FEF90E0821B930B9C830B
:102890008B83EB81FC81FF233CF48B819C819095A1
:1028A00081959F4F9C838B838B81ED81FE818287F5
:1028B0002A960FB6F894DEBF0FBECDBFCF91DF9141
:1028C0000895DF93CF930F92CDB7DEB78983E2E50A
:1028D000F0E08981482F50E0CA019C01220F331F8C
:1028E000C9019695982F882797958795821B930BFA
:1028F000840F951F24E630E0B9010E944F3DCB01C3
:1029000082870F90CF91DF910895DF93CF9300D00E
:1029100000D000D0CDB7DEB79C838B837E836D83E0
:102920002B813C8188EE93E0289FA001299F500DC8
:10293000389F500D1124ED81FE818181282F30E0D8
:10294000CA01B9010E943B3DCB019A838983E2E52C
:10295000F0E0898181508287E2E5F0E01082E2E5D3
:10296000F0E08681882F90E0827090700097B9F334
:10297000A2E5B0E0E2E5F0E08681826016968C93F5
:10298000169726960FB6F894DEBF0FBECDBFCF9137
:10299000DF910895DF93CF9300D0CDB7DEB79A8350
:1029A000898389819A819093E3018093E2010F905A
:1029B0000F90CF91DF9108951F920F920FB60F9253
:1029C00011242F933F934F935F936F937F938F9334
:1029D0009F93AF93BF93EF93FF93DF93CF93CDB7C5
:1029E000DEB78091E4019091E5010097A1F0A9E2A2
:1029F000B0E0E9E2F0E08181806811968C9320914B
:102A0000E4013091E501E9E2F0E08381F901099503
:102A1000E9E2F0E01382CF91DF91FF91EF91BF9156
:102A2000AF919F918F917F916F915F914F913F9166
:102A30002F910F900FBE0F901F901895DF93CF939B
:102A4000CDB7DEB728970FB6F894DEBF0FBECDBF67
:102A50006B837C838D839E8358874F831A82198270
:102A6000A9E2B0E0E9E2F0E08281282FEF81F88569
:102A70008481882F90E0880F991F822B12968C9367
:102A8000E9E2F0E088E18183E0E4F0E080E880833F
:102A9000A0E4B0E0E0E4F0E08081282F2F7CEF811B
:102AA000F8858281882F90E082959295907F982773
:102AB000807F9827822B8C93A0E4B0E0E0E4F0E0E4
:102AC0008081282F277FEF81F8858081882F90E0F3
:102AD000880F991F880F991F880F991F822B8C933D
:102AE000A0E4B0E0E0E4F0E08081282F297FEF81CE
:102AF000F8858181882F90E0880F991F822B8C9315
:102B00008B819C81AD81BE81880F991FAA1FBB1F3D
:102B1000880F991FAA1FBB1F880F991FAA1FBB1FD1
:102B20009C01AD0180E092E1AAE7B0E0BC01CD01DB
:102B30000E94623DDA01C90101979A838983E0E42A
:102B4000F0E089819A81892F99278083E9E2F0E07A
:102B50008981808328960FB6F894DEBF0FBECDBF63
:102B6000CF91DF910895DF93CF930F92CDB7DEB76A
:102B70008983E9E2F0E089818383E9E2F0E0828100
:102B8000882F90E0807490700097B9F3A9E2B0E0CC
:102B9000E9E2F0E08281806412968C9312970F90A4
:102BA000CF91DF910895DF93CF9300D00F92CDB7EF
:102BB000DEB79B838A8319820EC08981282F30E07B
:102BC0008A819B81FC01E20FF31F80810E94B31573
:102BD00089818F5F89838981282F30E08A819B8159
:102BE000FC01E20FF31F8081882339F70F900F90CB
:102BF0000F90CF91DF910895DF93CF93CDB7DEB7DC
:102C0000E9E2F0E082818823DCF7A9E2B0E0E9E2C2
:102C1000F0E08281806812968C931297E9E2F0E0EE
:102C20008381CF91DF910895DF93CF930F92CDB73A
:102C3000DEB7E9E2F0E08281882374F0A9E2B0E037
:102C4000E9E2F0E08281806812968C931297E9E2C3
:102C5000F0E08381898302C08FEF898389810F909F
:102C6000CF91DF9108950F931F93DF93CF9300D0FF
:102C70000F92CDB7DEB79B838A8319828981282F73
:102C800030E08A819B818C01020F131F0E94FC158A
:102C9000F80180830FC089818F5F89838981282F04
:102CA00030E08A819B818C01020F131F0E94FC156A
:102CB000F80180838981282F30E08A819B81FC0183
:102CC000E20FF31F8081833231F78981282F30E0B2
:102CD0008A819B81FC01E20FF31F10820F900F90FD
:102CE0000F90CF91DF911F910F9108950F931F9334
:102CF000DF93CF9300D00F92CDB7DEB79B838A834B
:102D000019828981282F30E08A819B818C01020FF2
:102D1000131F0E94FC15F80180830FC089818F5F0B
:102D200089838981282F30E08A819B818C01020F61
:102D3000131F0E94FC15F80180838981282F30E041
:102D40008A819B81FC01E20FF31F8081833231F77E
:102D50008981282F30E08A819B81FC01E20FF31FDB
:102D600010820F900F900F90CF91DF911F910F91D4
:102D70000895DF93CF9300D0CDB7DEB79A838983D0
:102D8000A9E2B0E0E9E2F0E08181806811968C93DD
:102D9000119789819A819093E5018093E4010F90C6
:102DA0000F90CF91DF910895DF93CF93CDB7DEB72A
:102DB000E1E4F0E088E18083CF91DF910895DF9333
:102DC000CF93CDB7DEB7A1E4B0E0E1E4F0E08081DD
:102DD00088618C93E1E4F0E01082CF91DF91089557
:102DE000DF93CF930F92CDB7DEB78983A1E4B0E034
:102DF000E1E4F0E090818981892B8C930F90CF9151
:102E0000DF910895DF93CF93CDB7DEB7A895CF912B
:102E1000DF910895DF93CF9300D00F92CDB7DEB747
:102E20009A8389836B8389819A816B8140E00E94B8
:102E30004B080F900F900F90CF91DF910895DF9383
:102E4000CF93CDB7DEB762970FB6F894DEBF0FBE53
:102E5000CDBF988B8F87698B8F859889698940E072
:102E60000E944B088F85988969890E94B30988233D
:102E700009F083C080E090E0A8E4B2E48B879C87EF
:102E8000AD87BE876B857C858D859E8520E030E093
:102E90004AE755E40E941F02DC01CB018F8398872B
:102EA000A987BA876F81788589859A8520E030E087
:102EB00040E85FE30E94250488232CF481E090E041
:102EC0009E838D833FC06F81788589859A8520E0B8
:102ED0003FEF4FE757E40E94C50318164CF56B858A
:102EE0007C858D859E8520E030E040E251E40E94A3
:102EF0001F02DC01CB01BC01CD010E944900DC01B5
:102F0000CB019E838D830FC080E991E09C838B83EE
:102F10008B819C810197F1F79C838B838D819E81AE
:102F200001979E838D838D819E81009769F714C0E0
:102F30006F81788589859A850E944900DC01CB01E3
:102F40009E838D838D819E819A83898389819A81D5
:102F50000197F1F79A8389838F85988969890E94FF
:102F6000B309882361F48091E601882341F481E06C
:102F70008093E60181E08A8B03C01092E6011A8AF1
:102F80008A8962960FB6F894DEBF0FBECDBFCF918F
:102F9000DF910895DF93CF93CDB7DEB789E390E05B
:102FA00065E041E00E944B0889E390E066E041E083
:102FB0000E944B0889E390E065E040E00E94FF0832
:102FC00089E390E066E040E00E94FF08CF91DF9146
:102FD0000895DF93CF93CDB7DEB72B970FB6F89454
:102FE000DEBF0FBECDBF8887698787E0FE013196BF
:102FF000DF01282F1D922A95E9F783E0898385E078
:103000008A8383E08B83CE0101960E94631286E35C
:1030100090E063E041E00E944B08898563E00E94F4
:10302000F3138885A82FB0E0BB87AA872A853B8544
:1030300021303105B1F08A859B8582309105F1F010
:10304000AA85BB85109731F589E390E065E040E003
:103050000E94FF0889E390E066E040E00E94FF08DC
:1030600019C089E390E065E041E00E94FF0889E330
:1030700090E066E040E00E94FF080CC089E390E029
:1030800065E040E00E94FF0889E390E066E041E0EF
:103090000E94FF082B960FB6F894DEBF0FBECDBF7F
:1030A000CF91DF9108950F931F93DF93CF93CDB707
:1030B000DEB78091E701082F10E00E94FC15F801AF
:1030C000ED5FFD4F80838091E7018F5F8093E70183
:1030D000CF91DF911F910F910895DF93CF930F92BE
:1030E000CDB7DEB78DE1898383E598E10E94B916FB
:1030F00089810F90CF91DF910895DF93CF93CDB762
:10310000DEB768970FB6F894DEBF0FBECDBF8D8BCC
:103110006E8B4F8B288F8DE18C838FEE8D8381E0BA
:103120008E838FEF8F838FEF88878FEF89878FEF65
:103130008A8781E08B871C8687E08D8785E38E8771
:103140008D898F878E89888B8F89898B888D8A8BD3
:103150001B8A1C8A1A821982CE01059660E10E94A0
:10316000BF1B9A83898389819A81892F99278B8BA9
:1031700089818C8B1B820EC08B81282F30E0CE0181
:103180000596FC01E20FF31F80810E94B3158B812D
:103190008F5F8B838B81803178F38091E7018C3056
:1031A000E0F380910C028C831092E7018C81689689
:1031B0000FB6F894DEBF0FBECDBFCF91DF9108955B
:1031C000DF93CF93CDB7DEB763970FB6F894DEBF2A
:1031D0000FBECDBF8DE18A83CE010396988B8F877A
:1031E000E1E8F1E0FA8BE98BFCE0FB8BE989FA89F5
:1031F000008089899A8901969A8B898BEF85F88955
:1032000000828F8598890196988B8F879B89915032
:103210009B8BEB89EE2351F719820EC08981282FF1
:1032200030E0CE010396FC01E20FF31F80810E9483
:10323000B31589818F5F898389818C3078F3809180
:10324000E7018C30E0F380910C028A831092E70151
:103250008A8163960FB6F894DEBF0FBECDBFCF91C3
:10326000DF910895DF93CF93CDB7DEB763970FB6A5
:10327000F894DEBF0FBECDBF8DE18A83CE010396E9
:10328000988B8F87EDE8F1E0FA8BE98BFCE0FB8B04
:10329000E989FA89008089899A8901969A8B898BB4
:1032A000EF85F88900828F8598890196988B8F87A2
:1032B0009B8991509B8BEB89EE2351F719820EC0AD
:1032C0008981282F30E0CE010396FC01E20FF31F25
:1032D00080810E94B31589818F5F898389818C30B9
:1032E00078F38091E7018C30E0F380910C028A83BF
:1032F0001092E7018A8163960FB6F894DEBF0FBE85
:10330000CDBFCF91DF910895DF93CF93CDB7DEB7D7
:1033100062970FB6F894DEBF0FBECDBF8A8B8DE1EA
:103320008C838FEE8D8381E08E838FEF8F838FEF81
:1033300088878FEF89878FEF8A8781E08B871C864C
:1033400084E08D8782E08E878A898F87188A198A20
:103350001A821982CE0105966DE00E94BF1B9A83E6
:10336000898389819A81892F9927888B8981898B83
:103370001B820EC08B81282F30E0CE010596FC0108
:10338000E20FF31F80810E94B3158B818F5F8B83C7
:103390008B818D3078F38091E7018C30E0F3809160
:1033A0000C028C831092E7018C8162960FB6F89420
:1033B000DEBF0FBECDBFCF91DF910895DF93CF93D6
:1033C000CDB7DEB763970FB6F894DEBF0FBECDBFA3
:1033D0008DE18A83CE010396988B8F87E9E9F1E02E
:1033E000FA8BE98BFCE0FB8BE989FA8900808989FB
:1033F0009A8901969A8B898BEF85F88900828F854F
:1034000098890196988B8F879B8991509B8BEB892C
:10341000EE2351F719820EC08981282F30E0CE01AA
:103420000396FC01E20FF31F80810E94B31589818E
:103430008F5F898389818C3078F38091E7018C30AC
:10344000E0F380910C028A831092E7018A816396EF
:103450000FB6F894DEBF0FBECDBFCF91DF910895B8
:10346000DF93CF93CDB7DEB766970FB6F894DEBF84
:103470000FBECDBF8C8B7E8B6D8B8DE18C838D8948
:103480009E89892F9927982F2D898FEE8D8381E032
:103490008E838FEF8F838FEF88878FEF89878FEFF2
:1034A0008A8781E08B871C8686E08D8786E08E8701
:1034B0008C898F87988B298B1A8A1B8A1A8219828A
:1034C000CE0105966FE00E94BF1B9A838983898194
:1034D0009A81892F99278A8B89818B8B1B820EC0B9
:1034E0008B81282F30E0CE010596FC01E20FF31FFF
:1034F00080810E94B3158B818F5F8B838B818F308E
:1035000078F38091E7018C30E0F380910C028C839A
:103510001092E7018C8166960FB6F894DEBF0FBE5D
:10352000CDBFCF91DF910895DF93CF93CDB7DEB7B5
:103530006A970FB6F894DEBF0FBECDBF8E8B788F23
:103540006F8B5A8F498F8DE18C838F89988D892F4E
:103550009927282F3F89898D9A8D892F9927982F10
:10356000498D8FEE8D8381E08E838FEF8F838FEF78
:1035700088878FEF89878FEF8A8781E08B871C860A
:1035800088E08D8784E08E878E898F87288B398BA2
:103590009A8B4B8B1C8A1D8A1A821982CE01059642
:1035A00061E10E94BF1B9A83898389819A81892F57
:1035B00099278C8B89818D8B1B820EC08B81282F44
:1035C00030E0CE010596FC01E20FF31F80810E94DE
:1035D000B3158B818F5F8B838B81813178F38091E1
:1035E000E7018031E0F380910C028C831092E701B7
:1035F0008C816A960FB6F894DEBF0FBECDBFCF9117
:10360000DF910895DF93CF93CDB7DEB768970FB6FC
:10361000F894DEBF0FBECDBF9E8B8D8B788F6F8BE6
:103620008DE18C838D899E89892F9927282F3D894B
:103630008F89988D892F9927982F4F898FEE8D83A9
:1036400081E08E838FEF8F838FEF88878FEF89875D
:103650008FEF8A8781E08B871C8687E08D878CE0DF
:103660008E872F87388B998B4A8B1B8A1C8A1A82EC
:103670001982CE01059660E10E94BF1B9A8389835F
:1036800089819A81892F99278B8B89818C8B1B82C9
:103690000EC08B81282F30E0CE010596FC01E20F91
:1036A000F31F80810E94B3158B818F5F8B838B8189
:1036B0008C3078F38091E7018C30E0F380910C023C
:1036C0008C831092E7018C8168960FB6F894DEBF68
:1036D0000FBECDBFCF91DF910895DF93CF93CDB7CC
:1036E000DEB763970FB6F894DEBF0FBECDBF8DE196
:1036F0008A83CE010396988B8F87E5EAF1E0FA8BF7
:10370000E98BFCE0FB8BE989FA89008089899A8939
:1037100001969A8B898BEF85F88900828F8598892D
:103720000196988B8F879B8991509B8BEB89EE2319
:1037300051F719820EC08981282F30E0CE010396FF
:10374000FC01E20FF31F80810E94B31589818F5F16
:10375000898389818C3078F38091E7018C30E0F3A4
:1037600080910C028A831092E7018A8163960FB6DA
:10377000F894DEBF0FBECDBFCF91DF910895DF93E8
:10378000CF93CDB7DEB727970FB6F894DEBF0FBE45
:10379000CDBF9E838D836F831C821B828D819E8112
:1037A000009729F186E090E09A83898315C02981EA
:1037B0003A818D819E81FC01E20FF31F8081282FC9
:1037C00030E08B819C81820F931F9C838B83898146
:1037D0009A8101969A8389838F81882F90E09C013A
:1037E0002250304089819A818217930704F38B819C
:1037F0009C8127960FB6F894DEBF0FBECDBFCF9148
:10380000DF910895DF93CF93CDB7DEB762970FB600
:10381000F894DEBF0FBECDBF8A8B8DE18C838FEE17
:103820008D8381E08E838FEF8F838FEF88878FEF7B
:1038300089878FEF8A8781E08B871C8684E08D875C
:1038400088E08E878A898F87188A198A1A82198256
:10385000CE0105966DE00E94BF1B9A838983898102
:103860009A81892F9927888B8981898B1B820EC029
:103870008B81282F30E0CE010596FC01E20FF31F6B
:1038800080810E94B3158B818F5F8B838B818D30FC
:1038900078F38091E7018C30E0F380910C028C8307
:1038A0001092E7018C8162960FB6F894DEBF0FBECE
:1038B000CDBFCF91DF910895DF93CF93CDB7DEB722
:1038C00066970FB6F894DEBF0FBECDBF8C8B7E8B94
:1038D0006D8B8DE18C838D899E89892F9927982FF7
:1038E0002D898FEE8D8381E08E838FEF8F838FEF15
:1038F00088878FEF89878FEF8A8781E08B871C8687
:1039000086E08D8787E08E878C898F87988B298BBF
:103910001A8A1B8A1A821982CE0105966FE00E94CC
:10392000BF1B9A83898389819A81892F99278A8BE2
:1039300089818B8B1B820EC08B81282F30E0CE01BA
:103940000596FC01E20FF31F80810E94B3158B8165
:103950008F5F8B838B818F3078F38091E7018C3080
:10396000E0F380910C028C831092E7018C816696C3
:103970000FB6F894DEBF0FBECDBFCF91DF91089593
:10398000DF93CF93CDB7DEB763970FB6F894DEBF62
:103990000FBECDBF8DE18A83CE010396988B8F87B2
:1039A000E1EBF1E0FA8BE98BFCE0FB8BE989FA892A
:1039B000008089899A8901969A8B898BEF85F8898D
:1039C00000828F8598890196988B8F879B8991506B
:1039D0009B8BEB89EE2351F719820EC08981282F2A
:1039E00030E0CE010396FC01E20FF31F80810E94BC
:1039F000B31589818F5F898389818C3078F38091B9
:103A0000E7018C30E0F380910C028A831092E70189
:103A10008A8163960FB6F894DEBF0FBECDBFCF91FB
:103A2000DF910895DF93CF93CDB7DEB763970FB6DD
:103A3000F894DEBF0FBECDBF8DE18A83CE01039621
:103A4000988B8F87EDEBF1E0FA8BE98BFCE0FB8B39
:103A5000E989FA89008089899A8901969A8B898BEC
:103A6000EF85F88900828F8598890196988B8F87DA
:103A70009B8991509B8BEB89EE2351F719820EC0E5
:103A80008981282F30E0CE010396FC01E20FF31F5D
:103A900080810E94B31589818F5F898389818C30F1
:103AA00078F38091E7018A33E0F380910C028A83F6
:103AB0001092E7018A8163960FB6F894DEBF0FBEBD
:103AC000CDBFCF91DF910895DF93CF93CDB7DEB710
:103AD00080E390E067E040E00E944B0880E390E0E4
:103AE00066E040E00E944B0880E390E065E040E043
:103AF0000E944B0880E390E063E040E00E944B08A6
:103B000083E390E062E041E00E944B0883E390E0B1
:103B100063E041E00E944B0883E390E064E041E011
:103B20000E944B0883E390E065E041E00E944B086F
:103B300080E0CF91DF910895DF93CF93CDB7DEB7CB
:103B4000AF970FB6F894DEBF0FBECDBF82E08B8B70
:103B500083E08C8B84E08D8B85E08E8B87E08F8B70
:103B600086E0888F85E0898F83E08A8FCE014B962F
:103B70009CA78BA7E9ECF1E0FEA7EDA7F0E1FFA77A
:103B8000EDA5FEA500808DA59EA501969EA78DA7FB
:103B9000EBA5FCA500828BA59CA501969CA78BA7F5
:103BA0009FA591509FA7EFA5EE2351F7188A1A8A77
:103BB000CBC08A89282F30E0CE014396FC01E20F6A
:103BC000F31F208183E390E0622F40E00E94FF0812
:103BD000198A33C08989282F30E0CE014796FC012D
:103BE000E20FF31F208180E390E0622F0E941F17F5
:103BF0008F878F858130F1F48A89282F30E0898979
:103C0000482F50E0220F331F220F331FCE010196A1
:103C1000820F931F840F951FFC017A968081888BF9
:103C20008889AF960FB6F894DEBF0FBECDBFCF9197
:103C3000DF91089589898F5F898B8989853050F25A
:103C40008A89282F30E0CE014396FC01E20FF31F52
:103C5000208183E390E0622F41E00E94FF0880E032
:103C600090E0A0E2B1E48B879C87AD87BE876B852F
:103C70007C858D859E8520E030E04AE755E40E94F2
:103C80001F02DC01CB018F839887A987BA876F81D8
:103C9000788589859A8520E030E040E85FE30E94DE
:103CA000250488232CF481E090E09E838D833FC01F
:103CB0006F81788589859A8520E03FEF4FE757E44B
:103CC0000E94C50318164CF56B857C858D859E85F5
:103CD00020E030E040E251E40E941F02DC01CB0111
:103CE000BC01CD010E944900DC01CB019E838D8384
:103CF0000FC080E991E09C838B838B819C8101972D
:103D0000F1F79C838B838D819E8101979E838D83A8
:103D10008D819E81009769F714C06F8178858985B0
:103D20009A850E944900DC01CB019E838D838D81A1
:103D30009E819A83898389819A810197F1F79A8379
:103D400089838A898F5F8A8B8A89853008F431CF8D
:103D50002ECFDF93CF9300D000D000D0CDB7DEB709
:103D60009A8389836B834C8389819A816C8141E03A
:103D70000E944B088B81282F30E03E832D838D815C
:103D80009E81009761F02D813E812130310569F4DB
:103D900089819A816C8141E00E94FF0806C0898177
:103DA0009A816C8140E00E94FF0826960FB6F89435
:103DB000DEBF0FBECDBFCF91DF910895DF93CF93CC
:103DC00000D00F92CDB7DEB71B821A82198280E035
:103DD0000E94DF079A83898389819A81CC01A0E0C0
:103DE000B0E026E930E040E050E0BC01CD010E94A7
:103DF000103DDC01CB01BC01CD010E94A904DC0116
:103E0000CB01BC01CD012AE037ED43E250E40E9432
:103E10001F02DC01CB01BC01CD0120E030ED4FEBF6
:103E200054E40E941903DC01CB01BC01CD010E94C6
:103E30004900DC01CB018B838B81882F90E00F90B0
:103E40000F900F90CF91DF9108950F931F93DF9301
:103E5000CF93CDB7DEB7C754D0400FB6F894DEBFCE
:103E60000FBECDBFFE01E95BFF4F808389E390E089
:103E700062E040E00E94FF08FE01ED5BFF4F80E042
:103E800090E0A0E2B1E480839183A283B3838E01AA
:103E9000015C1F4FFE01ED5BFF4F608171818281EC
:103EA000938120E030E04AE755E40E941F02DC01E4
:103EB000CB01F80180839183A283B383FE01FF9637
:103EC000608171818281938120E030E040E85FE38E
:103ED0000E94250488232CF481E090E09EAF8DAFF2
:103EE00046C0FE01FF96608171818281938120E04E
:103EF0003FEF4FE757E40E94C503181664F5FE0133
:103F0000ED5BFF4F608171818281938120E030E021
:103F100040E251E40E941F02DC01CB01BC01CD0153
:103F20000E944900DC01CB019EAF8DAF0FC080E93C
:103F300091E09CAF8BAF8BAD9CAD0197F1F79CAF3F
:103F40008BAF8DAD9EAD01979EAF8DAF8DAD9EAD0C
:103F5000009769F716C0FE01FF966081718182812A
:103F600093810E944900DC01CB019EAF8DAF8DADE6
:103F70009EAD9AAF89AF89AD9AAD0197F1F79AAF2F
:103F800089AFFE01E95BFF4F8081882F90E080714F
:103F90009070959587959595879595958795959525
:103FA0008795282F86E390E060E0422F0E94FF086B
:103FB000FE01E95BFF4F8081882F90E08072907056
:103FC00095958795959587959595879595958795D9
:103FD00095958795282F86E390E061E0422F0E9417
:103FE000FF08FE01E95BFF4F8081882F90E080741D
:103FF0009070082E892F000C881F990B000C881FC9
:10400000991F282F86E390E062E0422F0E94FF086C
:10401000FE01E95BFF4F8081282F221F2227221FEC
:1040200086E390E064E0422F0E94FF0889E390E07D
:1040300062E041E00E94FF0880E090E0A0E2B1E48D
:104040008DAB9EABAFABB8AF6DA97EA98FA998AD74
:1040500020E030E04AE755E40E941F02DC01CB017A
:1040600089AB9AABABABBCAB69A97AA98BA99CA96C
:1040700020E030E040E85FE30E94250488232CF430
:1040800081E090E098AB8FA73FC069A97AA98BA97E
:104090009CA920E03FEF4FE757E40E94C5031816A4
:1040A0004CF56DA97EA98FA998AD20E030E040E2E3
:1040B00051E40E941F02DC01CB01BC01CD010E9432
:1040C0004900DC01CB0198AB8FA70FC080E991E0DC
:1040D0009EA78DA78DA59EA50197F1F79EA78DA7F9
:1040E0008FA598A9019798AB8FA78FA598A900973E
:1040F00069F714C069A97AA98BA99CA90E944900F3
:10410000DC01CB0198AB8FA78FA598A99CA78BA7A3
:104110008BA59CA50197F1F79CA78BA789E390E05D
:1041200062E040E00E94FF0880E090E0A0E2B1E49D
:104130008FA398A7A9A7BAA76FA178A589A59AA5C3
:1041400020E030E04AE755E40E941F02DC01CB0189
:104150008BA39CA3ADA3BEA36BA17CA18DA19EA1AB
:1041600020E030E040E85FE30E94250488232CF43F
:1041700081E090E09AA389A33FC06BA17CA18DA1AF
:104180009EA120E03FEF4FE757E40E94C5031816B9
:104190004CF56FA178A589A59AA520E030E040E212
:1041A00051E40E941F02DC01CB01BC01CD010E9441
:1041B0004900DC01CB019AA389A30FC080E991E0FB
:1041C00098A38F8F8F8D98A10197F1F798A38F8F68
:1041D00089A19AA101979AA389A389A19AA100977D
:1041E00069F714C06BA17CA18DA19EA10E9449001A
:1041F000DC01CB019AA389A389A19AA19E8F8D8FFF
:104200008D8D9E8D0197F1F79E8F8D8FFE01E95B5D
:10421000FF4F8081282F217086E390E060E0422FDD
:104220000E94FF08FE01E95BFF4F8081882F90E02C
:104230008270907095958795282F86E390E061E0D5
:10424000422F0E94FF08FE01E95BFF4F8081882F0B
:1042500090E0847090709595879595958795282F17
:1042600086E390E062E0422F0E94FF08FE01E95BD6
:10427000FF4F8081882F90E088709070959587958A
:104280009595879595958795282F86E390E064E02E
:10429000422F0E94FF0889E390E062E041E00E9423
:1042A000FF0880E090E0A0E2B1E4898F9A8FAB8FA5
:1042B000BC8F698D7A8D8B8D9C8D20E030E04AE734
:1042C00055E40E941F02DC01CB018D8B9E8BAF8BCE
:1042D000B88F6D897E898F89988D20E030E040E825
:1042E0005FE30E94250488232CF481E090E09C8BFE
:1042F0008B8B3FC06D897E898F89988D20E03FEF41
:104300004FE757E40E94C50318164CF5698D7A8D66
:104310008B8D9C8D20E030E040E251E40E941F0232
:10432000DC01CB01BC01CD010E944900DC01CB01C5
:104330009C8B8B8B0FC080E991E09A8B898B89894C
:104340009A890197F1F79A8B898B8B899C890197C0
:104350009C8B8B8B8B899C89009769F714C06D8926
:104360007E898F89988D0E944900DC01CB019C8B4E
:104370008B8B8B899C89988B8F878F8598890197E8
:10438000F1F7988B8F8789E390E062E040E00E942C
:10439000FF0880E090E0A8E4B2E48B879C87AD87BB
:1043A000BE876B857C858D859E8520E030E04AE761
:1043B00055E40E941F02DC01CB018F839887A987F7
:1043C000BA876F81788589859A8520E030E040E85A
:1043D0005FE30E94250488232CF481E090E09E8313
:1043E0008D833FC06F81788589859A8520E03FEF76
:1043F0004FE757E40E94C50318164CF56B857C8582
:104400008D859E8520E030E040E251E40E941F024D
:10441000DC01CB01BC01CD010E944900DC01CB01D4
:104420009E838D830FC080E991E09C838B838B8179
:104430009C810197F1F79C838B838D819E810197ED
:104440009E838D838D819E81009769F714C06F8153
:10445000788589859A850E944900DC01CB019E837D
:104460008D838D819E819A83898389819A81019729
:10447000F1F79A838983C95BDF4F0FB6F894DEBFEB
:104480000FBECDBFCF91DF911F910F910895DF93A4
:10449000CF93CDB7DEB76C970FB6F894DEBF0FBEE3
:1044A000CDBF80E090E0A0EFB1E4898F9A8FAB8F11
:1044B000BC8F698D7A8D8B8D9C8D20E030E04AE732
:1044C00055E40E941F02DC01CB018D8B9E8BAF8BCC
:1044D000B88F6D897E898F89988D20E030E040E823
:1044E0005FE30E94250488232CF481E090E09C8BFC
:1044F0008B8B3FC06D897E898F89988D20E03FEF3F
:104500004FE757E40E94C50318164CF5698D7A8D64
:104510008B8D9C8D20E030E040E251E40E941F0230
:10452000DC01CB01BC01CD010E944900DC01CB01C3
:104530009C8B8B8B0FC080E991E09A8B898B89894A
:104540009A890197F1F79A8B898B8B899C890197BE
:104550009C8B8B8B8B899C89009769F714C06D8924
:104560007E898F89988D0E944900DC01CB019C8B4C
:104570008B8B8B899C89988B8F878F8598890197E6
:10458000F1F7988B8F8789E390E064E041E00E9427
:104590004B0889E390E062E041E00E944B0880E034
:1045A00090E0A0EAB1E48B879C87AD87BE876B85DE
:1045B0007C858D859E8520E030E04AE755E40E94A9
:1045C0001F02DC01CB018F839887A987BA876F818F
:1045D000788589859A8520E030E040E85FE30E9495
:1045E000250488232CF481E090E09E838D833FC0D6
:1045F0006F81788589859A8520E03FEF4FE757E402
:104600000E94C50318164CF56B857C858D859E85AB
:1046100020E030E040E251E40E941F02DC01CB01C7
:10462000BC01CD010E944900DC01CB019E838D833A
:104630000FC080E991E09C838B838B819C810197E3
:10464000F1F79C838B838D819E8101979E838D835F
:104650008D819E81009769F714C06F817885898567
:104660009A850E944900DC01CB019E838D838D8158
:104670009E819A83898389819A810197F1F79A8330
:10468000898386E390E060E041E00E944B0886E386
:1046900090E061E041E00E944B0886E390E062E038
:1046A00041E00E944B0886E390E064E041E00E9414
:1046B0004B0883E30E94712382E30E94712388E206
:1046C0000E9471238CE00E94712381E00E9471237B
:1046D0006C960FB6F894DEBF0FBECDBFCF91DF91C1
:1046E0000895DF93CF93CDB7DEB72F970FB6F89429
:1046F000DEBF0FBECDBF8F8789E390E064E040E06E
:104700000E94FF0880E090E0A0E8BFE38B879C87D1
:10471000AD87BE876B857C858D859E8520E030E0EA
:104720004AE755E40E941F02DC01CB018F83988782
:10473000A987BA876F81788589859A8520E030E0DE
:1047400040E85FE30E94250488232CF481E090E098
:104750009E838D833FC06F81788589859A8520E00F
:104760003FEF4FE757E40E94C50318164CF56B85E1
:104770007C858D859E8520E030E040E251E40E94FA
:104780001F02DC01CB01BC01CD010E944900DC010C
:10479000CB019E838D830FC080E991E09C838B8346
:1047A0008B819C810197F1F79C838B838D819E8106
:1047B00001979E838D838D819E81009769F714C038
:1047C0006F81788589859A850E944900DC01CB013B
:1047D0009E838D838D819E819A83898389819A812D
:1047E0000197F1F79A8389838F850E94251F2F9661
:1047F0000FB6F894DEBF0FBECDBFCF91DF91089505
:10480000DF93CF930F92CDB7DEB7898389E390E032
:1048100064E041E00E94FF0889810E94251F0F90FB
:10482000CF91DF910895DF93CF9300D0CDB7DEB75E
:104830009A8389830AC0E981FA8180810E940024D9
:1048400089819A8101969A838983E981FA8180819D
:10485000882F90E0009779F70F900F90CF91DF911C
:104860000895DF93CF93CDB7DEB762970FB6F89474
:10487000DEBF0FBECDBF9A8B898B89899A899E0135
:104880002F5F3F4FB9014AE050E00E94D63DCE0174
:1048900001960E94132462960FB6F894DEBF0FBEF5
:1048A000CDBFCF91DF910895DF93CF9300D000D09B
:1048B00000D0CDB7DEB78D836E8380E8898380EC2E
:1048C0008A8384E98B8384ED8C838D81282F30E06B
:1048D000CE010196FC01E20FF31F90818E81890FBA
:1048E0000E94712326960FB6F894DEBF0FBECDBF8F
:1048F000CF91DF910895DF93CF93CDB7DEB781E0FD
:104900000E947123CF91DF910895DF93CF9300D060
:1049100000D0CDB7DEB789836A835C834B838981FE
:104920006A810E9454248B819C810E9413240F90E1
:104930000F900F900F90CF91DF910895DF93CF9359
:1049400000D0CDB7DEB7198288E48A83CE01019604
:104950000E942E0D0F900F90CF91DF910895DF935D
:10496000CF9300D000D000D0CDB7DEB78E831B82AE
:104970008E818A83198219C08981482F50E08A81EB
:104980009AE0692F0E942F3D892F282FCE0104968F
:10499000FC01E40FF51F20838A819AE0692F0E94B1
:1049A0002F3D8A8389818F5F89838981823020F3BB
:1049B0008C81282F8D81882F90E082959295907F11
:1049C0009827807F9827822B8B838B8126960FB622
:1049D000F894DEBF0FBECDBFCF91DF910895DF9376
:1049E000CF9300D0CDB7DEB78A838A81898389814E
:1049F0000F900F90CF91DF910895DF93CF9300D068
:104A000000D000D0CDB7DEB78E838E818B83198224
:104A100019C08981482F50E08B819AE0692F0E944C
:104A20002F3D892F282FCE010496FC01E40FF51F9E
:104A300020838B819AE0692F0E942F3D8B8389818F
:104A40008F5F89838981823020F38C81282F8D812B
:104A5000882F90E082959295907F9827807F982765
:104A6000822B8A838A8126960FB6F894DEBF0FBE0A
:104A7000CDBFCF91DF910895DF93CF9300D000D0C9
:104A800000D0CDB7DEB78E838E818B83198219C09B
:104A90008981482F50E08B819AE0692F0E942F3D39
:104AA000892F282FCE010496FC01E40FF51F2083E7
:104AB0008B819AE0692F0E942F3D8B8389818F5FC4
:104AC00089838981823020F38C81282F8D81882FE2
:104AD00090E082959295907F9827807F9827822BEF
:104AE0008A838A8126960FB6F894DEBF0FBECDBFAB
:104AF000CF91DF910895DF93CF93CDB7DEB72C9799
:104B00000FB6F894DEBF0FBECDBF8E836F8348878C
:104B10001B828B818F778B838E818A83198219C048
:104B20008981482F50E08A819AE0692F0E942F3DA9
:104B3000892F282FCE010496FC01E40FF51F208356
:104B40008A819AE0692F0E942F3D8A8389818F5F35
:104B500089838981823020F38F81282F30E03C8740
:104B60002B878B859C85009799F12B853C8521307F
:104B7000310509F046C08B8180648B838885282F9E
:104B800030E03A87298789859A85009731F0298511
:104B90003A852130310529F007C08B818F7D8B83C9
:104BA00003C08B8180628B838C81282F8D81882F1D
:104BB00090E082959295907F9827807F9827922FFA
:104BC000982B8B81892B8B838B818F718B8319C061
:104BD0008B818F7B8B838B818F7D8B838C81282F27
:104BE0008D81882F90E082959295907F9827807F85
:104BF0009827922F982B8B81892B8B838B818F7396
:104C00008B838B812C960FB6F894DEBF0FBECDBF81
:104C1000CF91DF910895DF93CF9300D000D000D0E3
:104C2000CDB7DEB78E831B828B818F778B838E818E
:104C30008A83198219C08981482F50E08A819AE0BD
:104C4000692F0E942F3D892F282FCE010496FC0149
:104C5000E40FF51F20838A819AE0692F0E942F3D7F
:104C60008A8389818F5F89838981823020F38C8157
:104C7000282F8D81882F90E082959295907F98279C
:104C8000807F9827922F982B8B81892B8B838B8108
:104C900026960FB6F894DEBF0FBECDBFCF91DF9141
:104CA0000895DF93CF9300D0CDB7DEB79A83898381
:104CB0000E94520D80ED0E946D0D80E00E946D0DEE
:104CC000E981FA8182810E940B260E946D0DE981A3
:104CD000FA8181810E940B260E946D0DE981FA8183
:104CE0008081E981FA812381E981FA819481622FAF
:104CF000492F0E947B250E946D0D0E94620D81E06C
:104D00000F900F90CF91DF910895DF93CF93CDB7A0
:104D1000DEB728970FB6F894DEBF0FBECDBF9F83D6
:104D20008E830E94520D80ED0E946D0D80E00E94E6
:104D30006D0D0E94BA0D883211F01886D1C00E9404
:104D4000520D0E94BA0D803111F01886C9C081ED54
:104D50000E946D0D0E94BA0D803411F01886C0C0FB
:104D6000CE0105960E94840D8D818C83CE0105961F
:104D70000E94840D8D818B83CE0105960E949F0D2C
:104D80008D818A830E94620D8C8182958F708983C8
:104D90008981882F90E09C01220F331FC901880F61
:104DA000991F880F991F820F931F89838C81982FD9
:104DB0009F708981890F8C838B8182958F70898305
:104DC0008981882F90E09C01220F331FC901880F31
:104DD000991F880F991F820F931F89838B81982FAA
:104DE0009F708981890F8B838A8182958F708983D7
:104DF0008981882F90E09C01220F331FC901880F01
:104E0000991F880F991F820F931F89838A81982F7A
:104E10009F708981890F8A83EE81FF818C818283D3
:104E2000EE81FF818B818183EE81FF818A81808386
:104E30008A81882F90E080749070082E892F000C52
:104E4000881F990B000C881F991F8130910581F5EF
:104E5000EE81FF8181E083838A81882F90E08072D8
:104E60009070959587959595879595958795959546
:104E70008795959587958130910529F4EE81FF817D
:104E800081E084832BC08A81882F90E080729070AB
:104E900095958795959587959595879595958795FA
:104EA000959587950097D1F4EE81FF81148216C005
:104EB0008A81882F90E080749070082E892F000CD2
:104EC000881F990B000C881F991F009739F4EE81F9
:104ED000FF811382EE81FF8182E0848381E08887F5
:104EE000888528960FB6F894DEBF0FBECDBFCF9150
:104EF000DF910895DF93CF9300D000D000D0CDB7DD
:104F0000DEB79E838D83ED81FE8184810E94EF2434
:104F10008C83ED81FE8183810E94AF248B83ED81A0
:104F2000FE8182810E94FD248A83ED81FE81808141
:104F300091810E943C2589830E94520D80ED0E9440
:104F40006D0D83E00E946D0D8C810E946D0D8B8133
:104F50000E946D0D8A810E946D0D89810E946D0DE8
:104F60000E94620D26960FB6F894DEBF0FBECDBF2D
:104F7000CF91DF910895AF92BF92CF92DF92EF92DF
:104F8000FF920F931F93DF93CF93CDB7DEB7679751
:104F90000FB6F894DEBF0FBECDBF0E94520D80ED5C
:104FA0000E946D0D83E00E946D0D0E94520D81EDF7
:104FB0000E946D0DCE010A960E94840D8A858C8315
:104FC000CE010A960E94840D8A858B83CE010A96B3
:104FD0000E94840D8A858A83CE010A960E949F0DC5
:104FE0008A8589830E94620D8C81809343028B8124
:104FF000809342028A81809341028981882F90E0C8
:105000009093400280933F02CE0105969C878B8748
:10501000EFE3F2E0FE87ED87F5E0FF87ED85FE85A3
:1050200000808D859E8501969E878D87EB85FC850A
:1050300000828B859C8501969C878B879F859150EC
:105040009F87EF85EE2351F720E02D8130E03E81F0
:1050500040E04F8180E0888590E09985288B398BEE
:105060004A8B8B8B9C8BA888B988CA88DB88EC8894
:10507000FD880E891F892A2D3B2D4C2D5D2D6E2D0F
:105080007F2D802F912F67960FB6F894DEBF0FBE4D
:10509000CDBFCF91DF911F910F91FF90EF90DF90E7
:1050A000CF90BF90AF9008950F931F93DF93CF934E
:1050B000CDB7DEB7C952D1400FB6F894DEBF0FBEF0
:1050C000CDBFFE01E95DFE4F808386E390E060E0A6
:1050D00041E00E944B0886E390E061E041E00E94DD
:1050E0004B0886E390E062E041E00E944B0886E3D3
:1050F00090E064E041E00E944B0886E390E060E0CD
:1051000040E00E94FF0886E390E061E040E00E94FA
:10511000FF0886E390E062E040E00E94FF0886E33B
:1051200090E064E040E00E94FF0889E390E063E0E3
:1051300041E00E944B0889E390E062E041E00E9478
:105140004B0886E390E065E041E00E944B0886E36F
:1051500090E066E041E00E944B08FE01E95DFE4FF1
:105160008081282F30E0C85DDE4F39832883C85204
:10517000D140C85DDE4F88819981C852D1408330CB
:10518000910509F4E3C6C85DDE4FE881F981C85294
:10519000D140E430F105F4F4C85DDE4F2881398157
:1051A000C852D1402130310509F46AC2C85DDE4FD2
:1051B00088819981C852D140823091050CF093C406
:1051C000C85DDE4FE881F981C852D140309729F19E
:1051D0000C943B37C85DDE4F28813981C852D140DD
:1051E0002530310511F40C940A34C85DDE4F8881F6
:1051F0009981C852D1408530910514F40C94D8316E
:10520000C85DDE4FE881F981C852D140E630F10532
:1052100011F40C94CD350C943B3789E390E063E0B6
:1052200040E00E94FF08FE01ED5DFE4F80E090E04F
:10523000A0E0B0E480839183A283B3838E01015EFA
:105240001E4FFE01ED5DFE4F608171818281938171
:1052500020E030E04AE755E40E941F02DC01CB0168
:10526000F80180839183A283B383FE01E15EFE4F48
:10527000608171818281938120E030E040E85FE3CA
:105280000E942504882344F4FE01E35EFE4F81E082
:1052900090E09183808364C0FE01E15EFE4F6081F7
:1052A00071818281938120E03FEF4FE757E40E94B4
:1052B000C50318160CF043C0FE01ED5DFE4F608182
:1052C00071818281938120E030E040E251E40E94CC
:1052D0001F02DC01CB018E01035E1E4FBC01CD011C
:1052E0000E944900DC01CB01F801918380831FC03B
:1052F000FE01E55EFE4F80E991E091838083FE012F
:10530000E55EFE4F808191810197F1F7FE01E55E38
:10531000FE4F91838083DE01A35EBE4FFE01E35EFC
:10532000FE4F80819181019711969C938E93FE018F
:10533000E35EFE4F808191810097D1F627C08E01F8
:10534000035E1E4FFE01E15EFE4F6081718182812E
:1053500093810E944900DC01CB01F8019183808395
:10536000DE01A75EBE4FFE01E35EFE4F80819181AC
:105370008D939C93FE01E75EFE4F808191810197A2
:10538000F1F7FE01E75EFE4F9183808389E390E0B1
:1053900062E041E00E94FF08FE01EB5EFE4F80E00C
:1053A00090E0A0E0B0E480839183A283B3838E0178
:1053B0000F5E1E4FFE01EB5EFE4F608171818281A8
:1053C000938120E030E04AE755E40E941F02DC01AF
:1053D000CB01F80180839183A283B383FE01EF5E4A
:1053E000FE4F608171818281938120E030E040E84E
:1053F0005FE30E942504882344F4FE01E15FFE4F31
:1054000081E090E09183808364C0FE01EF5EFE4FF7
:10541000608171818281938120E03FEF4FE757E403
:105420000E94C50318160CF043C0FE01EB5EFE4F50
:10543000608171818281938120E030E040E251E41B
:105440000E941F02DC01CB018E01015F1E4FBC01D7
:10545000CD010E944900DC01CB01F80191838083DA
:105460001FC0FE01E35FFE4F80E991E091838083DE
:10547000FE01E35FFE4F808191810197F1F7FE010C
:10548000E35FFE4F91838083DE01A15FBE4FFE018B
:10549000E15FFE4F80819181019711969C938E93DD
:1054A000FE01E15FFE4F808191810097D1F627C018
:1054B0008E01015F1E4FFE01EF5EFE4F6081718124
:1054C000828193810E944900DC01CB01F801918324
:1054D0008083DE01A55FBE4FFE01E15FFE4F80814C
:1054E00091818D939C93FE01E55FFE4F80819181B8
:1054F0000197F1F7FE01E55FFE4F9183808386E31C
:1055000090E065E041E00E94FF08FE01E95FFE4F88
:1055100080E090E0A0E0B0E480839183A283B38335
:105520008E010D5F1E4FFE01E95FFE4F60817181AC
:105530008281938120E030E04AE755E40E941F0217
:10554000DC01CB01F80180839183A283B383FE0148
:10555000ED5FFE4F608171818281938120E030E0B8
:1055600040E85FE30E942504882344F4FE01EF5FD6
:10557000FE4F81E090E09183808364C0FE01ED5F87
:10558000FE4F608171818281938120E03FEF4FE780
:1055900057E40E94C50318160CF043C0FE01E95FF2
:1055A000FE4F608171818281938120E030E040E292
:1055B00051E40E941F02DC01CB018E010F5F1E4FE0
:1055C000BC01CD010E944900DC01CB01F8019183AF
:1055D00080831FC0FE01E150FF4F80E991E091837D
:1055E0008083FE01E150FF4F808191810197F1F7A7
:1055F000FE01E150FF4F91838083DE01AF5FBE4F1C
:10560000FE01EF5FFE4F80819181019711969C937F
:105610008E93FE01EF5FFE4F808191810097D1F65E
:1056200027C08E010F5F1E4FFE01ED5FFE4F6081B0
:105630007181828193810E944900DC01CB01F801D4
:1056400091838083DE01A350BF4FFE01EF5FFE4FC9
:10565000808191818D939C93FE01E350FF4F808167
:1056600091810197F1F7FE01E350FF4F9183808311
:1056700086E390E066E041E00E94FF080C943B372F
:1056800089E390E063E040E00E94FF08FE01E750FC
:10569000FF4F80E090E0A0E0B0E480839183A2839C
:1056A000B3838E010B501F4FFE01E750FF4F608107
:1056B00071818281938120E030E04AE755E40E94C5
:1056C0001F02DC01CB01F80180839183A283B383A5
:1056D000FE01EB50FF4F608171818281938120E058
:1056E00030E040E85FE30E942504882344F4FE0193
:1056F000ED50FF4F81E090E09183808364C0FE0114
:10570000EB50FF4F608171818281938120E03FEFF8
:105710004FE757E40E94C50318160CF043C0FE0182
:10572000E750FF4F608171818281938120E030E0FA
:1057300040E251E40E941F02DC01CB018E010D50BA
:105740001F4FBC01CD010E944900DC01CB01F801D3
:10575000918380831FC0FE01EF50FF4F80E991E0ED
:1057600091838083FE01EF50FF4F808191810197EB
:10577000F1F7FE01EF50FF4F91838083DE01AD50C2
:10578000BF4FFE01ED50FF4F80819181019711962F
:105790009C938E93FE01ED50FF4F80819181009785
:1057A000D1F627C08E010D501F4FFE01EB50FF4F69
:1057B00060817181828193810E944900DC01CB016B
:1057C000F80191838083DE01A151BF4FFE01ED50AE
:1057D000FF4F808191818D939C93FE01E151FF4F9A
:1057E000808191810197F1F7FE01E151FF4F918393
:1057F000808389E390E062E040E00E94FF08FE01C0
:10580000E551FF4F80E090E0A0E0B0E48083918319
:10581000A283B3838E0109511F4FFE01E551FF4F53
:10582000608171818281938120E030E04AE755E414
:105830000E941F02DC01CB01F80180839183A283C7
:10584000B383FE01E951FF4F6081718182819381B1
:1058500020E030E040E85FE30E942504882344F420
:10586000FE01EB51FF4F81E090E09183808364C0A3
:10587000FE01E951FF4F608171818281938120E0B7
:105880003FEF4FE757E40E94C50318160CF043C0E2
:10589000FE01E551FF4F608171818281938120E09B
:1058A00030E040E251E40E941F02DC01CB018E0196
:1058B0000B511F4FBC01CD010E944900DC01CB01FF
:1058C000F801918380831FC0FE01ED51FF4F80E9F5
:1058D00091E091838083FE01ED51FF4F80819181A2
:1058E0000197F1F7FE01ED51FF4F91838083DE01B7
:1058F000AB51BF4FFE01EB51FF4F8081918101976A
:1059000011969C938E93FE01EB51FF4F8081918104
:105910000097D1F627C08E010B511F4FFE01E951B0
:10592000FF4F60817181828193810E944900DC0177
:10593000CB01F80191838083DE01AF51BF4FFE019F
:10594000EB51FF4F808191818D939C93FE01EF512C
:10595000FF4F808191810197F1F7FE01EF51FF4FD9
:105960009183808386E390E065E041E00E94FF0838
:10597000FE01E352FF4F80E090E0A0E0B0E48083BE
:105980009183A283B3838E0107521F4FFE01E3521E
:10599000FF4F608171818281938120E030E04AE78E
:1059A00055E40E941F02DC01CB01F8018083918342
:1059B000A283B383FE01E752FF4F60817181828130
:1059C000938120E030E040E85FE30E9425048823D3
:1059D00044F4FE01E952FF4F81E090E0918380831F
:1059E00064C0FE01E752FF4F608171818281938123
:1059F00020E03FEF4FE757E40E94C50318160CF074
:105A000043C0FE01E352FF4F608171818281938127
:105A100020E030E040E251E40E941F02DC01CB01B3
:105A20008E0109521F4FBC01CD010E944900DC01CB
:105A3000CB01F801918380831FC0FE01EB52FF4F21
:105A400080E991E091838083FE01EB52FF4F8081DA
:105A500091810197F1F7FE01EB52FF4F9183808313
:105A6000DE01A952BF4FFE01E952FF4F80819181B3
:105A7000019711969C938E93FE01E952FF4F80810E
:105A800091810097D1F627C08E0109521F4FFE0168
:105A9000E752FF4F60817181828193810E944900AA
:105AA000DC01CB01F80191838083DE01AD52BF4F51
:105AB000FE01E952FF4F808191818D939C93FE01FD
:105AC000ED52FF4F808191810197F1F7FE01ED5278
:105AD000FF4F9183808386E390E066E041E00E947F
